:020000040800F2
:100000001005002009010008FF190008CB1800089E
:10001000FD19000849070008CD2100080000000074
:10002000000000000000000000000000A11E000809
:100030008507000800000000011A0008A31E000840
:100040002301000823010008230100082301000800
:1000500023010008230100082301000823010008F0
:1000600023010008230100082301000823010008E0
:1000700023010008230100082301000823010008D0
:1000800023010008230100082301000823010008C0
:1000900023010008230100082301000823010008B0
:1000A00000000000230100082301000823010008CC
:1000B0002301000823010008230100082301000890
:1000C0002301000823010008230100082301000880
:1000D00023010008C12100082301000823010008B2
:1000E0002301000823010008230100082301000860
:1000F00023010008DFF80CD000F014FB0048004793
:10010000E523000810050020064880470648004700
:10011000FEE7FEE7FEE7FEE7FEE7FEE7FEE7FEE7B7
:10012000FEE7FEE7091F0008F50000082DE9F05F73
:100130000546002092469B46884606468146402456
:100140001BE0284641464746224600F034FA534613
:100150005A46C01A914110D311461846224600F063
:100160001BFA2D1A67EB01084F4622460120002199
:1001700000F012FA17EB00094E41201EA4F1010411
:10018000DFDC484631462A464346BDE8F09FD2B2FE
:1001900001E000F8012B491EFBD270470022F6E770
:1001A00010B513460A4604461946FFF7F0FF2046ED
:1001B00010BD2DE9FE4F804681EA0300C00F0C46BA
:1001C000009021F0004123F00045B8EB0200A94166
:1001D00005D24046214690461C460B46024623F077
:1001E0000040104347D0270DC7F30A00C3F30A515C
:1001F0000290401A019040286BDAC3F3130040F4D8
:10020000801B0098924620B10023D2EB030A63EBD7
:100210000B0B01985946C0F14002504600F0BCF962
:1002200006460D4650465946019A00F0D4F910EBA7
:1002300008006141002487EA115284EAE7731A43F7
:1002400040D0009A62B3019A012A4FEA075215DCA6
:10025000001B61EB02014FF0004202EA0752CDE9B8
:100260000042001C41F5801132462B4600F00BFA8B
:1002700003B0BDE8F08F40462146F9E7001B61EB73
:100280000201001C41F5801300185B412018A2F503
:10029000001747EB030140EAD570B6196D4111E034
:1002A0006D084FEA360645EAC0754FEA0752001B53
:1002B00061EB0201001C41F5801149084FEA300052
:1002C0000019514132462B4603B0BDE8F04F00F013
:1002D000CBB90098012240000023D0EB020263EB6F
:1002E000E073009821464FEAE074B8EB000061EB40
:1002F0000401E9E783F000435BE781F0004158E740
:100300002DE9FE4F81EA030404F0004421F000418E
:1003100000944FF0000B23F0004350EA01045ED03C
:1003200052EA03045BD0C3F30A54C1F30A552C44C8
:10033000A4F2F3340194A0FB0254C1F3130141F47D
:100340008011C3F3130343F4801301FB024400FB49
:10035000034E840A970A44EA815447EA8357A4FB70
:10036000076802958D0A05FB07854FEA932C04FB6D
:100370000C542705029D4FEA065847EA1637B5EB9D
:1003800008056EEB070C870E920E47EA811742EACA
:100390008312A7FB0201B6EB0B0164EB00042B0DEB
:1003A00043EA0C335E1844EB1C50DA465146E7FB37
:1003B0000201C5F313044FEA0B3343EA14534FEA27
:1003C0000432019C43EA0603A4F10C040294009C4D
:1003D000CDE900B400F057F903B0BDE8F08F00207C
:1003E0000146F9E72DE9F04D81EA030404F0004BE2
:1003F00021F0004514464FF0000A23F0004150EA76
:10040000050220D054EA01021DD0C5F30A57024666
:10041000C5F31303C1F31300C1F30A5640F480156A
:1004200043F48013A7EB0608101BD64608F2FD38EC
:1004300073EB050002D308F1010801E092185B415B
:10044000B8F1000F03DA00200146BDE8F08D00206E
:100450004FF48011064684460EE0171B73EB050728
:1004600005D3121B63EB050306434CEA010C490854
:100470004FEA300092185B4150EA0107EDD152EA91
:10048000030012D082EA040083EA0501084305D084
:10049000101BAB4106D20122002306E000224FF0E0
:1004A000004302E06FF0010253101AEB06004CEB20
:1004B000085110EB0A0041EB0B01BDE8F04D00F0D4
:1004C000D3B80EB540F2334102910021CDE90011BD
:1004D0000A460B4600F0D7F803B000BDC1F30A523C
:1004E00010B5C1F3130140F2FF3341F480119A4279
:1004F00001DA002010BD40F233439A42A2F23342A7
:1005000003DC524200F057F810BD904010BD00F0DF
:10051000004230F000400AD0C10D01F56071C0F317
:10052000160042EA0151C2084007114370470020FB
:100530000146704701F0004330B421F0004150EA19
:10054000010206D00A0DA2F56072C1F31301002A60
:1005500002DC30BC00207047440F44EAC104C100F3
:10056000E01830BC00EBC25000F047B830B50B4685
:10057000014600202022012409E021FA02F59D42D3
:1005800005D303FA02F5491B04FA02F52844151EA7
:10059000A2F10102F1DC30BD202A04DB203A00FA8E
:1005A00002F1002070479140C2F1200320FA03F3CA
:1005B000194390407047202A04DB203A21FA02F0C8
:1005C0000021704721FA02F3D040C2F1200291408D
:1005D000084319467047202A06DBCB17203A41FA18
:1005E00002F043EAE07306E041FA02F3D040C2F1C0
:1005F000200291400843194670470029A8BF704760
:10060000401C490008BF20F00100704710B4B0FA48
:1006100080FC00FA0CF050EA010404BF10BC7047E3
:1006200049B1CCF1200421FA04F411FA0CF118BFFD
:10063000012121430843A3EB0C01CB1D4FEA0061CC
:100640004FEA102042BF002010BC704700EBC3509F
:1006500010440029A4BF10BC7047401C490008BFCB
:1006600020F0010010BC704710B5141E73F1000497
:1006700008DA401C41F1000192185B411A4301D194
:1006800020F0010010BD2DE9F04D92469B4611B1BE
:10069000B1FA81F202E0B0FA80F220329046FFF720
:1006A0007BFF04460F4640EA0A0041EA0B0153462D
:1006B0005A46084313D0114653EA010019D0C8F135
:1006C00040025046FFF777FF05460E465046594612
:1006D0004246FFF761FF084305D0012004E02046B1
:1006E0003946BDE8F08D0020054346EAE0762C430C
:1006F00037430A986305E40AA0EB08000022FD0ACC
:1007000044EA47540A3002D500200146E9E70105D2
:1007100010196941DDE9084500196941BDE8F04D4E
:10072000A2E70000064C074D06E0E06840F0010338
:1007300094E8070098471034AC42F6D3FFF7DEFC8C
:10074000AC240008CC240008FEE7F0B5FF23002409
:1007500031260FE0055D6B4008251F0602D586EAAD
:10076000430300E05B006D1EDBB215F0FF05F4D122
:10077000641CE4B28C42EDD3934201D10120F0BD60
:100780000020F0BD70477047F8B50024009490F841
:1007900048202546012A12D0012280F848204A68C4
:1007A0001F23072A0DD20668376C521E02EB820205
:1007B00093409F430B6893401F43376435E002200A
:1007C000F8BD0D2A0BD20768FE6BD21F02EB820226
:1007D00093409E430B6893401E43FE6325E0132A1B
:1007E0000BD20668B76B0D3A02EB820293409F432F
:1007F0000B6893401F43B76317E00668192A0AD2B3
:10080000776B133A02EB820293409F430B6893404D
:100810001F43776309E0376B193A02EB820293407A
:100820009F430B6893401F4337630A6807230A2AD4
:100830000AD20668776902EB420293409F438B68B5
:1008400093401F4377611CE0142A0BD207683E696E
:100850000A3A02EB420293409E438B6893401E4348
:100860003E610EE01A2A0BD80768FE68143A02EBC4
:10087000420293409E438B6893401E43FE6000E01B
:1008800000BF0A68102A01D0112A17D10D4A136837
:100890001B0213D4136843F4000313600968102982
:1008A0000CD10949094A0968B1FBF2F101EB810158
:1008B000490000E0491E00910029FBD180F8485012
:1008C0002046F8BD042701401400002040420F00DC
:1008D000F8B504004FF0000503D0E06C002610B11D
:1008E00010E00120F8BD26655C4884F84860016886
:1008F00041F001010160006800F001000090204615
:1009000000F0B6F8E06CC0067AD4E06C20F48850B1
:1009100040F00200E06452480168626821F440310E
:10092000114301606169E0684FF40073084394F873
:100930003C2093FAA3F3B3FA83F3216A9A4011435C
:100940000843022194F8242091FAA1F1B1FA81F12F
:1009500002FA01F10843616B102902D0A36B19431D
:100960000843236819684FF48077C943490629D59D
:10097000A169D4F81CC00843A168D4F810E041EA8A
:100980000C01BE450CD0BEF1010F09D04FF0000C98
:1009900041EA0C0194F82CC0BCF1010F02D00AE02E
:1009A000BC46F5E76AB3E26C42F02002E264226DD5
:1009B00042F0010222655A68DFF8A8C002EA0C0280
:1009C0000A435A6021688A68274B1A4002438A60AA
:1009D0002169B94224D0012922D021680A6B22F072
:1009E000F8720A6321688968204A1140814227D140
:1009F0002665E06C20F0020040F00100E0642AE08F
:100A000028E0FFE74FF4604C226B9CFAACFCBCFA88
:100A10008CFC521E02FA0CF20A4342F40061CAE74F
:100A200021680A6B4FF0F87722F0F873A26A97FA00
:100A3000A7F7B7FA87F7521EBA4013430B63D1E703
:100A4000E06C20F0020040F01000E064206D40F007
:100A50000100206501252846F8BD0000203802402D
:100A600004270140FF16FCFC8DF1FFC0FEFF80BF94
:100A700010B586B0044614216846FFF78FFB114974
:100A8000206888421CD11048016841F4007101605F
:100A9000006800F4007005900B48001F016841F0E9
:100AA000010101600068694600F001000590022024
:100AB00000900320019000200290044800F042F8CA
:100AC00006B010BD00240140203802400000024062
:100AD00010B590F821100024022903D0042181636D
:100AE00001241AE001680A6822F00E020A60016817
:100AF0000A6822F001020A6090F84010C36B01F00E
:100B00001C02012101FA02F25A6080F82110002132
:100B100080F82010416B01B18847204610BD0000CD
:100B200070B5044600F0F6F80546601C02D0044893
:100B30004068044400F0EEF8401BA042FAD370BDB8
:100B4000080000202DE9FC4FDFF894A100230125C7
:100B50000AF1040B03244FF00F0C0BF1040EB8E064
:100B600005FA03F6324071D04F68012F05D0022FED
:100B700003D0112F01D0122F17D1D0F808905F00A9
:100B800004FA07F829EA08090097D1F80C8008FA56
:100B900007F848EA0908C0F808804768B7430E79A3
:100BA000C6F300169E403E434660C6684FEA4308BF
:100BB00004FA08F7BE4301978F6807FA08F737432E
:100BC000C7604E68022E01D0122E13D1DE0800EB52
:100BD00086060096366A5F07FF0E0CFA07F926EACA
:100BE0000906D1F8109009FA07F949EA0609009EAA
:100BF000C6F820900768019EB7430E7906F00306F9
:100C000006FA08F63E4306604E68F60060D5354E9B
:100C1000376847F001073760366823F0030706F0AE
:100C200001060096304E3E44B146B6689F074FEA33
:100C300017780CFA08F7BE432C4FB84201D10027B1
:100C400015E02B4FB84202D1012710E040E0294FB8
:100C5000B84201D102270AE0274FB84201D1032749
:100C600005E0264FB84201D1042700E0052707FA26
:100C700008F73743C9F80870DAF800705646D1F81B
:100C8000048097435FEAC83800D517433760DBF824
:100C900000605F46D1F8048096435FEA883800D54B
:100CA00016433E60DEF800607746D1F80480964334
:100CB0005FEAC82800D516433E60094F0C373E68EE
:100CC000D1F8048096435FEA882800D516433E6039
:100CD0005B1C0A6832FA03F67FF442AFBDE8FC8F72
:100CE00000040140203802400000014000000240A2
:100CF0000004024000080240000C024000100240C4
:100D00000069084000D0012070470AB18161704736
:100D10000904FBE7014880687047000008000020D4
:100D200002488168426811448160704708000020D1
:100D300010B50024032000F079F8002000F008F836
:100D400008B1012401E000F025F8204610BD0000A4
:100D500070B50E4E05460024706898B14FF47A7154
:100D6000B1FBF0F00A490968B1FBF0F000F03EFC7D
:100D700040B9102D06D200222946501E00F036F848
:100D8000356000E00124204670BD0000080000200E
:100D9000140000200D4808B5016841F000410160D1
:100DA000016801F000410091011F0A6842F0010250
:100DB0000A60096801F001010091016841F0805169
:100DC0000160006800F08050009008BD24380240A7
:100DD000002809DB00F01F0201219140400980003A
:100DE00000F1E020C0F8001170470000F0B40E4B95
:100DF0001B680C46C3F30223C3F10705042D00D979
:100E00000425191D072901D2002300E0DB1E01265D
:100E100006FA05F1491E214099409E40761E164073
:100E20003143F0BC01F0E4B90CED00E0064900F0FC
:100E3000070208684FF6FF03184040EA0220034A01
:100E400010430860704700000CED00E00000FA0558
:100E50002DE9F0470E46050079D0DFF88481D8F8F7
:100E6000000000F00100B04214D2012E05D1D8F8E4
:100E7000001041F00401C8F80010D8F8001021F06B
:100E800001013143C8F80010D8F8000000F001005B
:100E9000B0425CD12878534C800705D52068A968FA
:100EA00020F0F000084320602878C0075CD04D494E
:100EB0006868083902281AD003281BD0096801285D
:100EC0001BD08905002966DA216821F0030101435E
:100ED0002160FFF71FFF6968074641F28830022949
:100EE00014D0032920D0012981462AD038E009688E
:100EF0008903E7E709688901E4E78907E2E700BFBA
:100F0000FFF708FFC11B494501D926E0814620684B
:100F1000C0F381000228F3D126E000BFFFF7FAFEFC
:100F2000C11B494501D918E081462068C0F3810002
:100F30000328F3D118E000BFFFF7ECFEC11B4945C1
:100F40000BD82068C0F381000128F5D10CE022E025
:100F5000FFF7E0FEC11B494502D90320BDE8F08739
:100F6000206810F00C0FF3D1D8F80010404601F0C3
:100F70000101B14211D9012E03D1016841F00401F0
:100F80000160016821F0010131430160006800F057
:100F90000100B04201D00120E0E72878400705D5E4
:100FA0002068E96820F4E0600843206028780007A2
:100FB00006D52068296920F4605040EAC10020600D
:100FC00000F038F82168084AC1F30311515CC840A9
:100FD0000649086006480068BDE8F047FFF7B8BE5C
:100FE000003C024008380240912400081400002010
:100FF000080000200448054900680968044AC1F354
:101000000221515CC840704714000020083802409B
:10101000A12400080448054900680968044AC1F38E
:10102000C221515CC84070471400002008380240BB
:10103000A124000870B5154D2968154801F00C026F
:10104000042A0CD0134C082A0AD00C2A0AD0281FD4
:101050000068C0F342314FF40040491C884070BD25
:10106000204670BD0C4AC1F38343D35CC1F3815267
:101070002968521CC90302D5A3FB040101E0A3FBAC
:1010800000010023FFF752F870BD0000083802404D
:101090000024F40000366E01882400082DE9F84F82
:1010A00004007DD0FC480168006801F00C0700F4E2
:1010B00080362078F94DC00741D0082F12D00C2F70
:1010C00002D1B6F5803F0DD06068012811D008B17B
:1010D000052818D0286820F480302860286820F47B
:1010E000802009E02868800329D560680028D8D0CE
:1010F00025E0286840F480302860606890B1FFF7F0
:1011000009FE80460AE0286840F480202860F0E765
:10111000FFF700FEA0EB080064287BD82868800356
:10112000F6D50CE0FFF7F6FD804605E0FFF7F2FD8F
:10113000A0EB08006428F0D828688003F6D4207853
:10114000DFF85CB3DFF85C8380074FF001094FF0F4
:10115000000A35D5042F0AD00C2F00D13EB1E0682B
:10116000F8B1C8F80090FFF7D5FD06460BE02868F7
:1011700080070BD5E068012812D107E0FFF7CAFD10
:10118000801B0228C9D828688007F7D5DBF8001033
:10119000226921F4F85141EA0221CBF800100FE056
:1011A00077E1C8F800A0FFF7B5FD064605E000BFEF
:1011B000FFF7B0FD801B0228AFD828688007F7D45E
:1011C0002078C00674D53FB1A069E0B3C8F820907C
:1011D000FFF7A0FD06464AE02868800502D5A06911
:1011E000002884D0206ADBF800105E4601F46041DC
:1011F000884210D900F006FC0028BDD13068216A71
:1012000020F4604008433060217F306861F31F6044
:1012100030600FE096E0316821F4604101433160B5
:10122000217F306861F31F603060206A00F0EAFBC4
:101230000028A1D1216A4FF4004009EB51318840C8
:101240009549096800E025E0974AC1F30311515C14
:10125000C8409649086096480068FFF779FD002865
:101260006FD125E0FFF756FD801B02286AD8286859
:101270008005F7D5DBF80010226A21F460411143A4
:10128000CBF80010227FDBF8001062F31F61CBF86F
:1012900000100DE0C8F820A0FFF73CFD064604E072
:1012A000FFF738FD801B02284CD828688005F7D44A
:1012B0002078804E000722D57F48616981B1C0F84F
:1012C0000090FFF727FD834606E000BFFFF722FDF1
:1012D000A0EB0B00022835D830688007F6D50EE069
:1012E000C0F800A0FFF716FD834605E0FFF712FDEA
:1012F000A0EB0B00022825D830688007F6D42078B0
:1013000040076DD56B484FF0000B10380068C000E7
:101310000BD468481038016841F0805101600068C2
:101320004FF0010B00F08050009064480168C9053F
:1013300014D4016841F480710160FFF7EBFC009068
:1013400008E08DE079E000BFFFF7E4FC0099401A67
:10135000642872D859480068C005F5D5A0680128EE
:101360000AD008B1052811D0306820F480703060B0
:10137000306820F4806002E0306840F480703060B3
:10138000A068A8B1FFF7C6FC00900DE0306840F4FB
:1013900080603060F0E700BFFFF7BCFC0099411AA5
:1013A00041F2883081425AD830688005F4D50EE089
:1013B000FFF7B0FC009007E0FFF7ACFC0099411A82
:1013C00041F2883081424AD830688005F4D4BBF1BC
:1013D000000F05D037481038016821F080510160B6
:1013E000606A58B30C2F41D00228504605D0C8F887
:1013F0006000FFF78FFC044634E04746C8F8600001
:10140000FFF788FC064604E0FFF784FC801B0228F7
:1014100025D828688001F7D4D4E90A1001431E4872
:10142000226B036823F47D031A4311430160C7F85C
:101430006090FFF76FFC044607E010E040E000BF5B
:10144000FFF768FC001B022809D828688001F7D53F
:1014500036E000BFFFF75EFC001B022802D9032024
:10146000BDE8F88F28688001F4D429E00128F7D07E
:1014700009480068A26A00F48031914209D1E26A09
:1014800000F47011914204D1216B00F440008842B5
:1014900016D00120E4E7000008380240003802407E
:1014A0000438024000004742912400081400002044
:1014B0000800002034380240800647420070004097
:1014C0000020CDE770B5040009D0606A002540B166
:1014D00025616561A56294F8510040B10CE00120DE
:1014E00070BD6068B0F5827FF4D0E561F2E784F802
:1014F0005050204600F03AF8022084F8510020684D
:10150000016821F040010160A088218900F4827007
:1015100001F404410843A18901F400610843217CDE
:1015200001F002010843217D01F001010843218BF4
:1015300001F400710843217F01F03801084394F859
:10154000201001F080010843218D01F4005108436F
:1015500021680860A069042101EA10402168486000
:101560006565012084F85100002070BD10B586B07B
:10157000044614216846FEF711FE1349206888428C
:1015800020D11248016841F480510160006800F4E4
:10159000805005900D48001F016841F00101016075
:1015A0000068694600F001000590E02000900220EC
:1015B000019000200290032003900520049004482D
:1015C000FFF7C0FA06B010BD0030014020380240DD
:1015D000000002404FF0E0210428086903D020F009
:1015E00004000861704740F00400FAE710B5401E9F
:1015F000B0F1807F01D3012010BD4FF0E024606185
:101600000F21601700F0F4FD0020A0610720206189
:10161000002010BD7047000070B5026804461068D5
:10162000D168536910F00F0F53D003F0010501F496
:1016300090762E435FD0C20705D0CA0503D5E26B72
:1016400042F00102E263420705D5DA0703D0E26BFC
:1016500042F00202E263820705D5DA0703D0E26BAB
:1016600042F00402E263020707D501F020022A4398
:1016700003D0E26B42F00802E263E26B002A34D04E
:10168000800604D5880602D5204600F05BFC206861
:101690004069E16BC0F3801001F00801014320466E
:1016A00024D000F041FC2068416949061AD54169FF
:1016B00021F040014161606BA0B11B494163606B47
:1016C000FFF706FA002810D0606B416BBDE8704050
:1016D000084783060FD58B060DD52046BDE8704020
:1016E00000F030BC2046FFF795FF70BDFFF792FF7A
:1016F0000020E06370BD030606D50B0604D5204626
:10170000BDE8704000F0F8BC4006F3D54806F1D5BE
:10171000D168204621F04001D160202184F83910A1
:1017200000F0D2F870BD0000191F000870B5040069
:1017300004D094F83900002510B106E0012070BDF6
:1017400084F83850204600F023F8242084F839002B
:101750002068C16821F40051C160204600F03EFCC1
:101760002068016921F4904101612068416921F0FC
:101770002A0141612068C16841F40051C160E563FC
:10178000202084F8390084F83A00002070BD000061
:1017900010B586B0044614216846FEF7FFFC1849D0
:1017A0002068884229D11748016841F480410160CE
:1017B000006800F4804005901248001F016841F065
:1017C000010101600068694600F0010005904FF4D6
:1017D000C06000900220019000200290032003903E
:1017E000072004900848FFF7ADF900221146252094
:1017F000FFF7FCFA2520FFF7EBFA06B010BD00005A
:1018000000380140203802400000024070472DE9B6
:10181000F843044690F839001F4616460D46202826
:1018200050D1B5B1AEB194F8380001284AD00120AA
:1018300084F838004FF00008C4F83C80212084F878
:101840003900FFF767FAA6848146E68484F8388079
:1018500026E00120BDE8F883E08C401EE084A0680B
:101860004B46B0F5805F4FF000024FF080012046FC
:10187000009703D000F071FCE8B90DE000F06DFCBA
:10188000C8B928882168C0F308004860206908B1F9
:101890006D1C05E0AD1C03E0216815F8010B4860E4
:1018A000E08C0028D8D14B460022402120460097EA
:1018B00000F053FC08B10320CCE7202084F8390065
:1018C0000020C7E70220C5E77047FEE73EB50024C9
:1018D00015480094019413490294C0E900148460EF
:1018E000C460046144618461C461046280F824407E
:1018F0000125856280F82C401021C0E90D1480F884
:101900003C40FEF7E5FF08B1FEF73DFF0095CDE94D
:10191000015469460448FEF737FF002801D0FEF75E
:1019200032FF3EBD002401402000002030B587B0CA
:1019300014216846FEF732FC0E48016841F00101AF
:10194000016000680C4D00F001004FF40144059067
:10195000002221462846FFF7D8F9012000210094F3
:10196000CDE90101039169462846FFF7EBF807B07E
:1019700030BD00001C38024000000240104810B585
:101980000E4901604FF482714160002102228160A2
:10199000C0E90312012242615202C0E9062101623C
:1019A000416281620A21C162FFF78CFD002803D0E9
:1019B000BDE81040FEF7E7BE10BD0000003001405A
:1019C000740000200C4810B50A4901604FF4E13161
:1019D0004160002181600C22C160C0E90412816174
:1019E000C161FFF7A3FE002803D0BDE81040FEF759
:1019F000CABE10BD00380140CC000020FEE7704791
:101A00007047000038B51C49002309681B4A11F0D3
:101A1000F00F23D118491C310C68E500184C03D590
:101A2000216801F4C0540EE00D6845F080550D604A
:101A30000D6805F08055009524680D6804F4C054C5
:101A400025F080550D60B4F5C05F07D1B0F5404F6B
:101A500004D11068012340F004001060106820F0E9
:101A6000010018431060106800F00100984201D096
:101A7000012038BD002038BD08380240003C02403B
:101A80000070004070B5174886B0016841F0010150
:101A900001600068012400F0010005900098124EDA
:101AA00040F48050CDE90004022569463046CDE976
:101AB0000245FFF747F80098694640F40060CDE919
:101AC00000043046CDE90245FFF73CF80122D1027F
:101AD0003046FFF71AF9012211033046FFF715F9D6
:101AE00006B070BD1C380240000002402DE9F047EE
:101AF0002F4C80460025206820F040702060206830
:101B000020602E46E7144FF48059002239462046C3
:101B1000FFF7FBF8142000F03FFC01223946204675
:101B2000FFF7F3F86806050E49462046FFF7E8F888
:101B300008B16D1CEDB2142000F02EFC761CF6B23C
:101B4000082EE2D3B8F1000F4FF0000239462046CC
:101B500021D0FFF7DAF8206820F04070206020687C
:101B600040F080702060002249462046FFF7CDF803
:101B7000142000F011FC012239462046FFF7C5F879
:101B8000142000F009FC002239462046FFF7BDF87A
:101B90002846BDE8F087FFF7B8F8206820F04070CD
:101BA0002060206840F0807020600122DCE70000A7
:101BB000000002402DE9F0411B4C064620462168FA
:101BC00021F040712160216841F080712160E714AB
:101BD00000223946FFF799F800254FF48058300667
:101BE00001D5012200E0002241462046FFF78DF892
:101BF0007006060E142000F0CFFB01223946204665
:101C0000FFF783F8142000F0C7FB00223946204676
:101C1000FFF77BF8142000F0BFFB6D1CEDB2082D20
:101C2000DDD3BDE8F08100000000024070B5134C28
:101C3000206820F040702060206840F080702060B4
:101C40000122D50229462046FFF75FF8012216033C
:101C500031462046FFF759F8142000F09DFB002282
:101C600031462046FFF751F8142000F095FB294635
:101C70002046BDE870400022FFF747B80000024050
:101C800070B5134C206820F040702060206840F050
:101C900080702060E514002229462046FFF735F8C1
:101CA000A614002231462046FFF72FF8142000F03A
:101CB00073FB012229462046FFF727F8012231460F
:101CC0002046FFF722F8BDE87040142000F064BB06
:101CD000000002402DE9F041184C0025206820F05A
:101CE00040702060206820600122160331462046A3
:101CF000FFF70BF8142000F04FFB0122D702394602
:101D00002046FFF702F8142000F046FB08E06D1CA7
:101D1000EDB2FA2D04D9FFF7B3FF0120BDE8F08141
:101D200031462046FEF7ECFF0028F0D1002239466C
:101D30002046FEF7EAFF0020F0E700000000024026
:101D40002DE9FC410546684600F071F8BDF8000039
:101D50009DF8022047BABDF80300022146BA684642
:101D6000FEF7F3FC04469DF8052002210DF1030067
:101D7000FEF7EBFC002C2FD000282DD03846FEF7C4
:101D8000A0FB0022154BFEF7BBFA154F00223B4685
:101D9000FEF728FB0022134BFEF7ACFAFEF7CAFB56
:101DA00004463046FEF78DFB00220F4BFEF7A8FAE3
:101DB00000223B46FEF716FBFEF7BCFB0B498C42AC
:101DC0000AD80B498C4207DC10F1FF4F04D20949B5
:101DD000884201DCC5E90040BDE8FC8100E06540C7
:101DE000E0FFEF4000804640000059400000A0C1E5
:101DF0000000FA420000C84270B50D460446FFF7E5
:101E000015FF8820FFF7D6FEFFF764FF200AFFF7D3
:101E1000D1FEFFF75FFFE0B2FFF7CCFEFFF75AFFFE
:101E2000002D03D0BDE87040FFF72ABF70BD70B52C
:101E300004466425012142F60640FFF7DDFF142029
:101E4000FEF76EFEFFF7F2FE8920FFF7B3FE06E015
:101E50006D1EEDB2322000F09FFA002D1FD0FFF76B
:101E600039FF0028F4D10120FFF740FE2070012047
:101E7000FFF73CFE60700120FFF738FEA0700120E4
:101E8000FFF734FEE0700120FFF730FE20710120E3
:101E9000FFF72CFE6071BDE87040FFF7F1BE70BD2A
:101EA0007047FEF73DBF000010B592B03421684680
:101EB000FEF774F914210DA8FEF770F911480168B6
:101EC00021F4C05141F4006101600121039102201D
:101ED0001021009000240491CDE909044005CDE9CA
:101EE0000B406846FFF7DAF80F200D900320CDE98C
:101EF0000E04109401210DA81194FEF7A9FF12B051
:101F000010BD00000070004002494FF00060086002
:101F10007047000008ED00E010B5406A0021C1855F
:101F2000C184FFF777FB10BD0168CA6822F4907284
:101F3000CA6001684A6922F001024A61202180F8E2
:101F40003A10704710B590F83A10222901D00220BB
:101F500010BD8168B1F5805F11D001690029016869
:101F60001FD0496801F07F03816A4A1C82620B70AE
:101F7000C18D491E0904090CC18518D02BE00269E6
:101F8000816A002A0268526805D0D2B20A80816A4A
:101F9000491C8162ECE7C2F308020A80816A891C4D
:101FA000F7E74A68816A4B1C83620A70E0E70168C0
:101FB000CA6822F02002CA600168CA6822F48072EE
:101FC000CA6001684A6922F001024A61202180F852
:101FD0003A10FFF71BFC002010BD00002DE9F04176
:101FE000044600680169E26821F44051114301612F
:101FF0002169A068E26908436169114322680843C6
:10200000D16849F20C6399430143D160206841696A
:10201000A26921F440711143416136492068884228
:1020200002D1FEF7F7FF01E0FEF7E4FF0246E369A5
:1020300064203221B3F5004F02EBC20303EB02131D
:1020400062682BD09200B3FBF2F5B5FBF0F5B3FB61
:10205000F2F66FF018077D4306EB8505B3FBF2F649
:1020600001EB0515B5FBF0F5B6FBF0F605F0F00554
:1020700005EB0615B3FBF2F6B3FBF2F2B2FBF0F29E
:102080007A4306EB820201EB0211B1FBF0F000F0A3
:102090000F00216828448860BDE8F0815200B3FB3E
:1020A000F2F6B6FBF0F6B3FBF2F7B3FBF2F56FF026
:1020B000180C06FB0CF607EB860601EBC606B5FB13
:1020C000F0F5B6FBF0F62D0106F0F80605EB460537
:1020D000B3FBF2F6B3FBF2F2B2FBF0F202FB0CF24E
:1020E00006EB820201EBC201B1FBF0F000F0070049
:1020F000CFE700000038014090F83910212901D0C5
:10210000022070478168B1F5805F016A0BD04A1CDC
:102110000262026809785160C18C491E0904090CE9
:10212000C1840ED017E009880268C1F3080151602C
:1021300001690029016A02D0491C0162ECE7891C8F
:10214000FBE70168CA6822F08002CA600068C168C3
:1021500041F04001C160002070472DE9F0419846F0
:1021600017460E460446069D1DE0681C1BD02DB187
:10217000FEF7D0FDA0EB0800A84214D92068C16882
:1021800021F4D071C1602068416921F001014161F1
:10219000202084F8390084F83A00002084F83800C0
:1021A0000320BDE8F0812068006836EA000004D012
:1021B0000020B842D9D00020F3E70120F9E7000061
:1021C0000148FFF729BA0000CC000020FEE700001C
:1021D0000FB4054B10B503A9044A029800F028F883
:1021E00010BC5DF814FB0000CD2300081C0000208B
:1021F0000907090E002804DB00F1E02080F8001434
:10220000704700F00F0000F1E02080F8141D7047C7
:1022100002E008C8121F08C1002AFAD170477047AF
:10222000002001E001C1121F002AFBD1704700000D
:102230002DE9FF4F89B09B460446002506E025287E
:102240000BD05A460B999047641C6D1C20780028CF
:10225000F5D10DB02846BDE8F08F0027B846012221
:10226000474900E0074314F8013F203B02FA03F01E
:102270000842F7D120782E2819D114F8010F47F021
:1022800004072A280ED06FF02F022078A0F1300129
:1022900009290CD808EB880102EB410100EB010889
:1022A000641CF2E70A98641C50F8048B0A902078AA
:1022B0000028CED0642808D0692806D075281ED002
:1022C0005A460B9990476D1C58E00A994FF00A093D
:1022D00001C90A91002802DA40422D2102E03905A5
:1022E00004D52B218DF82010012103E0F90704D03B
:1022F0002021F7E78A4608AE0DE00021FAE70A99A7
:102300004FF00A0901C90A91F7E74946FEF72EF98D
:10231000303106F8011D0028F7D1ADEB060000F1C1
:102320002009780701D44FF00108C84502DDA8EB69
:10233000090000E000208046002706E008A85A4671
:10234000C05D0B9990476D1C7F1C5745F6DB04E080
:1023500030205A460B9990476D1CB8F10001A8F146
:102360000108F5DC05E016F8010B5A460B99904779
:102370006D1CB9F10001A9F10109F4DC641C65E7E9
:102380000928010010B504460420FFF723F901488D
:10239000047010BD1800002070B54FF0E02400223A
:1023A00065690949A36909784843A1699942FCD044
:1023B00002D2A3EB010302E0A5EB010633441A4469
:1023C0000B468242F1D370BD1800002013B54FF6C2
:1023D000FF73012269460248FFF719FA00981CBDF5
:1023E000CC000020FEF7A4FCFFF75EFD1820FFF7ED
:1023F000C9FFFFF79BFAFFF769FAFFF7BFFAFFF78C
:10240000E1FAFFF73FFB12A0FFF7E2FE134F144D76
:10241000144E3846FFF7C0FF1148FFF791FC68687B
:10242000FEF775F800223346FDF76AFFFEF756F80F
:1024300004462868FEF76BF800223346FDF760FF7C
:10244000FEF74CF80146224607A0FFF7C1FEE0E781
:10245000496E697446696E73680D0A0040420F0048
:10246000000000200000244074656D706572617486
:102470007572653D25642C68756D69646974793D74
:102480002564210D0A000000030406080C10182022
:1024900030000000000000000001020304060708ED
:1024A000090000000001020304000000CC24000821
:1024B000000000202000000010220008EC2400088A
:1024C00020000020F004000020220008000000008E
:1024D00000000000100000000100000000000000EB
:0C24E00068FF1F0000000000000000006A
:04000005080000F5FA
:00000001FF
