:020000040800F2
:100000002032002009010008931C0008751B00081D
:10001000911C0008CD050008D13100080000000047
:100020000000000000000000000000008D2E00080D
:1000300015060008000000002D2A00088F2E000879
:100040002301000823010008230100082301000800
:1000500023010008230100082301000823010008F0
:1000600023010008230100082301000823010008E0
:1000700023010008230100082301000823010008D0
:1000800023010008230100082301000823010008C0
:10009000230100082301000823010008C10A000809
:1000A00000000000230100082301000823010008CC
:1000B0002301000823010008230100082301000890
:1000C0002301000823010008230100082301000880
:1000D00023010008A53100082301000823010008BE
:1000E000A30A0008230100082301000823010008D7
:1000F00023010008DFF80CD000F056FA0048004752
:10010000593500082032002006488047064800473D
:10011000FEE7FEE7FEE7FEE7FEE7FEE7FEE7FEE7B7
:10012000FEE7FEE7F52E0008F50000082DE9F05F78
:100130000546002092469B46884606468146402456
:100140001BE0284641464746224600F0ADF953469B
:100150005A46C01A914110D311461846224600F063
:1001600094F92D1A67EB01084F4622460120002121
:1001700000F08BF917EB00094E41201EA4F1010499
:10018000DFDC484631462A464346BDE8F09FD2B2FE
:1001900001E000F8012B491EFBD270470022F6E770
:1001A00010B513460A4604461946FFF7F0FF2046ED
:1001B00010BD2DE9FE4F804681EA0300C00F0C46BA
:1001C000009021F0004123F00045B8EB0200A94166
:1001D00005D24046214690461C460B46024623F077
:1001E0000040104347D0270DC7F30A00C3F30A515C
:1001F0000290401A019040286BDAC3F3130040F4D8
:10020000801B0098924620B10023D2EB030A63EBD7
:100210000B0B01985946C0F14002504600F035F9E9
:1002200006460D4650465946019A00F04DF910EB2E
:1002300008006141002487EA115284EAE7731A43F7
:1002400040D0009A62B3019A012A4FEA075215DCA6
:10025000001B61EB02014FF0004202EA0752CDE9B8
:100260000042001C41F5801132462B4600F04DF94A
:1002700003B0BDE8F08F40462146F9E7001B61EB73
:100280000201001C41F5801300185B412018A2F503
:10029000001747EB030140EAD570B6196D4111E034
:1002A0006D084FEA360645EAC0754FEA0752001B53
:1002B00061EB0201001C41F5801149084FEA300052
:1002C0000019514132462B4603B0BDE8F04F00F013
:1002D0000DB90098012240000023D0EB020263EB2D
:1002E000E073009821464FEAE074B8EB000061EB40
:1002F0000401E9E783F000435BE781F0004158E740
:100300002DE9FE4F81EA030404F0004421F000418E
:1003100000944FF0000B23F0004350EA01045ED03C
:1003200052EA03045BD0C3F30A54C1F30A552C44C8
:10033000A4F2F3340194A0FB0254C1F3130141F47D
:100340008011C3F3130343F4801301FB024400FB49
:10035000034E840A970A44EA815447EA8357A4FB70
:10036000076802958D0A05FB07854FEA932C04FB6D
:100370000C542705029D4FEA065847EA1637B5EB9D
:1003800008056EEB070C870E920E47EA811742EACA
:100390008312A7FB0201B6EB0B0164EB00042B0DEB
:1003A00043EA0C335E1844EB1C50DA465146E7FB37
:1003B0000201C5F313044FEA0B3343EA14534FEA27
:1003C0000432019C43EA0603A4F10C040294009C4D
:1003D000CDE900B400F099F803B0BDE8F08F00203B
:1003E0000146F9E770B521F0004303430CD0C1F397
:1003F0000A550024D5EB040564EB0403D617AD1AA7
:10040000B34102DB0020014670BD201841EB0251D0
:1004100070BD0EB540F2334102910021CDE90011CB
:100420000A460B4600F071F803B000BDC1F30A5252
:1004300010B5C1F3130140F2FF3341F480119A4229
:1004400001DA002010BD40F233439A42A2F2334257
:1004500003DC524200F028F810BD904010BD30B5CA
:100460000B46014600202022012409E021FA02F572
:100470009D4205D303FA02F5491B04FA02F528440C
:10048000151EA2F10102F1DC30BD202A04DB203A66
:1004900000FA02F1002070479140C2F1200320FAD7
:1004A00003F3194390407047202A04DB203A21FAD5
:1004B00002F00021704721FA02F3D040C2F120027D
:1004C0009140084319467047202A06DBCB17203A93
:1004D00041FA02F043EAE07306E041FA02F3D04049
:1004E000C2F12002914008431946704710B5141E0E
:1004F00073F1000408DA401C41F1000192185B41DD
:100500001A4301D120F0010010BD2DE9F04D9246B3
:100510009B4611B1B1FA81F202E0B0FA80F22032CA
:100520009046FFF7B2FF04460F4640EA0A0041EA50
:100530000B0153465A46084313D0114653EA0100B3
:1005400019D0C8F140025046FFF7AEFF05460E46EF
:10055000504659464246FFF798FF084305D0012010
:1005600004E020463946BDE8F08D0020054346EA08
:10057000E0762C4337430A986305E40AA0EB0800B1
:100580000022FD0A44EA47540A3002D50020014601
:10059000E9E7010510196941DDE9084500196941DC
:1005A000BDE8F04DA2E70000064C074D06E0E0680C
:1005B00040F0010394E8070098471034AC42F6D3AA
:1005C000FFF79CFD90970008B0970008FEE7000039
:1005D00010B5094C00220121204600F0E8FB002262
:1005E0001021204600F0E3FB01220421204600F008
:1005F000DEFB002010BD00000000024001B54FF4FA
:100600007A7301226946024801F024F808BD00000F
:10061000980000207047000010B586B0142168468D
:10062000FFF7BCFD082000900120019002900020FF
:10063000064C03906946204600F0F0FA012208219A
:10064000204600F0B4FB06B010BD000000040240DC
:100650002DE9F0411026FA27242000F0CBF90025DF
:10066000002404E0FF2000F0DFF9641CA4B2B442CF
:10067000F8D36D1CADB2BD42F2D3BDE8F04100F03D
:1006800002BA2DE9F047814610264FF0FA082420DF
:1006900000F0B0F90025002405FB06F706E009EBA1
:1006A0000400385C00F0C0F9641CA4B2B442F6D374
:1006B0006D1CADB24545EED3BDE8F04700F0E3B99F
:1006C0002DE9F047814610264FF0FA08242000F06B
:1006D00091F90025002405FB06F706E009EB04006C
:1006E000385C00F0A1F9641CA4B2B442F6D36D1CCE
:1006F000ADB24545EED3222000F07CF90C2000F08D
:1007000093F9202000F076F9BDE8F04700F040B9F9
:100710002DE9F041064610254FF0FA08242000F09C
:1007200069F90027002406E007FB0540305C00F073
:100730007BF9641CA4B2AC42F6D37F1CBFB2474520
:10074000F0D3262000F056F900270CE0002406E044
:1007500007FB0540305C00F067F9641CA4B2AC42B2
:10076000F6D37F1CBFB24745F0D3BDE8F04100F09F
:100770008AB9000070B5754D04460122042128464F
:1007800000F015FBC82000F0C7F90022042128461C
:1007900000F00DFB022000F0BFF9012204212846E1
:1007A00000F005FBC82000F0B7F934B1012C7CD073
:1007B000BDE8704066A002F00DBD00F0E9F812201F
:1007C00000F018F900F0E4F8742000F013F9542058
:1007D00000F02AF97E2000F00DF93B2000F024F90A
:1007E000012000F007F9F92000F01EF9002000F0C8
:1007F0001BF9002000F018F9112000F0FBF801208F
:1008000000F012F9442000F0F5F8002000F00CF997
:100810000F2000F009F9452000F0ECF8F92000F075
:1008200003F9002000F000F9002000F0FDF800209E
:1008300000F0FAF83C2000F0DDF8032000F0F4F8B6
:100840002C2000F0D7F8552000F0EEF8032000F03F
:10085000D1F8152000F0E8F8042000F0CBF8412092
:1008600000F0E2F8A82000F0DFF8322000F0DCF819
:100870003A2000F0BFF8302000F0D6F83B2000F01E
:10088000B9F80A2000F0D0F8322000F0B3F83F4D5C
:100890000024285D00F0C8F8641CE4B2462CF8D3AC
:1008A0004E2000F0A7F8002000E00EE000F0BCF8B9
:1008B0004F2000F09FF8F92000F0B6F8002000F07B
:1008C000B3F8BDE8704000F063B82C2000F092F857
:1008D000262000F0A9F800F05BF8322000F08AF83A
:1008E0002A4D00244C35285D00F09EF8641CE4B2CB
:1008F000462CF8D3372000F07DF8002000F094F863
:10090000002000F091F8002000F08EF8002000F0A8
:100910008BF8402000F088F8002000F085F80020D7
:1009200000F082F8222000F065F8C02000F07CF88A
:10093000202000F05FF800F02BF83C2000F05AF87F
:10094000BDE87040012000F06FB8000000000240D8
:1009500044656275673A206572726F722C20746804
:1009600065204D6F6465206973204550445F3249AE
:100970004E31335F46554C4C206F72204550445FDA
:1009800032494E31335F5041525400001541000846
:1009900010B509A002F01EFC0D4C02E0642000F02E
:1009A000BBF80821204600F0FDF90128F6D0BDE88B
:1009B000104008A002F00EBC44656275673A2065DD
:1009C0002D506170657220627573790D0A00000008
:1009D0000000024044656275673A20652D506170E1
:1009E000657220627573792072656C656173650D3F
:1009F0000A00000070B50B4C05460022012120467C
:100A000000F0D5F900221021204600F0D0F9284648
:100A1000FFF7F4FD2046BDE870400122102100F0F0
:100A2000C6B900000000024070B50B4C054601221B
:100A30001146204600F0BBF900221021204600F0AC
:100A4000B6F92846FFF7DAFD2046BDE870400122DE
:100A5000102100F0ACB900000000024010B52220C7
:100A6000FFF7C8FFC320FFF7DFFF2020FFF7C2FF1B
:100A70001020FFF7BFFF0120FFF7D6FFBDE81040B1
:100A8000642000F049B810B52220FFF7B3FFC7205B
:100A9000FFF7CAFF2020FFF7ADFFBDE81040FFF7CA
:100AA00077BF10B54FF4006000F0ACF84FF4805001
:100AB00000F0A8F8BDE810404FF4004000F0A2B8E4
:100AC0004FF4807000F09EB8704710B590F8211078
:100AD0000024022903D00421816301241AE0016863
:100AE0000A6822F00E020A6001680A6822F0010218
:100AF0000A6090F84010012301F01C0203FA02F191
:100B0000C26B516080F82130002180F82010416BC9
:100B100001B18847204610BD70B5044600F04CF97D
:100B20000546601C02D004484068044400F044F9C3
:100B3000401BA042FAD370BD4800002010B5044607
:100B400002F054FC1848B4F5807F14D0B4F5006F5F
:100B50001CD0B4F5805F1FD0B4F5004F22D181784E
:100B6000491CC9B281700278521C02700FA0BDE806
:100B7000104002F02FBB0178491C01704178491CDC
:100B80004170BDE810400EA002F024BBC178491CA2
:100B9000C9B2C17011A0EAE70179491CC9B201715B
:100BA00013A0E4E710BD000061000020736574200D
:100BB0006B65792077616B65757025640D0A00009F
:100BC0005043463835363320696E746572727570DD
:100BD000742077616B6575700D0A21006164642073
:100BE0006B65792077616B6575702025640D0A004F
:100BF000646563206B65792077616B65757020256E
:100C0000640D0A00044910B50A68024202D0086067
:100C1000FFF794FF10BD0000140401402DE9F84FC8
:100C2000DFF860B100224FF003094FF00F0A0BF11B
:100C3000040E9FE0012595402B4071D04C68012C9B
:100C400005D0022C03D0112C01D0122C10D18668B3
:100C5000540009FA04F7BE43CF68A74037438760C2
:100C60004468AC430D79C5F30015954025434560B4
:100C7000C468570009FA07F58E68AC43BE402643A6
:100C8000C6604C68022C01D0122C12D1D40800EBA3
:100C9000840CDCF820605407E40E0AFA04F826EA13
:100CA0000806D1F8108008FA04F848EA0608CCF8DB
:100CB00020800468AC430D7905F00305BD40254351
:100CC00005604C68E40054D52F4C256845F00105BB
:100CD0002560246822F0030504F0010400942B4CE5
:100CE0002E19B7689407250F0AFA05F4A743284C74
:100CF000A04201D1002415E0264CA04201D10124DC
:100D000010E0254CA04201D102240BE0234CA0426C
:100D100001D1032406E0224CA04202D1042401E0C8
:100D200027E00524AC403C43B460DBF800405D465E
:100D30004E689C43F60300D51C432C60DEF800404F
:100D400075464E689C43B60300D51C432C600D4D80
:100D500008352C684E689C43F60200D51C432C6075
:100D6000084D0C352C684E689C43B60200D51C43D8
:100D70002C60521C0B6833FA02F47FF45BAFBDE8C1
:100D8000F88F0000000401402038024000000140BC
:100D9000000002400004024000080240000C024033
:100DA000001002400069084000D0012070470AB1DD
:100DB000816170470904FBE70148806870470000C3
:100DC00048000020024881684268114481607047F1
:100DD0004800002010B50024032000F079F800201E
:100DE00000F008F808B1012401E000F025F82046E1
:100DF00010BD000070B50E4E05460024706898B115
:100E00004FF47A71B1FBF0F00A490968B1FBF0F0D8
:100E100000F0E1FC40B9102D06D200222946501EF8
:100E200000F036F8356000E00124204670BD000077
:100E300048000020540000200D4808B5016841F02A
:100E400000410160016801F000410091011F0A6842
:100E500042F001020A60096801F001010091016895
:100E600041F080510160006800F08050009008BDA2
:100E700024380240002809DB00F01F0201219140C4
:100E80004009800000F1E020C0F800117047000028
:100E9000F0B40E4B1B68C3F30223C3F10704042C08
:100EA00000D904241D1D072D01D2002300E0DB1E04
:100EB000012606FA04F56D1E0D409D409E40761EEB
:100EC000164045EA0601F0BC02F094B90CED00E0D2
:100ED000064A00F0070110684FF6FF03184040EA89
:100EE0000120034908431060704700000CED00E04A
:100EF0000000FA052DE9F0470E46040076D0DFF831
:100F00008081D8F8000000F00100B04214D2012E18
:100F100005D1D8F8001041F00401C8F80010D8F845
:100F2000001021F001013143C8F80010D8F800008A
:100F300000F00100B0427DD12078524F800705D5E6
:100F40003868A16820F0F000084338602078C007B6
:100F500059D04C496068083902281AD003281BD0A0
:100F6000096801281BD08905002963DA396821F056
:100F7000030101433960FFF71FFF0546606841F236
:100F80008831022813D003281ED00128894627D093
:100F900035E009688903E7E709688901E4E789071B
:100FA000E2E7FFF709FF411B494501D924E08946E3
:100FB0003868C0F381000228F3D124E0FFF7FCFE7B
:100FC000411B494501D917E089463868C0F38100C3
:100FD0000328F3D117E0FFF7EFFE411B49450BD87B
:100FE0003868C0F381000128F5D10CE022E0FFF75A
:100FF000E3FE411B494502D90320BDE8F08738686C
:1010000010F00C0FF3D1D8F80010404601F00101A8
:10101000B14211D9012E03D1016841F004010160F0
:10102000016821F0010131430160006800F0010016
:10103000B04201D00120E0E72078400705D53868AC
:10104000E16820F4E060084338602078000706D5A6
:101050003868216920F4605040EAC100386000F02F
:1010600039F83968084AC1F30311515CC84007498F
:10107000086007480068BDE8F047FFF7BBBE000006
:10108000003C024008380240FD40000854000020A7
:10109000480000200448054900680968044AC1F373
:1010A0000221515CC84070475400002008380240BB
:1010B0000D4100080448054900680968044AC1F365
:1010C000C221515CC84070475400002008380240DB
:1010D0000D41000870B5154D2968154801F00C0246
:1010E000042A0CD0134C082A0AD00C2A0AD0281F34
:1010F0000068C0F342314FF40040491C884070BD85
:10110000204670BD0C4AC1F38343D35CC1F38152C6
:101110002968521CC90302D5A3FB040101E0A3FB0B
:1011200000010023FFF702F870BD000008380240FC
:101130000024F40000366E01F44000082DE9F84F59
:1011400004007BD0F6480168006801F00C0600F44A
:10115000803B2078F34DC0073FD0082E12D00C2ED4
:1011600002D1BBF5803F0DD06068012811D008B1D5
:10117000052818D0286820F480302860286820F4DA
:10118000802009E02868800327D560680028D8D02F
:1011900023E0286840F480302860606888B1FFF759
:1011A0000BFE074609E0286840F480202860F0E73D
:1011B000FFF702FEC01B642879D828688003F7D5A2
:1011C0000BE0FFF7F9FD074604E0FFF7F5FDC01B54
:1011D0006428F1D828688003F7D42078DFF84883A2
:1011E00080074FF001094FF0000A36D5042E0CD0CD
:1011F0000C2E02D1BBF1000F07D0E068F8B1C8F89F
:101200000090FFF7D9FD07460BE0286880070BD553
:10121000E068012812D107E0FFF7CEFDC01B0228CD
:10122000CAD828688007F7D5BD48001F0168226921
:1012300021F4F85141EA022101600EE06CE1C8F8A6
:1012400000A0FFF7B9FD074604E0FFF7B5FDC01B9E
:101250000228B1D828688007F7D42078C00672D554
:101260003EB1A069F0B3C8F82090FFF7A5FD07468E
:101270004AE02868800502D5A069002887D0A84FD9
:10128000206A3F1F396801F46041884210D901F09B
:10129000CFFB0028BED13868216A20F460400843A3
:1012A0003860217F386861F31F6038600FE0A4E088
:1012B000396821F4604101433960217F386861F366
:1012C0001F603860206A01F0B3FB0028A2D1216AB8
:1012D0004FF4004009EB5131884091490968C1F34E
:1012E000031100E021E0914A515CC8409049086038
:1012F00090480068FFF77EFD00287DD123E0FFF7CE
:101300005BFDC01B022878D828688005F7D5844883
:10131000001F0168226A21F4604111430160227FAD
:10132000016862F31F6101600DE0C8F820A0FFF7BB
:1013300043FD074604E0FFF73FFDC01B02285CD8D1
:1013400028688005F7D420787B4F000721D57B489B
:10135000616979B1C0F80090FFF72EFD834605E082
:10136000FFF72AFDA0EB0B00022846D8386880075B
:10137000F6D50EE0C0F800A0FFF71EFD834605E09D
:10138000FFF71AFDA0EB0B00022836D8386880075B
:10139000F6D4207840076AD50020009066481038BF
:1013A0000068C0000AD464481038016841F08051D8
:1013B0000160006800F080500120009060480168E2
:1013C000C90511D4016841F480710160FFF7F4FC94
:1013D000834605E0FFF7F0FCA0EB0B0064280CD877
:1013E00057480068C005F5D5A06801280DD008B1A0
:1013F000052814D0386801E075E073E020F48070AF
:101400003860386820F4806002E0386840F480700A
:101410003860A068A0B1FFF7CFFC83460CE03868C5
:1014200040F480603860F0E7FFF7C6FCA0EB0B01EA
:1014300041F28830814255D838688005F4D50EE0F5
:10144000FFF7BAFC834607E0FFF7B6FCA0EB0B0101
:1014500041F28830814245D838688005F4D400983C
:1014600028B135481038016821F080510160606A68
:1014700090B30C2E3DD00228504605D0C8F860002D
:10148000FFF79AFC044630E04746C8F86000FFF7D3
:1014900093FC064604E0FFF78FFC801B022821D84E
:1014A00028688001F7D4D4E90A1001431C48226B54
:1014B000036823F47D031A4311430160C7F8609069
:1014C000FFF77AFC044604E0FFF776FC001B0228D5
:1014D00008D828688001F7D520E0FFF76DFC001BD5
:1014E000022802D90320BDE8F88F28688001F4D4CF
:1014F00014E00128F7D00A480068A26A00F480319D
:10150000914209D1E26A00F47011914204D1216B39
:1015100000F44000884201D00120E4E70020E2E727
:10152000083802400038024000004742FD400008F1
:101530005400002048000020343802408006474212
:101540000070004070B5040009D0606A002540B109
:1015500025616561A56294F8510040B10CE001205D
:1015600070BD6068B0F5827FF4D0E561F2E784F881
:101570005050204600F03AF8022084F851002068CC
:10158000016821F040010160A088218900F4827087
:1015900001F404410843A18901F400610843217C5E
:1015A00001F002010843217D01F001010843218B74
:1015B00001F400710843217F01F03801084394F8D9
:1015C000201001F080010843218D01F400510843EF
:1015D00021680860A069042101EA10402168486080
:1015E0006565012084F85100002070BD10B586B0FB
:1015F000044614216846FEF7D1FD1349206888424D
:1016000020D11248016841F480510160006800F463
:10161000805005900D48001F016841F001010160F4
:101620000068694600F001000590E020009002206B
:1016300001900020029003200390052004900448AC
:10164000FFF7ECFA06B010BD003001402038024030
:10165000000002402DE9F84F044690F850000026A3
:101660001D469046894601280ED04FF0010B84F8A4
:1016700050B0FFF7A1FB074694F851004146B2462F
:10168000012804D0022694E00220BDE8F88FB9F1C9
:10169000000F74D0B8F1000F71D0032084F851000E
:1016A000C4F854A0C4F83090A4F83480A4F836806C
:1016B000C4F838A0A4F83CA0A4F83EA0C4F844A004
:1016C000C4F840A0A068B0F5004F09D120680268B6
:1016D00022F0400202602068026842F48042026008
:1016E00020680268520603D4026842F04002026099
:1016F000E068B0F5006F606803D028B3012923D0FB
:101700003FE008B101291BD1206B21680088C86027
:1017100006E020688168890709D5216B0988C160C6
:10172000206B801C2063E08E401EE08608E0FFF7FF
:1017300043FBC01BA84202D3681C01D030E075B344
:10174000E08E0028E5D11FE0206B21680078087347
:1017500006E020688168890709D5216B0978017343
:10176000206B401C2063E08E401EE08609E0FFF7FE
:1017700023FBC01BA84203D3681C02D010E017E073
:101780006DB1E08E0028E4D13A462946204601F0AA
:10179000F5FA08B120206065A06818B106E0FFE7FF
:1017A000032606E02068C16880680090606D00B183
:1017B000012684F851B084F850A0304665E74FF018
:1017C000E0210428086903D020F004000861704774
:1017D00040F00400FAE710B5401EB0F1807F01D35D
:1017E000012010BD4FF0E02460610F21601701F06F
:1017F00001FD0020A06107202061002010BD70477E
:1018000010F8391F407808437047000070B502682F
:1018100004461068D168536910F00F0F53D003F0DD
:10182000010501F490762E435FD0C20705D0CA05AA
:1018300003D5E26B42F00102E263420705D5DA0705
:1018400003D0E26B42F00202E263820705D5DA07B9
:1018500003D0E26B42F00402E263020707D501F015
:1018600020022A4303D0E26B42F00802E263E26BFB
:10187000002A34D0800604D5880602D5204601F01F
:1018800057FB20684069E16BC0F3801001F008014C
:101890000143204624D001F03DFB20684169490600
:1018A0001AD5416921F040014161606BA0B11B492B
:1018B0004163606BFFF709F9002810D0606B416B42
:1018C000BDE87040084783060FD58B060DD520462E
:1018D000BDE8704001F02CBB2046FFF790FF70BDC3
:1018E000FFF78DFF0020E06370BD030606D50B06F1
:1018F00004D52046BDE8704001F0F2BB4006F3D5A8
:101900004806F1D5D168204621F04001D160202160
:1019100084F8391000F02DF970BD0000052F000883
:1019200070B5040004D094F83900002510B106E029
:10193000012070BD84F83850204600F023F82420A0
:1019400084F839002068C16821F40051C160204644
:1019500001F03AFB2068016921F49041016120689F
:10196000416921F02A0141612068C16841F40051B8
:10197000C160E563202084F8390084F83A00002033
:1019800070BD000010B586B0044614216846FEF70D
:1019900005FC18492068884229D11748016841F49C
:1019A00080410160006800F4804005901248001FEB
:1019B000016841F0010101600068694600F0010022
:1019C00005904FF4C060009002200190002002902A
:1019D00003200390072004900848FFF71FF9002216
:1019E00011462520FFF754FA2520FFF743FA06B0E9
:1019F00010BD0000003801402038024000000240C5
:101A000090F83A30202B22D1F9B1F2B190F8383069
:101A1000012B1CD081628285C2850021C1632222F4
:101A200080F83A2080F838100168CA6842F4807261
:101A3000CA6001684A6942F001024A610068C168EF
:101A400041F02001C1600020704701207047022052
:101A50007047000030B514490978002910D000689B
:101A6000124988420CD1124A5068010408D4114628
:101A7000440409784FF0000306D50A2901D05360C9
:101A800030BD40F400400CE00D2908D0C0F30D0437
:101A9000084D401CC72829555060F0D830BD40F48F
:101AA0008040506030BD00006300002000380140DD
:101AB00008000020F00000202DE9F843044690F8CB
:101AC00039001E4617460D46202850D1B5B1AFB19A
:101AD00094F8380001284AD0012084F838004FF0EB
:101AE0000008C4F83C80212084F83900FFF764F92D
:101AF000A7848146E78484F8388026E00120BDE889
:101B0000F883E08C401EE084A0684B46B0F5805F0F
:101B10004FF000024FF080012046009603D001F004
:101B200010FBE8B90DE001F00CFBC8B9288821686A
:101B3000C0F308004860206908B16D1C05E0AD1CC9
:101B400003E0216815F8010B4860E08C0028D8D12B
:101B50004B46002240212046009601F0F2FA08B1DF
:101B60000320CCE7202084F839000020C7E70220BA
:101B7000C5E77047FEE70000F0B587B0142168465E
:101B8000FEF70CFB1C48016841F00101016001688F
:101B900001F001010591016841F002010160006856
:101BA000164F00F002000590002215213846FFF77D
:101BB000FEF801241520CDE90004002569463846C9
:101BC000CDE90245FFF72AF80826CDE90065694608
:101BD00038460295FFF722F8CDE90064CDE90245C9
:101BE000074C69462046FFF719F8012208212046D4
:101BF000FFF7DDF807B0F0BD1C38024000000240DE
:101C000000040240104810B50E4901604FF4827183
:101C10004160002102228160C0E903120122426179
:101C2000520282612822C0E90721416281620A21B1
:101C3000C162FFF787FC002803D0BDE81040FEF723
:101C400043BF10BD00300140980000200E4810B581
:101C50000C4901604FF4E1314160002181600C22A8
:101C6000C160C0E904128161C161FFF759FE08B18A
:101C7000FEF72AFFBDE81040012204490248FFF7A1
:101C8000BFBE000000380140B8010020080000205D
:101C9000FEE77047124810B5016886B041F00201B6
:101CA000016000680F4C00F0020005900098694642
:101CB00040F0030000900120019002900220039068
:101CC0002046FEF7ABFF012211462046FFF76FF8D2
:101CD000012202212046FFF76AF806B010BD00007D
:101CE0001C380240000402402DE9F0412D4E074609
:101CF0000024306820F00C003060306830602546E9
:101D0000002201213046FFF752F8142001F092FB27
:101D1000012211463046FFF74AF86006040E022100
:101D20003046FFF73FF808B1641CE4B2142001F01C
:101D300081FB6D1CEDB2082DE2D34FF000024FF095
:101D4000010130460FB3FFF732F8306820F00C0085
:101D50003060306840F004003060002202213046DC
:101D6000FFF725F8142001F065FB012211463046EB
:101D7000FFF71DF8142001F05DFB00220121304621
:101D8000FFF715F82046BDE8F081FFF710F830683E
:101D900020F00C003060306840F004003060012218
:101DA000DCE700000004024070B5194E05463046DD
:101DB000316821F00C013160316841F0040131607B
:101DC00000220121FEF7F3FF0024280601D501229D
:101DD00000E0002202213046FEF7E9FF6806050E0A
:101DE000142001F027FB012211463046FEF7DFFFE9
:101DF000142001F01FFB002201213046FEF7D7FF1F
:101E0000142001F017FB641CE4B2082CDDD370BD74
:101E10000004024010B5124C206820F00C00206035
:101E2000206840F004002060012211462046FEF7A1
:101E3000BEFF012202212046FEF7B9FF142001F067
:101E4000F9FA002202212046FEF7B1FF142001F02A
:101E5000F1FA20460022BDE810400121FEF7A7BF9D
:101E60000004024010B5124C206820F00C002060E5
:101E7000206840F004002060002201212046FEF787
:101E800096FF002202212046FEF791FF142001F068
:101E9000D1FA012211462046FEF789FF01220221D4
:101EA0002046FEF784FFBDE81040142001F0C2BABE
:101EB0000004024070B5174D0024286820F00C0083
:101EC000286028682860012202212846FEF76FFF5B
:101ED000142001F0AFFA012211462846FEF767FFF1
:101EE000142001F0A7FA07E0641CE4B2FA2C03D92D
:101EF000FFF7B8FF012070BD02212846FEF752FF10
:101F00000028F1D1002201212846FEF750FF0020D1
:101F100070BD00000004024010B50446FFF77AFFD0
:101F2000A220FFF741FFFFF7C5FFE0B2FFF73CFF3C
:101F3000FFF7C0FFFFF76EFFA320FFF735FFFFF7A6
:101F4000B9FF0020FFF7D0FE0446FFF78BFF2046C5
:101F500010BD000070B504460820FFF7DDFF1C4DE2
:101F600068700720FFF7D8FF00F01F00A870052059
:101F7000FFF7D2FF00F03F00E8700420FFF7CCFF2E
:101F800000F03F0028710320FFF7C6FF00F07F003C
:101F900068710220FFF7C0FF00F07F00A8710620E3
:101FA000FFF7BAFF00F00700E87100216A5C100932
:101FB00002F00F0200EB800002EB40006054491C6D
:101FC000C9B20729F2D3E87900F00700E07170BDCB
:101FD0005900002010B51121012000F00AF88221DB
:101FE0000E2000F006F83C21BDE810400F20AFF3B2
:101FF000008070B50D460446FFF70CFFA220FFF7E6
:10200000D3FEFFF757FF2046FFF7CEFEFFF752FF44
:102010002846FFF7C9FEFFF74DFFFFF723FF142007
:1020200001F008FA002070BD70B500211A4C0A2298
:10203000435CB3FBF2F5B3FBF2F602FB163303EBA2
:1020400005136354491CC9B20829F1D3202100208B
:10205000FFF7CFFF61780820FFF7CBFFA1780720BB
:10206000FFF7C7FFE1780520FFF7C3FF21790420C0
:10207000FFF7BFFF61790320FFF7BBFFA1790220C3
:10208000FFF7B7FFE1790620FFF7B3FFBDE8704027
:1020900000210846FFF7ADBF5900002030B5194BAD
:1020A000D98A022908D0042906D0072917D140EA85
:1020B00000100021C4B220E00021C4B20CE00020D6
:1020C00005E001FB02021D68401C80B2AC545A8A34
:1020D0008242F6D8491C89B2988A8842EFD830BD2E
:1020E000002005E001FB02021D68401C80B2AC54D8
:1020F0005A8A8242F6D8491C89B2988A8842EFD817
:1021000030BD0000080200202DE9F0479846164631
:102110000D460746DDF820900CE03C4606E04A46B6
:102120002946204600F0F4FB641CA4B2B442F6D366
:102130006D1CADB24545F0D3BDE8F0872DE9F05FE9
:1021400081462A481F46DDF82CB0838888464B45D7
:1021500002D3C188414504D2BDE8F05F24A001F05C
:1021600039B8B888410700D0012101EBD000203AEE
:10217000F9885043484339684FF0800A0D1800260B
:102180002EE0002423E0BBF1FF0F297804F00702C2
:102190002AFA02F001EA000101D009B908E081B190
:1021A00008EB060081B209EB040080B20A9A06E04F
:1021B00008EB060081B209EB040080B25A4600F039
:1021C000A7FBE043400700D16D1C641CA4B2B88893
:1021D000A042D8D83879400700D06D1C761CB6B222
:1021E000F888B042CDD8BDE8F09F0000080200207A
:1021F00044656275673A205061696E745F4472612C
:10220000774368617220496E7075742065786365E4
:1022100065647320746865206E6F726D616C2064F4
:102220006973706C61792072616E67650D0A0000D8
:102230002DE9FE4F9A46304B93469A88824206D348
:10224000DB888B4203D35A4501D3534504D2BDE802
:10225000FE4F2AA000F0BEBF07460E46BBEB0002B1
:1022600001D5A0EB0B029146AAEB0102002A01DD89
:10227000A1EB0A0290464FF0FF305F4501D20122E8
:1022800000E002460292564500D2012009EB080404
:10229000002501906D1C0E98EDB2012805D1032098
:1022A000B5FBF0F100FB1150D0B10120DDE90C23AA
:1022B00000903146384600F0ABF8B8EB440F05DC2F
:1022C0005F4517D002984444384487B2B9EB440FB5
:1022D000E0DB56450ED001984C44304486B2D9E735
:1022E00001200090FF22314638460D9B00F090F807
:1022F0000025E2E7BDE8FE8F080200204465627514
:10230000673A205061696E745F447261774C696E00
:102310006520496E70757420657863656564732007
:10232000746865206E6F726D616C20646973706C87
:1023300061792072616E67650D0A00002DE9FF4F1B
:10234000ADF5037D8846DDE990AB814600244FF46E
:10235000807715462646394602A8FDF71FFF394605
:1023600042A8FDF71BFF194802AF82884A4502D3F5
:10237000C188414506D216A000F02CFF0DF5077D5F
:10238000BDE8F08F0A2042A995FBF0F200FB125243
:1023900095FBF0F530320A55641C24B2002DF3D1C0
:1023A0003846002C08DD0A1912F8012C8255761CDB
:1023B000641E36B224B2F4E7CDE900BA3A4641468B
:1023C0004846869B00F002FAD8E700000802002089
:1023D00044656275673A205061696E745F44697341
:1023E0004E756D20496E70757420657863656564FF
:1023F0007320746865206E6F726D616C2064697300
:10240000706C61792072616E67650D0A00000000D2
:102410002DE9F05F2A4C93460E46A28881460A9920
:102420001D464A4502D3E088B0420ED225A000F0F6
:10243000D1FEA288494633A000F0CCFEE2883146A6
:10244000BDE8F05F38A000F0C5BE01294FF00007DD
:1024500033D1881E00EB450A17E009EB0700002482
:10246000A0EB05080DE0B8F1000F0CD43019401BAB
:1024700009D481B21FFA88F05A4600F049FA641C68
:1024800024B2A245EFDC7F1C3FB2BA45E5DCBDE8D3
:10249000F09F09EB07000024A0F1010809E03019C2
:1024A000401E81B21FFA88F05A4600F031FA641CCF
:1024B00024B2AC42F3DB7F1C3FB2AF42E9DBE6E77C
:1024C0000802002044656275673A205061696E74A5
:1024D0005F44726177506F696E7420496E707574D5
:1024E000206578636565647320746865206E6F721B
:1024F0006D616C20646973706C61792072616E67C4
:10250000650D0A0058706F696E74203D20256420A7
:102510002C205061696E742E5769647468203D20C8
:10252000256420200D0A200059706F696E74203DCB
:10253000202564202C205061696E742E48656967DF
:102540006874203D20256420200D0A200000000032
:102550002DE9FE4F0C46294991468246DDE90D5290
:1025600088880C9E1F46504506D3C988A14203D3D4
:10257000484501D3B94204D2BDE8FE4F20A000F087
:1025800029BE4FF0000862B90FE0CDE9006523468F
:102590004A4619465046CDF80880FFF749FE641CAC
:1025A000A4B2BC42F1D3BDE8FE8FCDE9006523465D
:1025B0004A4619465046CDF80880FFF739FECDE966
:1025C000006552463B4621461046CDF80880FFF78D
:1025D0002FFECDE900654A46234639461046CDF820
:1025E0000880FFF725FECDE900653B4652461946B7
:1025F0004846CDF80880FFF71BFED4E7080200200C
:1026000044656275673A20496E7075742065786319
:102610006565647320746865206E6F726D616C20EF
:10262000646973706C61792072616E67650D0A0070
:102630002DE9F05F1D460F4606469246DDF82CB0A8
:10264000BBE07F294FF0000055D8AB884DE0532206
:102650002C68424314F812208A4245D15321484342
:10266000022101EB400004EB0008002037E00024C9
:102670002BE04FEAE47004EB507020F00700A4EB6D
:102680000002BBF1FF0F98F800104FF0800020FA15
:1026900002F001EA000101D009B907E071B107EBCE
:1026A000090081B2301980B20A9A05E007EB0900EF
:1026B00081B2301980B25A4600F02AF942482040CF
:1026C000072801D108F10108641C2889A042D0DC48
:1026D000287A400701D008F1010809F10100698951
:1026E00081464945C3DC02E0401C8342AFDC0AF16D
:1026F000010AE88860E04FF00108B5F804C056E030
:1027000053242B6800FB04F213F812408C424DD185
:1027100008EB42029B5C9AF80120934246D1532178
:10272000484302212A6801EB400002EB0008002028
:1027300037E000242BE04FEAE47004EB507020F007
:102740000700A4EB0002BBF1FF0F98F800104FF058
:10275000800020FA02F001EA000101D009B907E087
:1027600071B107EB090081B2301980B20A9A05E015
:1027700007EB090081B2301980B25A4600F0C8F860
:1027800011482040072801D108F10108641C28895C
:10279000A042D0DC287A400701D008F1010809F1F5
:1027A0000100698981464945C3DC02E0401C84453B
:1027B000A6DC28890AF1020A06449AF800100029CA
:1027C0007FF43FAFBDE8F09F070000802DE9FC5F7C
:1027D000074604461B4889460D468188DDF834B01B
:1027E0001E469046B94203D3C1888246A94223D2ED
:1027F000BDE8FC5F144800F0EDBCB088BAF80430C6
:102800000119994203D9F1883C4629448DB2F188D7
:10281000BAF806002944814201D93C464D460C983D
:102820003346CDE900B029462046FFF787FCB08843
:1028300008F10108204484B298F80020002ADCD175
:10284000BDE8FC9F080200204C97000870B50D4CB5
:10285000049E0025206021816281A6810220E08201
:102860004E074FEAD10000D0401C6082A282E38173
:10287000258223B1B42B02D0A280E18070BDA1805B
:10288000E28070BD08020020014908607047000026
:102890000802002010B504000AD0012C08D0022C38
:1028A00006D0032C04D0BDE810400A4800F092BCCA
:1028B0006008C00701D008A200E009A2E00701D02B
:1028C00005A100E006A108A000F084FC0F480482E6
:1028D00010BD0000E89600086D6972726F7200000A
:1028E0006E6F6E650000000044656275673A206D8A
:1028F0006972726F7220696D61676520783A25731D
:102900002C20793A25730D0A0000000008020020EF
:10291000F0B43B4EB388834234D3F3888B4231D337
:102920003446F38925896489CBB15A2B1AD0B42B4C
:102930001CD0B3F5877F40D10B46201A401E80B2D1
:10294000318AD9B1012916D0022904D0032934D102
:10295000E91A491E8BB2201A401E80B20EE00346CF
:102960000846EDE7691A491E8BB2E9E7281A401EAE
:1029700083B2601AE2E7E91A491E8BB29D4201D385
:10298000844203D2F0BC1FA000F024BC1C49F58A8D
:102990004C8A0968022D12D0042D21D0072D0CD1AC
:1029A000444304EB5300DB075B0FF025DD400C5C78
:1029B0001201AC43DA4022430A54F0BC704744434E
:1029C00004EBD3008025002A0C5C03F0070225FAF3
:1029D00002F502D025430D54EFE7AC430C54ECE76D
:1029E0004443950704EB93009A070C5C520FC023F5
:1029F000D3409C432B0ED34023430B54DDE7000010
:102A00000802002044656275673A20457863656571
:102A100064696E6720646973706C617920626F7598
:102A20006E6461726965730D0A00000070470000F2
:102A300038B51C4A002112681B4C12F0F00F23D14C
:102A4000184A1C321368DD00184B03D51A6802F4CB
:102A5000C0530EE0156845F080551560156805F007
:102A6000805500951B68156803F4C05325F0805508
:102A70001560B3F5C05F07D1B0F5404F04D12068B1
:102A8000012140F004002060206820F0010008438C
:102A90002060206800F00100884201D0012038BD8C
:102AA000002038BD08380240003C02400070004061
:102AB00010B5124C002201212046FEF778F920685B
:102AC00020F00C002060206840F00400206000220C
:102AD00002212046FEF76BF9142000F0ABFC012226
:102AE00011462046FEF763F9142000F0A3FC2046AF
:102AF0000022BDE810400121FEF759B90004024050
:102B0000124810B5016886B041F00201016000680A
:102B10000F4C00F0020005900098694640F0030059
:102B20000090012001900290022003902046FEF7C1
:102B300075F8012211462046FEF739F901220221DB
:102B40002046FEF734F906B010BD00001C380240E4
:102B50000004024010B5124C002201212046FEF76D
:102B600026F9206820F00C002060206840F0040066
:102B70002060012202212046FEF719F9142000F0FE
:102B800059FC012211462046FEF711F9142000F0ED
:102B900051FC20460022BDE810400121FEF707B994
:102BA000000402402DE9F041174E0746002430682A
:102BB00020F00C0030603068306025460022012192
:102BC0003046FEF7F4F8142000F034FC01221146E0
:102BD0003046FEF7ECF86006040E02213046FEF7A0
:102BE000E1F808B1641CE4B2142000F023FC6D1C71
:102BF000EDB2082DE2D327B1FFF75AFF2046BDE81A
:102C0000F081FFF7A7FFF9E70004024070B5194E05
:102C100005463046316821F00C013160316841F0E1
:102C20000401316000220121FEF7C1F800242806CA
:102C300001D5012200E0002202213046FEF7B7F85C
:102C40006806050E142000F0F5FB012211463046FF
:102C5000FEF7ADF8142000F0EDFB00220121304614
:102C6000FEF7A5F8142000F0E5FB641CE4B2082C84
:102C7000DDD370BD0004024010B5124C206820F076
:102C80000C002060206840F0040020600122114602
:102C90002046FEF78CF8012202212046FEF787F835
:102CA000142000F0C7FB002202212046FEF77FF827
:102CB000142000F0BFFB20460022BDE81040012197
:102CC000FEF775B80004024010B5124C206820F0E1
:102CD0000C002060206840F00400206000220121E8
:102CE0002046FEF764F8002202212046FEF75FF836
:102CF000142000F09FFB012211462046FEF757F8F2
:102D0000012202212046FEF752F8BDE810401420AF
:102D100000F090BB0004024070B5174D00242868F5
:102D200020F00C0028602868286001220221284633
:102D3000FEF73DF8142000F07DFB012211462846E5
:102D4000FEF735F8142000F075FB07E0641CE4B2D0
:102D5000FA2C03D9FFF7B8FF012070BD02212846E5
:102D6000FEF720F80028F1D1002201212846FEF7C5
:102D70001EF8002070BD00000004024038B5044673
:102D80001248134D4FF47A730068B0FBF5F05843C6
:102D900000906068B0F5827F0DD10B460092002252
:102DA0008021204600F016F870B1606D40F02000E0
:102DB0006065032038BD009830B1401E0090206847
:102DC0008068C0430006F6D5002038BD54000020BE
:102DD00000366E012DE9F8431E46914688460446AA
:102DE000089DFDF7E9FF401B351AFDF7E5FF074693
:102DF00025480068C0F3CB30684338E0701C37D0FA
:102E0000FDF7DAFFC01BA84203D215B1009860B3EA
:102E10002CE02068416821F0E00141606068B0F575
:102E2000827F0BD1A068B0F5004F02D0B0F5806F63
:102E300004D12068016821F040010160A06AB0F56A
:102E4000005F09D12068016821F400510160206809
:102E5000016841F400510160012084F85100002014
:102E600084F850000320BDE8F8830025401E009040
:102E70002068816838EA010004D000204845BDD1AF
:102E80000020F0E70120F9E7540000207047FDF72B
:102E900099BF000010B592B034216846FDF77EF965
:102EA00014210DA8FDF77AF91148016821F4C051E9
:102EB00041F4006101600121039102201021009082
:102EC00000240491CDE909044005CDE90B40684692
:102ED000FEF734F90F200D900320CDE90E04109475
:102EE00001210DA81194FEF705F812B010BD0000E5
:102EF0000070004002494FF0006008607047000019
:102F000008ED00E010B5406A0021C185C184FEF7DC
:102F100076FC10BD0168CA6822F49072CA6001682C
:102F20004A6922F001024A61202180F83A10704774
:102F300010B590F83A10222901D0022010BD816806
:102F4000B1F5805F11D00169002901681FD049687F
:102F500001F07F03816A4A1C82620B70C18D491E99
:102F60000904090CC18518D02BE00269816A002A86
:102F70000268526805D0D2B20A80816A491C816217
:102F8000ECE7C2F308020A80816A891CF7E74A6805
:102F9000816A4B1C83620A70E0E70168CA6822F00C
:102FA0002002CA600168CA6822F48072CA6001689F
:102FB0004A6922F001024A61202180F83A10FEF7A6
:102FC00049FD002010BD00002DE9F04104460068D5
:102FD0000169E26821F4405111430161A16820694F
:102FE000E26901436069104301432068C26849F205
:102FF0000C639A430A43C26020684169A26921F4C4
:1030000040711143416135492068884202D1FEF781
:1030100051F801E0FEF73EF8E16964223223B1F590
:10302000004F00EBC00101EB001160682BD0800065
:10303000B1FBF0F5B5FBF2F5B1FBF0F66FF0180758
:103040007D4306EB8505B1FBF0F603EB0515B5FBFB
:10305000F2F5B6FBF2F605F0F00505EB0615B1FB4F
:10306000F0F6B1FBF0F0B0FBF2F0784306EB800035
:1030700003EB0010B0FBF2F000F00F0021682844D1
:103080008860BDE8F0814000B1FBF0F6B6FBF2F6D7
:10309000B1FBF0F7B1FBF0F56FF0180C06FB0CF686
:1030A00007EB860603EBC606B5FBF2F5B6FBF2F6B8
:1030B0002D0106F0F80605EB4605B1FBF0F6B1FB75
:1030C000F0F0B0FBF2F000FB0CF006EB800003EB3D
:1030D000C000B0FBF2F000F00700CFE7003801407D
:1030E00090F83910212901D0022070478168B1F58C
:1030F000805F016A0BD04A1C026202680978516045
:10310000C18C491E0904090CC1840ED017E009883E
:103110000268C1F30801516001690029016A02D007
:10312000491C0162ECE7891CFBE70168CA6822F0D0
:103130008002CA600068C16841F04001C16000209F
:1031400070472DE9F0411E46174688460446069D05
:103150001CE0681C1AD025B1FDF72EFE801BA8428A
:1031600014D92068C16821F4D071C1602068416918
:1031700021F001014161202084F8390084F83A00EF
:10318000002084F838000320BDE8F0812068016841
:1031900038EA010004D00020B842DAD00020F3E77A
:1031A0000120F9E710B50848FEF730FB0648FEF7A6
:1031B00027FB2028FAD1012204490348FEF720FC0E
:1031C0000028F8D110BD0000B80100200800002040
:1031D000FEE700000FB4054B10B503A9044A02989E
:1031E00000F028F810BC5DF814FB000069340008FA
:1031F0008C0000200907090E002804DB00F1E02004
:1032000080F80014704700F00F0000F1E02080F813
:10321000141D704702E008C8121F08C1002AFAD125
:1032200070477047002001E001C1121F002AFBD146
:10323000704700002DE9FF4F8BB09A460F460546B8
:10324000002606E025280BD052460D9990476D1CAC
:10325000761C28780028F5D10FB03046BDE8F08FF5
:103260000024A0460122604900E0044315F8013F14
:10327000203B02FA03F00842F7D128782E2817D114
:1032800015F8010F44F004042A280ED06FF02F0225
:103290002878A0F1300109290AD808EB880102EB4F
:1032A000410100EB01086D1CF2E757F8048B6D1C1F
:1032B000287869283ED006DC0028CDD063280BD0C2
:1032C000642804D136E0732810D075284BD05246BC
:1032D0000D999047761C85E017F8040B8DF80000D7
:1032E00000208DF80100E946012003E057F8049B17
:1032F0004FF0FF3061074FF0000401D40AE0641C76
:1033000044450DDA8442FADB19F804100029F6D19D
:1033100006E0641C8442FCDB19F804100029F8D193
:10332000264404E019F8010B52460D999047641E9B
:10333000F8D257E001CF4FF00A0B002802DA4042E2
:103340002D2102E0210504D52B218DF82410012127
:1033500003E0E10705D02021F7E70DF120090891EE
:103360000CE00021F9E701CF4FF00A0BF9E75946CD
:10337000FDF775F801F1300209F8012D0028F6D1AA
:10338000ADEB090000F1200B600701D44FF00108FC
:10339000D84502DDA8EB0B0000E0002080460024A9
:1033A00006E009A85246005D0D999047641C761C02
:1033B00008988442F5DB04E0302052460D9990478E
:1033C000761CB8F10001A8F10108F5DC05E019F858
:1033D000010B52460D999047761CBBF10001ABF1F1
:1033E000010BF4DC6D1C34E7092801000B4810B513
:1033F000016841F004010160FFF74CFD182000F066
:103400000FF8FEF7B9FBFEF7FDFBFFF779FB00F0C5
:103410005FF8BDE81040FEF719BC000000700040E6
:1034200010B504460420FEF7CAF90148047010BD27
:103430005800002070B54FF0E02500216C69094A62
:10344000AB6912785043AA699A42FCD002D2A3EB2E
:10345000020302E0A4EB02063344194413468142FE
:10346000F1D370BD5800002013B54FF6FF73012251
:1034700069460248FEF720FB00981CBDB8010020F9
:1034800010B5002821D0114B0022001F196803E05D
:10349000814203D80A4649680029F9D152B113681C
:1034A000841A9C4204D1006818441060104602E05F
:1034B000506000E0186039B102680B1A934203D1E2
:1034C0000B681A4402604968416010BD90000020FA
:1034D00010B586B014216846FCF760FE1A480168F2
:1034E00041F0010101600068184C00F001000590F6
:1034F00000224FF400612046FDF759FC009901209D
:1035000041F4194100911249CDE9011002200390C4
:1035100069462046FDF782FB002211461720FDF781
:10352000B7FC1720FDF7A6FC002211462820FDF766
:10353000AFFC2820FDF79EFC064900208870C8706B
:10354000087106B010BD00001C38024000000240A7
:103550000000211061000020FDF73CFCFFF79AFC01
:103560001820FFF75DFFFEF707FBFEF74BFBFEF7AA
:103570006DFBFFF7C5FAFEF78DFB1348FEF754FD10
:10358000FEF728FDFFF7A4FF10A0FFF723FE00F0D1
:103590005BF9114D114C00262878052807D300F05F
:1035A00053F92E70314626700DA0FFF713FE2078D8
:1035B00030B100F087FB3146267010A0FFF70AFEFD
:1035C00000F060F8E8E7000000000020496E697430
:1035D00046696E73680D0A006200002061000020D9
:1035E0005043463835363320696E74657272757093
:1035F000742031306D696E202564200050434638B8
:1036000035363320696E7465727275707420316D51
:10361000696E202564200000F0B50B30154D20F0B8
:1036200007010024144A0FE003688B420BD38B423E
:1036300005D95E1A43184768C3E9006700E043688C
:10364000136002C004E0021D10680028ECD120467F
:10365000002802D1286808B10020F0BD064A0748BA
:103660001060074A121A22F00702C0E90024012064
:103670002860D7E79400002090000020240200205A
:10368000202200202DE9F047244D002001462A7811
:10369000002A3ED0224B1A8814043AD5214ED4B2C7
:1036A0009946B27B204B303AD2B26FF02F0701E03F
:1036B0000E2830D006EB000C9CF8018016F800C0F4
:1036C000ACF1300C0CEB8C0C07EB4C0CC44403F845
:1036D00001C0491C801CC0B2C9B20F28E8D31248EF
:1036E000FEF7A2FC11A0FFF775FD4FF47A73224696
:1036F0000C491348FEF7E0F9114800680168C94316
:103700004906FBD40FA0FFF765FD0021A9F80010C2
:103710002970BDE8F0875A54DBE700006300002001
:103720000C000020F0000020240000200D0AC4FA44
:10373000B5C4CAB1BCE4B8FCD0C2CEAA3A0D0A00E6
:10374000B80100200D0A0D0A000000002DE9F0412B
:103750000446FFF791FA8020FFF758FAFFF7DCFAEA
:10376000E320FFF753FAFFF7D7FAFFF785FA812036
:10377000FFF74CFAFFF7D0FA49F640452846FFF725
:1037800059FE0120FFF70EFA07460020FFF70AFA5C
:103790000646FFF799FA06EB0720FCF73AFE244AA3
:1037A000244BFCF7ADFD6FF00F063246FCF71AFE16
:1037B000214A224BFCF79EFDC4E900014CF2503037
:1037C000FFF738FEFFF758FA8020FFF71FFAFFF7E0
:1037D000A3FAE520FFF71AFAFFF79EFAFFF74CFA73
:1037E0008120FFF713FAFFF797FA2846FFF722FE2A
:1037F0000120FFF7D7F9254660F30F250020FFF7DA
:10380000D1F960F30705FFF75FFAA8B2FCF701FEF4
:103810003246FCF7E7FD0022094BFCF771FD002260
:10382000084BFCF767FDC4E90201BDE8F081000028
:10383000D7A3703D0AF76540CDCCCCCCCC6C4740CB
:1038400000405F40000018402DE9FE43FCF7E4FE15
:10385000EA48FEF77FFBEA48FFF778FFE84CE94EBD
:103860000022D4E900013346FCF74AFDFCF7DEFDF7
:10387000E24D00220C3D33466860D4E90201FCF7BA
:103880003FFDFCF7D3FDA860DFA0FFF7A3FCFCF72A
:103890009FFEE4A0FFF79EFC0020FCF76BFFFCF707
:1038A000D7FE4FF4FA70FDF737F94FF47A60FFF75F
:1038B000B3FE286000287DD0E1A0FFF78BFCFF2439
:1038C00000944FF48773FA227A21A8462868FEF7FD
:1038D000BDFFD8F80000FEF7D7FF0120FEF7DAFFA2
:1038E000FF20FEF7DBFBC54F0A2600253879CDE91E
:1038F0000054B0FBF6F2D74B29462846FEF71EFDD2
:103900003879CDE90054B0FBF6F106FB1102D14B3A
:1039100000212820FEF712FDCE4BCFA20021462029
:10392000CDE90045FEF752FF7879CDE90054B0FBB0
:10393000F6F2C84B00216420FEF700FD7879CDE94E
:103940000054B0FBF6F106FB1102C24B00218C20A3
:10395000FEF7F4FCCDE90054C04BC1A20221BB200C
:10396000FEF766FECDE90054BC4BBEA20221CD207D
:10397000FEF75EFED8F804104FF06409B1FBF9F2CF
:10398000CDE90054B84B1921BB20FEF7D7FCD8F87D
:103990000410CDE90054B1FBF9F0B0FBF6F106FBE1
:1039A0001102B14B1921C820FEF7C8FCAE4BAFA2E3
:1039B000192100E01BE1D220CDE90045FEF706FF0A
:1039C000D8F80400CDE90054B0FBF6F106FB110273
:1039D000A54B1921DC20FEF7B1FCA34BA4A21921B1
:1039E000EA20CDE90045FEF7F1FECDE900549B4BFE
:1039F000A0A22921BB20FEF71BFECDE90054974B66
:103A000098A22921CD20FEF713FED8F80810CDE9A1
:103A10000054B1FBF9F2944B3E21BB20FEF78EFC23
:103A2000D8F80810CDE90054B1FBF9F0B0FBF6F17D
:103A300006FB11028C4B3E21C820FEF77FFC8A4B0F
:103A40008AA23E21D220CDE90045FEF7BFFED8F87C
:103A50000800CDE90054B0FBF6F106FB1102824BE1
:103A60003E21DC20FEF76AFC7F4B83A23E21EA2048
:103A7000CDE90045FEF7AAFE0120CDE900500290F5
:103A80005823FA2254210020FEF762FDCDE90054AC
:103A90007A4B022261210020FEF750FCCDE9005450
:103AA000764B002261210920FEF748FC7878CDE9A9
:103AB0000054B0FBF6F2714B61211220FEF73EFC80
:103AC0007878CDE90054B0FBF6F106FB11026B4BA0
:103AD00061211B20FEF732FCCDE900545F4B68A248
:103AE0005C212520FEF7A4FDB878CDE90054B0FB99
:103AF000F6F2624B61213420FEF720FCB878CDE964
:103B00000054B0FBF6F106FB11025C4B61213D2035
:103B1000FEF714FCCDE90054504B5AA25C2146201C
:103B2000FEF786FDF878CDE90054B0FBF6F2534B72
:103B300061215620FEF702FCF878CDE90054B0FB75
:103B4000F6F106FB11024D4B61215F20FEF7F6FBFB
:103B5000CDE90054414B4CA25C216820FEF768FD82
:103B6000CDE900543D4B49A25C218020FEF760FD69
:103B7000CDE90054394B43A25C219020FEF758FD5B
:103B8000CDE90054354B42A25C21A020FEF750FD48
:103B9000CDE90054314B3DA25C21B020FEF748FD39
:103BA000CDE900542D4B3BA25C21C820FEF740FD1F
:103BB000CDE90054294B38A25C21D820FEF738FD0E
:103BC000F879264BB0FBF6F106FB110007F1100166
:103BD00051F82020CDE900545C21E820FEF728FDB3
:103BE000D8F80000FCF74DFD0020BDE8FE832BA0B7
:103BF000FFF7F0FA4FF0FF30F7E700001C0000205D
:103C0000F801002000002440646973706C61792021
:103C100077656C636F6D6520496D616765210D0A7D
:103C200000000000652D506170657220496E697456
:103C300020616E6420436C6561722E2E2E0D0A0089
:103C40005061696E745F4E6577496D6167650D0AF5
:103C500000000000780000203A00000080000020F2
:103C6000CEC20000B6C80000700000202E00000088
:103C700043000000CAAA00002500000068000020E0
:103C8000C4EA0000D4C20000C8D50000CAAE0000DB
:103C9000B3F50000D0C70000C6DA00004661696CC9
:103CA000656420746F206170706C7920666F72207B
:103CB000626C61636B206D656D6F72792E2E2E0DB7
:103CC0000A0000002DE9FE4FE648FEF743F9E648FA
:103CD000FFF73CFDE44CE54E0022D4E900013346F9
:103CE000FCF70EFBFCF7A2FBDFF878830022A8F1BB
:103CF0000C084546C8F80400D4E902013346FCF735
:103D0000FFFAFCF793FBA860D9A0FFF763FAFCF772
:103D10005FFC4FF47A60FFF77FFC5FEA000A7DD01A
:103D2000FCF7F6FC0120FCF725FD5046FEF7ACFD44
:103D3000FF2400217A23FA2208460094FEF7E4F9D2
:103D4000C84F0A2600253879CDE90054B0FBF6F2B9
:103D5000CC4B29462846FEF7F1FA3879CDE90054D4
:103D6000B0FBF6F106FB1102C64B00212820FEF73E
:103D7000E5FAC44BC4A200214620CDE90045FEF778
:103D800025FD7879CDE90054B0FBF6F2BD4B00215A
:103D90006420FEF7D3FA7879CDE90054B0FBF6F150
:103DA00006FB1102B74B00218C20FEF7C7FACDE9C4
:103DB0000054B64BB6A20221BB20FEF739FCCDE978
:103DC0000054B24BB3A20221CD20FEF731FCD8F84B
:103DD00004104FF06409B1FBF9F2CDE90054AE4B89
:103DE0001921BB20FEF7AAFAD8F80410CDE9005437
:103DF000B1FBF9F0B0FBF6F106FB1102A64B19215D
:103E0000C820FEF79BFAA44BA4A21921D220CDE929
:103E10000045FEF7DBFCD8F8040000E01BE1B0FB36
:103E2000F6F106FB1102CDE900549B4B1921DC2071
:103E3000FEF784FA984B9AA21921EA20CDE90045B1
:103E4000FEF7C4FCCDE90054904B96A22921BB207B
:103E5000FEF7EEFBCDE900548C4B8EA22921CD203C
:103E6000FEF7E6FBD8F80810CDE90054B1FBF9F2F3
:103E7000894B3E21BB20FEF761FAD8F80810CDE946
:103E80000054B1FBF9F0B0FBF6F106FB1102824BD6
:103E90003E21C820FEF752FA7F4B80A23E21D2205D
:103EA000CDE90045FEF792FCD8F80800CDE90054B2
:103EB000B0FBF6F106FB1102774B3E21DC20FEF74A
:103EC0003DFA754B78A23E21EA20CDE90045FEF788
:103ED0007DFC0120CDE9005002905823FA225421A4
:103EE0000020FEF735FBCDE90054704B0222612122
:103EF0000020FEF723FACDE900546C4B002261212B
:103F00000920FEF71BFA7878CDE90054B0FBF6F2F1
:103F1000664B61211220FEF711FA7878CDE9005442
:103F2000B0FBF6F106FB1102604B61211B20FEF78E
:103F300005FACDE90054554B5DA25C212520FEF722
:103F400077FBB878CDE90054B0FBF6F2574B61210E
:103F50003420FEF7F3F9B878CDE90054B0FBF6F160
:103F600006FB1102514B61213D20FEF7E7F9CDE937
:103F70000054464B4FA25C214620FEF759FBF878CF
:103F8000CDE90054B0FBF6F2484B61215620FEF714
:103F9000D5F9F878CDE90054B0FBF6F106FB110233
:103FA000424B61215F20FEF7C9F9CDE90054374B40
:103FB00041A25C216820FEF73BFBCDE90054334B66
:103FC0003EA25C218020FEF733FBCDE900542F4B4D
:103FD00038A25C219020FEF72BFBCDE900542B4B3F
:103FE00037A25C21A020FEF723FBCDE90054274B2C
:103FF00032A25C21B020FEF71BFBCDE90054234B1D
:1040000030A25C21C820FEF713FBCDE900541F4B02
:104010002DA25C21D820FEF70BFBF8791B4BB0FBDF
:10402000F6F106FB110007F1100151F82020CDE94F
:1040300000545C21E820FEF7FBFA5046FCF740FBF9
:104040004FF47A70FCF768FDFCF708FD5046FFF767
:1040500017FABDE8FE8F1DA0FFF7BCF84FF0FF3048
:10406000F7E700001C000020F801002000002440B9
:104070005061727469616C20726566726573680D57
:104080000A000000780000203A00000080000020B4
:10409000CEC20000B6C80000700000202E00000054
:1040A00043000000CAAA00002500000068000020AC
:1040B000C4EA0000D4C20000C8D50000CAAE0000A7
:1040C000B3F50000D0C70000C6DA00004661696C95
:1040D000656420746F206170706C7920666F722047
:1040E000626C61636B206D656D6F72792E2E2E0D83
:1040F0000A000000030406080C101820300000001D
:104100000000000000010203040607080900000087
:1041100000010203048060400000000010602000E5
:1041200000000080604000000000106020000000DF
:104130000000000000000000030300000209090065
:104140000002030300000200000000000000000065
:1041500000000000000000000000001541A83230FF
:104160000A00000000000000800000000000004085
:10417000000000000000000000000000000000003F
:10418000000000000A000000000000000000000025
:10419000000000000000000000000000000000001F
:1041A000000000000000001541A832300A000000A5
:1041B00000000000000000000000000000000000FF
:1041C0000000000000000000000000000000000CE3
:1041D000000C000C000C000C000C000C000C00008B
:1041E000000C0000000000000000000000000000C3
:1041F000001DC01DC008800880088000000000006D
:104200000000000000000000000000000000000DA1
:10421000800D800D800D803FC01B003FC01B001B28
:10422000001B001B00000000000000000004001F35
:10423000803180318038001E000F000380318031D2
:10424000803F00040004000000000000000000188F
:10425000002400240018C007801E003180024002A4
:10426000400180000000000000000000000000008D
:10427000000F001800180018000C001D80370033D4
:10428000001D800000000000000000000000000091
:10429000000700070002000200020000000000000A
:1042A000000000000000000000000000000000030B
:1042B00000030006000E000C000C000C000C000EA9
:1042C00000060003000300000000000000000018CA
:1042D0000018000C00060006000600060006000696
:1042E000000C001C00180000000000000000000688
:1042F0000006003FC03FC00F001F80198000000073
:1043000000000000000000000000000000000000AD
:104310000000000400040004003F800400040004C6
:10432000000000000000000000000000000000008D
:104330000000000000000000000000000000000677
:104340000004000C0008000800000000000000004D
:104350000000000000000000003F8000000000009E
:10436000000000000000000000000000000000004D
:104370000000000000000000000000000000000C31
:10438000000C000000000000000000000000C00061
:10439000C0018001800300030006000C000C00181F
:1043A0000018003000300000000000000000000E87
:1043B000001B003180318031803180318031801BA1
:1043C000000E0000000000000000000000000006D9
:1043D000003E000600060006000600060006000675
:1043E000003FC00000000000000000000000000FBF
:1043F00000198031803180030006000C0018003065
:10440000003F800000000000000000000000003FAE
:10441000006180018003001F000380018001806132
:10442000803F0000000000000000000000000007C6
:104430000007000F000B001B00130033003F800338
:10444000000F800000000000000000000000001FBE
:10445000801800180018001F0011800180018021C1
:10446000801F0000000000000000000000000007A6
:10447000801C0018003000370039803180318019ED
:10448000800F000000000000000000000000007F1E
:10449000004300030006000600060006000C000CA6
:1044A000000C000000000000000000000000001FE1
:1044B000003180318031801F003180318031803186
:1044C000801F000000000000000000000000001E2F
:1044D0000033003180318033801D8001800300076C
:1044E000003C000000000000000000000000000090
:1044F00000000000000C000C000000000000000C98
:10450000000C00000000000000000000000000009F
:10451000000000000003000300000000000000068F
:104520000004000800080000000000000000000077
:104530000000C0030004001800600018000400031D
:104540000000C000000000000000000000000000AB
:10455000000000000000007FC000007FC0000000DD
:10456000000000000000000000000000000000004B
:1045700000600018000400030000C00300040018DD
:1045800000600000000000000000000000000000CB
:10459000001F0031803180018007000C000C0000FA
:1045A000000C000000000000000000000000000EF1
:1045B00000110021002100270029002900270020E8
:1045C0000011000E000000000000000000000000CC
:1045D000003F000F000900198019801F8030C03093
:1045E000C079E000000000000000000000000000B2
:1045F000007F003180318031803F00318031803157
:10460000807F0000000000000000000000000000AB
:10461000001F4030C06040600060006000604030BB
:10462000801F0000000000000000000000000000EB
:10463000007F00318030C030C030C030C030C03169
:10464000807F00000000000000000000000000006B
:10465000007F803080308032003E00320030803079
:10466000807F8000000000000000000000000000CB
:10467000007FC03040304032003E00320030003019
:10468000007C0000000000000000000000000000AE
:10469000001E80318060806000600067C0618031F2
:1046A000801F00000000000000000000000000006B
:1046B000007BC03180318031803F8031803180315A
:1046C000807BC0000000000000000000000000002F
:1046D000003FC006000600060006000600060006B1
:1046E000003FC000000000000000000000000000CB
:1046F000001FC003000300030003006300630063A6
:10470000003E00000000000000000000000000006B
:10471000007BC03180330036003C003E0033003166
:104720008079C000000000000000000000000000D0
:10473000007E0018001800180018001840184018D3
:10474000407FC000000000000000000000000000EA
:1047500000E0E060C071C07BC06AC06EC064C06031
:10476000C0FBE000000000000000000000000000AE
:104770000073C0318039803D80358037803380318F
:1047800080798000000000000000000000000000B0
:10479000001F00318060C060C060C060C060C03178
:1047A000801F00000000000000000000000000006A
:1047B000007F0031803180318031803F0030003017
:1047C000007E00000000000000000000000000006B
:1047D000001F00318060C060C060C060C060C03138
:1047E000801F000CC01F80000000000000000000BF
:1047F000007F003180318031803E003300318031D4
:10480000807CE000000000000000000000000000CC
:10481000001F803180318038001F000380318031DB
:10482000803F0000000000000000000000000000C9
:10483000007F804C804C804C800C000C000C000CE5
:10484000003F000000000000000000000000000029
:10485000007BC031803180318031803180318031C6
:10486000801F0000000000000000000000000000A9
:10487000007BC0318031801B001B001B000A000E32
:10488000000E00000000000000000000000000001A
:1048900000FBE060C064C06EC06EC02A803B803BFD
:1048A00080318000000000000000000000000000D7
:1048B000007BC031801B000E000E000E001B00317B
:1048C000807BC0000000000000000000000000002D
:1048D0000079E030C019800F0006000600060006CF
:1048E000001F800000000000000000000000000029
:1048F000003F8021802300060004000C0018803057
:10490000803F800000000000000000000000000761
:1049100080060006000600060006000600060006E7
:104920000006000600078000000000000030003094
:1049300000180018000C000C000600030003000122
:1049400080018000C000C000000000000000001EC8
:104950000006000600060006000600060006000627
:1049600000060006001E0000000000000004000A0F
:10497000000A0011002080208000000000000000DC
:104980000000000000000000000000000000000027
:104990000000000000000000000000000000000017
:1049A0000000000000000000000000FFE00800041C
:1049B00000020000000000000000000000000000F5
:1049C00000000000000000000000000000000000E7
:1049D00000000000001F00018001801F8031803333
:1049E000801DC000000000000000000000000070FA
:1049F00000300030003700398030C030C030C0395E
:104A000080770000000000000000000000000000AF
:104A100000000000001E80318060806000608031F6
:104A2000801F0000000000000000000000000003E4
:104A300080018001801D80338061806180618033CE
:104A4000801DC00000000000000000000000000009
:104A500000000000001F00318060C07FC060003097
:104A6000C01F8000000000000000000000000007E0
:104A7000E00C000C003F800C000C000C000C000C43
:104A8000003F800000000000000000000000000067
:104A900000000000001DC0338061806180618033B0
:104AA000801D80018001801F000000000000007058
:104AB0000030003000370039803180318031803162
:104AC000807BC00000000000000000000000000625
:104AD00000060000001E0006000600060006000694
:104AE000003FC000000000000000000000000006C1
:104AF00000060000003F0003000300030003000362
:104B0000000300030003003E0000000000000070EE
:104B10000030003000378036003C003C0036003367
:104B20000077C00000000000000000000000001E30
:104B30000006000600060006000600060006000645
:104B4000003FC00000000000000000000000000066
:104B500000000000007F8036C036C036C036C03648
:104B6000C076E0000000000000000000000000002F
:104B700000000000007700398031803180318031C1
:104B8000807BC0000000000000000000000000006A
:104B900000000000001F00318060C060C060C031B4
:104BA000801F000000000000000000000000000066
:104BB00000000000007700398030C030C030C039BC
:104BC000803700300030007C000000000000000052
:104BD00000000000001DC03380618061806180336F
:104BE000801D800180018007C000000000000000DF
:104BF00000000000007B801CC0180018001800187E
:104C0000007F000000000000000000000000000025
:104C100000000000001F8031803C001F0003803135
:104C2000803F0000000000000000000000000018AD
:104C300000180018007F001800180018001800184D
:104C4000800F0000000000000000000000000000D5
:104C5000000000000073803180318031803180336A
:104C6000801DC000000000000000000000000000E7
:104C700000000000007BC0318031801B001B000E53
:104C8000000E000000000000000000000000000016
:104C90000000000000F1E060C064C06EC03B803BDB
:104CA00080318000000000000000000000000000D3
:104CB00000000000007BC01B000E000E000E001B59
:104CC000007BC000000000000000000000000000A9
:104CD000000000000079E030C0198019800B000F3F
:104CE00000060006000C003E00000000000000006E
:104CF00000000000003F80218003000E00180030FB
:104D0000803F80000000000000000000000000065E
:104D1000000C000C000C000C000C0018000C000C27
:104D2000000C000C0006000000000000000000065F
:104D30000006000600060006000600060006000643
:104D40000006000600060000000000000000000C45
:104D50000006000600060006000600030006000626
:104D600000060006000C000000000000000000002B
:104D70000000000000000018002480030000000074
:104D80000000000000000000000000000000000023
:104D90000000000000000000000000000000000013
:104DA0000000000000000000000000000000000003
:104DB00000000000000000070007000700070007D0
:104DC00000070007000200020000000000070007C3
:104DD00000000000000000000000000000000000D3
:104DE000001CE01CE01CE0084008400840000000F7
:104DF00000000000000000000000000000000000B3
:104E000000000000000CC00CC00CC00CC00CC03F67
:104E1000F03FF00CC00CC03FF03FF00CC00CC00CD9
:104E2000C00CC00CC0000000000000000003000324
:104E30000007E00FE0186018001F000FC000E01826
:104E40006018601FC01F8003000300030000000003
:104E5000000000000000001C002200220022001CB4
:104E60006001E00F803C0031C002200220022001DE
:104E7000C000000000000000000000000000000072
:104E800000000003E00FE00C000C0006000F301FD4
:104E9000F019E018C01FF007B0000000000000008B
:104EA0000000000000000000000380038003800178
:104EB00000010001000000000000000000000000F0
:104EC00000000000000000000000000000000000E2
:104ED000C000C001800180018003000300030003C3
:104EE000000300030001800180018000C000C000B9
:104EF000000000000000000C000C00060006000688
:104F00000003000300030003000300030006000683
:104F10000006000C000C0000000000000000000370
:104F200000030003001B601FE0078007800FC00C18
:104F3000C0000000000000000000000000000000B1
:104F40000000000000000000000000030003000358
:104F50000003003FF03FF0030003000300030000E4
:104F60000000000000000000000000000000000041
:104F70000000000000000000000000000000000031
:104F80000000000380030003000600060004000088
:104F90000000000000000000000000000000000011
:104FA0000000003FE03FE0000000000000000000C3
:104FB00000000000000000000000000000000000F1
:104FC00000000000000000000000000000000000E1
:104FD0000000000380038003800000000000000048
:104FE00000000000000060006000C000C000C001C0
:104FF00080018003000300060006000C000C000C7A
:105000000018001800000000000000000000000F61
:10501000801FC018C0306030603060306030603059
:1050200060306018C01FC00F80000000000000004A
:105030000000000000000003001F001F0003000329
:10504000000300030003000300030003001FE01F30
:10505000E000000000000000000000000000000F61
:10506000801FC038E03060006000C001800300068F
:10507000000C0018003FE03FE000000000000000CE
:10508000000000000000000F803FC030E000600022
:10509000E007C007C000E00060006060E07FC03F44
:1050A000800000000000000000000000000000017F
:1050B000C003C003C006C00CC00CC018C030C03F45
:1050C000E03FE000C003E003E0000000000000005B
:1050D000000000000000001FC01FC0180018001FC3
:1050E000801FC018E000600060006030E03FC01F1B
:1050F000800000000000000000000000000000032D
:10510000E00FE01E001800380037803FC038E03064
:1051100060306018E01FC007800000000000000041
:10512000000000000000003FE03FE0306000600051
:10513000C000C000C00180018001800300030003A3
:105140000000000000000000000000000000000F50
:10515000801FC038E0306038E01FC01FC038E0302A
:1051600060306038E01FC00F8000000000000000C9
:10517000000000000000000F001FC038C030603089
:105180006038E01FE00F6000E000C003C03F803ED9
:10519000000000000000000000000000000000000F
:1051A0000000000000000003800380038000000076
:1051B0000000000380038003800000000000000066
:1051C00000000000000000000000000000000001DE
:1051D000C001C001C0000000000000038003000601
:1051E00000060004000000000000000000000000B5
:1051F000000000003000F003C007001C0078001C15
:1052000000070003C000F0003000000000000000B4
:105210000000000000000000000000000000007F0F
:10522000F07FF0000000007FF07FF0000000000041
:10523000000000000000000000000000000000006E
:1052400000000030003C000F00038000E000780008
:10525000E003800F003C0030000000000000000070
:105260000000000000000000000F801FC018601840
:1052700060006001C0038003000000000007000719
:10528000000000000000000000000000000000031B
:10529000800C8008401040104011C0124012401293
:1052A0004011C01000080008400780000000000006
:1052B0000000000000000000001F801F8003800627
:1052C000C006C00CC00C601FE01FE030307878785A
:1052D0007800000000000000000000000000000056
:1052E000003F803FC01860186018E01FC01FE01822
:1052F00070183018303FF03FE00000000000000060
:105300000000000000E000A000A7B0CFF01C703843
:1053100030300030003000300038301C700FE007B3
:10532000C0000000000000000000000000000000BD
:10533000007F807FC030E03070303030303030302F
:1053400030307030E07FC07F80000000000000003F
:105350000000000000000000003FF03FF01830188F
:105360003019801F801F801980183018303FF03F9F
:10537000F00000000000000000000000000000003D
:10538000003FF03FF01830183019801F801F80193F
:1053900080180018003F003F0000000000000000DF
:1053A00000000000000000000007B01FF01870307F
:1053B000303000300031F831F8303018301FF0074D
:1053C000C00000000000000000000000000000001D
:1053D000003CF03CF01860186018601FE01FE018F7
:1053E00060186018603CF03CF00000000000000015
:1053F0000000000000000000001FE01FE0030003A9
:10540000000300030003000300030003001FE01F6C
:10541000E0000000000000000000000000000000AC
:105420000003F803F8006000600060006030603046
:1054300060306030E03FC00F8000000000000000DE
:105440000000000000000000003EF83EF818E019DF
:10545000801B001F001D8018C018C018603E783ED9
:105460003800000000000000000000000000000004
:10547000003F003F000C000C000C000C000C000C66
:10548000300C300C303FF03FF00000000000000016
:105490000000000000000000007878787838703C48
:1054A000F034B037B037B03330333030307CF87C44
:1054B000F8000000000000000000000000000000F4
:1054C0000039F03DF01C601E601E601B601B6019FF
:1054D000E019E018E03EE03E60000000000000003F
:1054E00000000000000000000007800FC01CE03832
:1054F00070303030303030303038701CE00FC00742
:10550000800000000000000000000000000000001B
:10551000003FC03FE018701830183018701FE01FAF
:10552000C0180018003F003F00000000000000000D
:1055300000000000000000000007800FC01CE038E1
:1055400070303030303030303038701CE00FC007F1
:105550008007B00FF00CE000000000000000000029
:10556000003FC03FE01870183018701FE01FC018CF
:10557000E0186018703E383E18000000000000007F
:105580000000000000000000000FB01FF038703075
:105590003038001F8007E00070303038703FE0374F
:1055A000C00000000000000000000000000000003B
:1055B000003FF03FF033303330333003000300035B
:1055C00000030003000FC00FC00000000000000037
:1055D0000000000000000000003CF03CF0186018E3
:1055E00060186018601860186018601CE00FC00731
:1055F000800000000000000000000000000000002B
:105600000078F078F03060306018C018C00D800D60
:10561000800D800700070007000000000000000068
:105620000000000000000000007C7C7C7C3018330F
:10563000983398339836D816D01C701C701C70188C
:10564000300000000000000000000000000000002A
:105650000078F078F0306018C00D80070007000D6A
:105660008018C0306078F078F00000000000000082
:105670000000000000000000003CF03CF018600C4E
:10568000C00780078003000300030003000FC00F62
:10569000C00000000000000000000000000000004A
:1056A000001FE01FE0186018C0018003000300061F
:1056B000000C6018601FE01FE00000000000000008
:1056C0000000000000000003C003C003000300034B
:1056D00000030003000300030003000300030003B2
:1056E00000030003C003C000000000000018001801
:1056F000000C000C000C0006000600030003000173
:1057000080018000C000C000C00060006000000098
:10571000000000000000000F000F00030003000362
:105720000003000300030003000300030003000361
:105730000003000F000F0000000000000000000246
:105740000007000D8018C03060202000000000001D
:105750000000000000000000000000000000000049
:105760000000000000000000000000000000000039
:105770000000000000000000000000000000000029
:10578000000000000000000000FFFCFFFC0000041F
:105790000003000080000000000000000000000086
:1057A00000000000000000000000000000000000F9
:1057B0000000000000000000000000000000000FDA
:1057C000C01FE000600FE01FE0386030E03FF01FD6
:1057D00070000000000000000000000000000070E9
:1057E0000070003000300037803FE03860303030EB
:1057F00030303038607FE07780000000000000002B
:105800000000000000000000000000000000000791
:10581000B01FF0183030303000300038301FF00F3B
:10582000C0000000000000000000000000000000B8
:105830007000700030003007B01FF018703030304A
:1058400030303038701FF807B8000000000000004A
:105850000000000000000000000000000000000741
:10586000801FE018603FF03FF0300018301FF00755
:10587000C000000000000000000000000000000365
:10588000F007F0060006001FE01FE0060006000615
:1058900000060006001FE01FE000000000000000FE
:1058A00000000000000000000000000000000007F1
:1058B000B81FF8187030303030303018701FF007D3
:1058C000B0003000700FE00FC00000000000003892
:1058D000003800180018001BC01FE01C601860187A
:1058E00060186018603CF03CF00000000000000010
:1058F0000000000000000003000300000000001F83
:10590000001F00030003000300030003001FE01F4B
:10591000E0000000000000000000000000000003A4
:10592000000300000000001FC01FC000C000C00036
:10593000C000C000C000C000C000C001C03F803F28
:105940000000000000000038003800180018001B9C
:10595000E01BE01B001E001E001B00198039F039FF
:10596000F000000000000000000000000000001F28
:10597000001F0003000300030003000300030003F3
:1059800000030003001FE01FE00000000000000013
:105990000000000000000000000000000000007E89
:1059A000E07FF0333033303330333033307BB87B0B
:1059B000B80000000000000000000000000000002F
:1059C000000000000000003BC03FE01C60186018B1
:1059D00060186018603CF03CF0000000000000001F
:1059E00000000000000000000000000000000007B0
:1059F000801FE0186030303030303018601FE00712
:105A00008000000000000000000000000000000016
:105A10000000000000000077807FE0386030303008
:105A200030303038603FE03780300030007C007C20
:105A3000000000000000000000000000000000075F
:105A4000B81FF8187030303030303018701FF00741
:105A5000B00030003000F800F80000000000000046
:105A6000000000000000003CE03DF00F300E000C94
:105A7000000C000C003FC03FC00000000000000010
:105A8000000000000000000000000000000000070F
:105A9000E01FE018601E000FC001E018601FE01F4B
:105AA0008000000000000000000000000000000076
:105AB000000C000C000C003FE03FE00C000C000C60
:105AC000000C000C300FF007C000000000000000C8
:105AD000000000000000000000000000000000388E
