:020000040800F2
:1000000008050020090100086714000833130008E0
:100010006514000815020008191800080000000007
:10002000000000000000000000000000ED140008C7
:10003000170200080000000069140008EF1400080F
:100040002301000823010008230100082301000800
:1000500023010008230100082301000823010008F0
:1000600023010008230100082301000823010008E0
:1000700023010008230100082301000823010008D0
:1000800023010008230100082301000823010008C0
:1000900023010008230100082301000823010008B0
:1000A00000000000230100082301000823010008CC
:1000B0002301000823010008230100082301000890
:1000C0002301000823010008230100082301000880
:1000D000230100080D18000823010008230100086F
:1000E0002301000823010008230100082301000860
:1000F00023010008DFF80CD000F07AF80048004730
:10010000ED1800080805002006488047064800470B
:10011000FEE7FEE7FEE7FEE7FEE7FEE7FEE7FEE7B7
:10012000FEE7FEE755150008F50000082DE9F05F31
:100130000546002092469B46884606468146402456
:100140001BE0284641464746224600F041F8534608
:100150005A46C01A914110D311461846224600F063
:1001600028F82D1A67EB01084F462246012000218E
:1001700000F01FF817EB00094E41201EA4F1010406
:10018000DFDC484631462A464346BDE8F09FD2B2FE
:1001900001E000F8012B491EFBD270470022F6E770
:1001A00010B513460A4604461946FFF7F0FF2046ED
:1001B00010BD202A04DB203A00FA02F1002070472B
:1001C0009140C2F1200320FA03F319439040704795
:1001D000202A04DB203A21FA02F00021704721FA9C
:1001E00002F3D040C2F12002914008431946704703
:1001F000064C074D06E0E06840F0010394E8070074
:1002000098471034AC42F6D3FFF778FF5419000832
:1002100074190008FEE7704770470000F8B5002425
:10022000009490F848202546012A12D0012280F837
:1002300048204A681F23072A0DD20668376C521ED1
:1002400002EB820293409F430B6893401F43376445
:1002500035E00220F8BD0D2A0BD20768FE6BD21FD5
:1002600002EB820293409E430B6893401E43FE6361
:1002700025E0132A0BD20668B76B0D3A02EB820217
:1002800093409F430B6893401F43B76317E0066892
:10029000192A0AD2776B133A02EB820293409F43EA
:1002A0000B6893401F43776309E0376B193A02EB01
:1002B000820293409F430B6893401F4337630A6851
:1002C00007230A2A0AD20668776902EB42029340A2
:1002D0009F438B6893401F4377611CE0142A0BD225
:1002E00007683E690A3A02EB420293409E438B68DC
:1002F00093401E433E610EE01A2A0BD80768FE6841
:10030000143A02EB420293409E438B6893401E4393
:10031000FE6000E000BF0A68102A01D0112A17D140
:100320000D4A13681B0213D4136843F400031360CF
:10033000096810290CD10949094A0968B1FBF2F191
:1003400001EB8101490000E0491E00910029FBD129
:1003500080F848502046F8BD0427014010000020D6
:1003600040420F00F8B504004FF0000503D0E06CE8
:10037000002610B110E00120F8BD26655C4884F825
:100380004860016841F001010160006800F001006F
:100390000090204600F0B6F8E06CC0067AD4E06C1D
:1003A00020F4885040F00200E0645248016862681E
:1003B00021F44031114301606169E0684FF400733A
:1003C000084394F83C2093FAA3F3B3FA83F3216A29
:1003D0009A4011430843022194F8242091FAA1F194
:1003E000B1FA81F102FA01F10843616B102902D0E0
:1003F000A36B19430843236819684FF48077C943F6
:10040000490629D5A169D4F81CC00843A168D4F8CD
:1004100010E041EA0C01BE450CD0BEF1010F09D03D
:100420004FF0000C41EA0C0194F82CC0BCF1010F14
:1004300002D00AE0BC46F5E76AB3E26C42F0200263
:10044000E264226D42F0010222655A68DFF8A8C01A
:1004500002EA0C020A435A6021688A68274B1A4054
:1004600002438A602169B94224D0012922D021683F
:100470000A6B22F0F8720A6321688968204A1140E9
:10048000814227D12665E06C20F0020040F0010097
:10049000E0642AE028E0FFE74FF4604C226B9CFA0E
:1004A000ACFCBCFA8CFC521E02FA0CF20A4342F479
:1004B0000061CAE721680A6B4FF0F87722F0F87301
:1004C000A26A97FAA7F7B7FA87F7521EBA40134302
:1004D0000B63D1E7E06C20F0020040F01000E06414
:1004E000206D40F00100206501252846F8BD000080
:1004F0002038024004270140FF16FCFC8DF1FFC0AC
:10050000FEFF80BF10B586B0044614216846FFF791
:1005100045FE1149206888421CD11048016841F409
:1005200000710160006800F4007005900B48001F26
:10053000016841F0010101600068694600F00100B6
:1005400005900220009003200190002002900448B2
:1005500000F030F806B010BD002401402038024001
:100560000000024010B590F821100024022903D0A9
:100570000421816301241AE001680A6822F00E0256
:100580000A6001680A6822F001020A6090F84010CF
:10059000C36B01F01C02012101FA02F25A6080F8DB
:1005A0002110002180F82010416B01B188472046BE
:1005B00010BD00002DE9FC4FDFF894A100230125B8
:1005C0000AF1040B03244FF00F0C0BF1040EB8E0FA
:1005D00005FA03F6324071D04F68012F05D0022F83
:1005E00003D0112F01D0122F17D1D0F808905F003F
:1005F00004FA07F829EA08090097D1F80C8008FAEC
:1006000007F848EA0908C0F808804768B7430E7938
:10061000C6F300169E403E434660C6684FEA430854
:1006200004FA08F7BE4301978F6807FA08F73743C3
:10063000C7604E68022E01D0122E13D1DE0800EBE7
:1006400086060096366A5F07FF0E0CFA07F926EA5F
:100650000906D1F8109009FA07F949EA0609009E3F
:10066000C6F820900768019EB7430E7906F003068E
:1006700006FA08F63E4306604E68F60060D5354E31
:10068000376847F001073760366823F0030706F044
:1006900001060096304E3E44B146B6689F074FEAC9
:1006A00017780CFA08F7BE432C4FB84201D1002747
:1006B00015E02B4FB84202D1012710E040E0294F4E
:1006C000B84201D102270AE0274FB84201D10327DF
:1006D00005E0264FB84201D1042700E0052707FABC
:1006E00008F73743C9F80870DAF800705646D1F8B1
:1006F000048097435FEAC83800D517433760DBF8BA
:1007000000605F46D1F8048096435FEA883800D5E0
:1007100016433E60DEF800607746D1F804809643C9
:100720005FEAC82800D516433E60094F0C373E6883
:10073000D1F8048096435FEA882800D516433E60CE
:100740005B1C0A6832FA03F67FF442AFBDE8FC8F07
:100750000004014020380240000001400000024037
:100760000004024000080240000C02400010024059
:100770000AB1816170470904FBE700000148806805
:10078000704700000400002002488168426811445C
:10079000816070470400002010B50024032000F0A1
:1007A00079F8002000F008F808B1012401E000F019
:1007B00025F8204610BD000070B50E4E05460024F9
:1007C000706898B14FF47A71B1FBF0F00A4909688A
:1007D000B1FBF0F000F03EFC40B9102D06D2002233
:1007E0002946501E00F036F8356000E0012420460E
:1007F00070BD000004000020100000200D4808B566
:10080000016841F000410160016801F00041009180
:10081000011F0A6842F001020A60096801F0010143
:100820000091016841F080510160006800F0805043
:10083000009008BD24380240002809DB00F01F02A8
:10084000012191404009800000F1E020C0F8001132
:1008500070470000F0B40E4B1B680C46C3F3022334
:10086000C3F10705042D00D90425191D072901D25C
:10087000002300E0DB1E012606FA05F1491E214097
:1008800099409E40761E16403143F0BC00F0CEBF2A
:100890000CED00E0064900F0070208684FF6FF0380
:1008A000184040EA0220034A1043086070470000E5
:1008B0000CED00E00000FA052DE9F0470E460500BA
:1008C00079D0DFF88481D8F8000000F00100B04250
:1008D00014D2012E05D1D8F8001041F00401C8F857
:1008E0000010D8F8001021F001013143C8F80010C1
:1008F000D8F8000000F00100B0425CD12878534CD9
:10090000800705D52068A96820F0F0000843206022
:100910002878C0075CD04D496868083902281AD089
:1009200003281BD0096801281BD08905002966DA35
:10093000216821F0030101432160FFF71FFF69686F
:10094000074641F28830022914D0032920D001291A
:1009500081462AD038E009688903E7E709688901F8
:10096000E4E78907E2E700BFFFF708FFC11B49453D
:1009700001D926E081462068C0F381000228F3D126
:1009800026E000BFFFF7FAFEC11B494501D918E078
:1009900081462068C0F381000328F3D118E000BF2E
:1009A000FFF7ECFEC11B49450BD82068C0F381005E
:1009B0000128F5D10CE022E0FFF7E0FEC11B49451C
:1009C00002D90320BDE8F087206810F00C0FF3D1A6
:1009D000D8F80010404601F00101B14211D9012EB2
:1009E00003D1016841F004010160016821F00101B7
:1009F00031430160006800F00100B04201D00120E5
:100A0000E0E72878400705D52068E96820F4E06031
:100A1000084320602878000706D52068296920F45B
:100A2000605040EAC100206000F038F82168084AB0
:100A3000C1F30311515CC8400649086006480068CC
:100A4000BDE8F047FFF7B8BE003C0240083802405E
:100A5000391900081000002004000020044805494E
:100A600000680968044AC1F30221515CC84070471C
:100A700010000020083802404919000804480549C0
:100A800000680968044AC1F3C221515CC84070473C
:100A900010000020083802404919000870B5154DB3
:100AA0002968154801F00C02042A0CD0134C082ABE
:100AB0000AD00C2A0AD0281F0068C0F342314FF434
:100AC0000040491C884070BD204670BD0C4AC1F3EF
:100AD0008343D35CC1F381522968521CC90302D5F8
:100AE000A3FB040101E0A3FB00010023FFF71EFBB1
:100AF00070BD0000083802400024F40000366E018A
:100B0000301900082DE9F84F04007DD0FC48016839
:100B1000006801F00C0700F480362078F94DC0071A
:100B200041D0082F12D00C2F02D1B6F5803F0DD046
:100B30006068012811D008B1052818D0286820F471
:100B400080302860286820F4802009E0286880032D
:100B500029D560680028D8D025E0286840F4803086
:100B60002860606890B1FFF709FE80460AE02868B7
:100B700040F480202860F0E7FFF700FEA0EB0800BB
:100B800064287BD828688003F6D50CE0FFF7F6FDD3
:100B9000804605E0FFF7F2FDA0EB08006428F0D8DE
:100BA00028688003F6D42078DFF85CB3DFF85C8334
:100BB00080074FF001094FF0000A35D5042F0AD005
:100BC0000C2F00D13EB1E068F8B1C8F80090FFF7F3
:100BD000D5FD06460BE0286880070BD5E0680128A4
:100BE00012D107E0FFF7CAFD801B0228C9D8286888
:100BF0008007F7D5DBF80010226921F4F85141EAAB
:100C00000221CBF800100FE077E1C8F800A0FFF751
:100C1000B5FD064605E000BFFFF7B0FD801B0228CA
:100C2000AFD828688007F7D42078C00674D53FB1C4
:100C3000A069E0B3C8F82090FFF7A0FD06464AE09F
:100C40002868800502D5A069002884D0206ADBF8D6
:100C500000105E4601F46041884210D900F006FCA5
:100C60000028BDD13068216A20F46040084330601C
:100C7000217F306861F31F6030600FE096E03168DB
:100C800021F4604101433160217F306861F31F60CE
:100C90003060206A00F0EAFB0028A1D1216A4FF4FD
:100CA000004009EB513188409549096800E025E092
:100CB000974AC1F30311515CC840964908609648B1
:100CC0000068FFF779FD00286FD125E0FFF756FD9A
:100CD000801B02286AD828688005F7D5DBF8001049
:100CE000226A21F460411143CBF80010227FDBF827
:100CF000001062F31F61CBF800100DE0C8F820A0CF
:100D0000FFF73CFD064604E0FFF738FD801B022894
:100D10004CD828688005F7D42078804E000722D56B
:100D20007F48616981B1C0F80090FFF727FD8346D5
:100D300006E000BFFFF722FDA0EB0B00022835D82C
:100D400030688007F6D50EE0C0F800A0FFF716FD6A
:100D5000834605E0FFF712FDA0EB0B00022825D823
:100D600030688007F6D4207840076DD56B484FF087
:100D7000000B10380068C0000BD4684810380168B8
:100D800041F08051016000684FF0010B00F080508D
:100D9000009064480168C90514D4016841F4807169
:100DA0000160FFF7EBFC009008E08DE079E000BF08
:100DB000FFF7E4FC0099401A642872D8594800688B
:100DC000C005F5D5A06801280AD008B1052811D0C2
:100DD000306820F480703060306820F4806002E079
:100DE000306840F480703060A068A8B1FFF7C6FC9E
:100DF00000900DE0306840F480603060F0E700BFA4
:100E0000FFF7BCFC0099411A41F2883081425AD860
:100E100030688005F4D50EE0FFF7B0FC009007E0E5
:100E2000FFF7ACFC0099411A41F2883081424AD860
:100E300030688005F4D4BBF1000F05D03748103876
:100E4000016821F080510160606A58B30C2F41D0D5
:100E50000228504605D0C8F86000FFF78FFC044612
:100E600034E04746C8F86000FFF788FC064604E017
:100E7000FFF784FC801B022825D828688001F7D45E
:100E8000D4E90A1001431E48226B036823F47D0352
:100E90001A4311430160C7F86090FFF76FFC0446E6
:100EA00007E010E040E000BFFFF768FC001B0228ED
:100EB00009D828688001F7D536E000BFFFF75EFC4F
:100EC000001B022802D90320BDE8F88F28688001A2
:100ED000F4D429E00128F7D009480068A26A00F498
:100EE0008031914209D1E26A00F47011914204D13B
:100EF000216B00F44000884216D00120E4E7000096
:100F000008380240003802400438024000004742DE
:100F10003919000810000020040000203438024075
:100F200080064742007000400020CDE770B5040005
:100F300009D0606A002540B125616561A56294F819
:100F4000510040B10CE0012070BD6068B0F5827FB7
:100F5000F4D0E561F2E784F85050204600F03AF80A
:100F6000022084F851002068016821F040010160EE
:100F7000A088218900F4827001F404410843A1890A
:100F800001F400610843217C01F002010843217D46
:100F900001F001010843218B01F400710843217F16
:100FA00001F03801084394F8201001F08001084353
:100FB000218D01F40051084321680860A0690421D3
:100FC00001EA1040216848606565012084F85100FD
:100FD000002070BD10B586B0044614216846FFF7A6
:100FE000DDF813492068884220D11248016841F495
:100FF00080510160006800F4805005900D48001F8A
:10100000016841F0010101600068694600F00100DB
:101010000590E02000900220019000200290032023
:101020000390052004900448FFF7C4FA06B010BDF1
:101030000030014020380240000002404FF0E02123
:101040000428086903D020F004000861704740F0CC
:101050000400FAE710B5401EB0F1807F01D30120F3
:1010600010BD4FF0E02460610F21601700F0DEFB3F
:101070000020A06107202061002010BD7047000003
:1010800070B5026804461068D168536910F00F0FFC
:1010900053D003F0010501F490762E435FD0C207D0
:1010A00005D0CA0503D5E26B42F00102E2634207B4
:1010B00005D5DA0703D0E26B42F00202E263820751
:1010C00005D5DA0703D0E26B42F00402E2630207BF
:1010D00007D501F020022A4303D0E26B42F0080258
:1010E000E263E26B002A34D0800604D5880602D57C
:1010F000204600F04DFA20684069E16BC0F3801093
:1011000001F008010143204624D000F033FA2068A2
:10111000416949061AD5416921F040014161606B7E
:10112000A0B11B494163606BFFF71CFA002810D087
:10113000606B416BBDE87040084783060FD58B0696
:101140000DD52046BDE8704000F022BA2046FFF7DA
:1011500095FF70BDFFF792FF0020E06370BD0306AE
:1011600006D50B0604D52046BDE8704000F0EABA6B
:101170004006F3D54806F1D5D168204621F040015C
:10118000D160202184F8391000F0D2F870BD000041
:101190006515000870B5040004D094F839000025E6
:1011A00010B106E0012070BD84F83850204600F0F0
:1011B00023F8242084F839002068C16821F4005104
:1011C000C160204600F030FA2068016921F49041A6
:1011D00001612068416921F02A0141612068C168EC
:1011E00041F40051C160E563202084F8390084F89F
:1011F0003A00002070BD000010B586B004461421EE
:101200006846FEF7CBFF18492068884229D1174865
:10121000016841F480410160006800F4804005905D
:101220001248001F016841F0010101600068694631
:1012300000F0010005904FF4C06000900220019082
:101240000020029003200390072004900848FFF735
:10125000B1F9002211462520FFF7FCFA2520FFF7FF
:10126000EBFA06B010BD0000003801402038024003
:101270000000024070472DE9F843044690F8390019
:101280001F4616460D46202850D1B5B1AEB194F890
:10129000380001284AD0012084F838004FF00008B7
:1012A000C4F83C80212084F83900FFF767FAA6844F
:1012B0008146E68484F8388026E00120BDE8F88382
:1012C000E08C401EE084A0684B46B0F5805F4FF094
:1012D00000024FF080012046009703D000F063FA2F
:1012E000E8B90DE000F05FFAC8B928882168C0F3BA
:1012F00008004860206908B16D1C05E0AD1C03E0E2
:10130000216815F8010B4860E08C0028D8D14B46C5
:10131000002240212046009700F045FA08B1032042
:10132000CCE7202084F839000020C7E70220C5E779
:101330007047FEE73EB50024154800940194134918
:101340000294C0E900148460C46004614461846153
:10135000C461046280F824400125856280F82C4035
:101360001021C0E90D1480F83C40FEF7FBFF08B1E6
:10137000FEF752FF0095CDE9015469460448FEF797
:101380004DFF002801D0FEF747FF3EBD002401407D
:101390001800002030B587B014216846FEF7FEFE25
:1013A0000E48016841F00101016000680C4D00F039
:1013B00001004FF401440590002221462846FFF722
:1013C000D7F9012000210094CDE90101039169467C
:1013D0002846FFF7EFF807B030BD00001C38024088
:1013E00000000240104810B50E4901604FF48271B0
:1013F0004160002102228160C0E9031201224261A2
:101400005202C0E906210162416281620A21C16281
:10141000FFF78CFD002803D0BDE81040FEF7FCBEAE
:1014200010BD0000003001406C0000200C4810B5D9
:101430000A4901604FF4E1314160002181600C22D2
:10144000C160C0E904128161C161FFF7A3FE0028F9
:1014500003D0BDE81040FEF7DFBE10BD00380140EC
:10146000C4000020FEE770477047000038B51C49F3
:10147000002309681B4A11F0F00F23D118491C31D1
:101480000C68E500184C03D5216801F4C0540EE047
:101490000D6845F080550D600D6805F0805500958C
:1014A00024680D6804F4C05425F080550D60B4F52F
:1014B000C05F07D1B0F5404F04D11068012340F060
:1014C00004001060106820F00100184310601068DC
:1014D00000F00100984201D0012038BD002038BD45
:1014E00008380240003C0240007000407047FFF79F
:1014F0004BB9000010B592B034216846FEF74EFE9D
:1015000014210DA8FEF74AFE1148016821F4C051CC
:1015100041F400610160012103910220102100903B
:1015200000240491CDE909044005CDE90B4068464B
:10153000FFF7E8FA0F200D900320CDE90E04109478
:1015400001210DA81194FFF7B7F912B010BD0000EA
:101550000070004002494FF00060086070470000D2
:1015600008ED00E010B5406A0021C185C184FFF795
:1015700085FD10BD0168CA6822F49072CA600168D6
:101580004A6922F001024A61202180F83A1070472E
:1015900010B590F83A10222901D0022010BD8168C0
:1015A000B1F5805F11D00169002901681FD0496839
:1015B00001F07F03816A4A1C82620B70C18D491E53
:1015C0000904090CC18518D02BE00269816A002A40
:1015D0000268526805D0D2B20A80816A491C8162D1
:1015E000ECE7C2F308020A80816A891CF7E74A68BF
:1015F000816A4B1C83620A70E0E70168CA6822F0C6
:101600002002CA600168CA6822F48072CA60016858
:101610004A6922F001024A61202180F83A10FFF75E
:1016200029FE002010BD00002DE9F04104460068AD
:101630000169E26821F44051114301612169A06808
:10164000E26908436169114322680843D16849F29D
:101650000C6399430143D16020684169A26921F478
:1016600040711143416136492068884202D1FFF739
:1016700005FA01E0FFF7F2F90246E369642032213E
:10168000B3F5004F02EBC20303EB021362682BD0E9
:101690009200B3FBF2F5B5FBF0F5B3FBF2F66FF099
:1016A00018077D4306EB8505B3FBF2F601EB051544
:1016B000B5FBF0F5B6FBF0F605F0F00505EB061509
:1016C000B3FBF2F6B3FBF2F2B2FBF0F27A4306EBB5
:1016D000820201EB0211B1FBF0F000F00F00216873
:1016E00028448860BDE8F0815200B3FBF2F6B6FBF7
:1016F000F0F6B3FBF2F7B3FBF2F56FF0180C06FB54
:101700000CF607EB860601EBC606B5FBF0F5B6FB5B
:10171000F0F62D0106F0F80605EB4605B3FBF2F6F0
:10172000B3FBF2F2B2FBF0F202FB0CF206EB820228
:1017300001EBC201B1FBF0F000F00700CFE70000C1
:101740000038014090F83910212901D0022070475B
:101750008168B1F5805F016A0BD04A1C02620268A1
:1017600009785160C18C491E0904090CC1840ED04E
:1017700017E009880268C1F3080151600169002976
:10178000016A02D0491C0162ECE7891CFBE7016891
:10179000CA6822F08002CA600068C16841F0400156
:1017A000C160002070472DE9F041984617460E466B
:1017B0000446069D1DE0681C1BD02DB1FEF7DEFF20
:1017C000A0EB0800A84214D92068C16821F4D071A8
:1017D000C1602068416921F001014161202084F845
:1017E000390084F83A00002084F838000320BDE86E
:1017F000F0812068006836EA000004D00020B8427A
:10180000D9D00020F3E70120F9E700000148FFF7F5
:1018100037BC0000C4000020FEE70000014A024976
:1018200000F023B8D5180008140000200907090E9D
:10183000002804DB00F1E02080F80014704700F07D
:101840000F0000F1E02080F8141D704702E008C886
:10185000121F08C1002AFAD170477047002001E02A
:1018600001C1121F002AFBD170472DE9F041164635
:101870000F460446002503E03946B047641C6D1C42
:1018800020780028F8D12846BDE8F08110B504463C
:101890000420FFF7D3FB0148047010BD00000020B6
:1018A00070B54FF0E024002265690949A369097801
:1018B0004843A1699942FCD002D2A3EB010302E0A4
:1018C000A5EB010633441A440B468242F1D370BDA6
:1018D0000000002013B54FF6FF730122694602484D
:1018E000FFF7C9FC00981CBDC4000020FEF754FFA0
:1018F000FFF700FE1820FFF7C9FFFFF74BFDFFF7CA
:1019000019FDFFF76FFDFFF791FD044C2046FFF72F
:10191000C7FF03A0FFF782FFF8E7000040420F0077
:10192000756172742074657374210D0A00000000E3
:10193000030406080C10182030000000000000000E
:101940000001020304060708090000000001020369
:1019500004000000741900080000002018000000B6
:101960004C1800088C19000818000020F004000032
:101970005C180008000000001000000001000000DA
:0C1980000000000068FF1F0000000000D5
:04000005080000F5FA
:00000001FF
