:020000040800F2
:10000000E0110020090100085F13000841120008F8
:100010005D130008410200088D1B0008000000006D
:10002000000000000000000000000000411800086F
:100030004302000800000000691700084318000888
:100040002301000823010008230100082301000800
:1000500023010008230100082301000823010008F0
:1000600023010008230100082301000823010008E0
:1000700023010008230100082301000823010008D0
:1000800023010008230100082301000823010008C0
:10009000230100082301000823010008630200086F
:1000A00000000000230100082301000823010008CC
:1000B0002301000823010008230100082301000890
:1000C0002301000823010008230100082301000880
:1000D00023010008611B0008230100082301000818
:1000E000450200082301000823010008230100083D
:1000F00023010008DFF80CD000F090F8004800471A
:10010000011F0008E011002006488047064800470C
:10011000FEE7FEE7FEE7FEE7FEE7FEE7FEE7FEE7B7
:10012000FEE7FEE7A9180008F50000082DE9F05FDA
:100130000546002092469B46884606468146402456
:100140001BE0284641464746224600F057F85346F2
:100150005A46C01A914110D311461846224600F063
:100160003EF82D1A67EB01084F4622460120002178
:1001700000F035F817EB00094E41201EA4F10104F0
:10018000DFDC484631462A464346BDE8F09FD2B2FE
:1001900001E000F8012B491EFBD270470022F6E770
:1001A00010B513460A4604461946FFF7F0FF2046ED
:1001B00010BD30B50B46014600202022012409E085
:1001C00021FA02F59D4205D303FA02F5491B04FA10
:1001D00002F52844151EA2F10102F1DC30BD202AEF
:1001E00004DB203A00FA02F1002070479140C2F18E
:1001F000200320FA03F3194390407047202A04DBC0
:10020000203A21FA02F00021704721FA02F3D0408F
:10021000C2F120029140084319467047064C074D31
:1002200006E0E06840F0010394E8070098471034C6
:10023000AC42F6D3FFF762FF88210008A82100082E
:10024000FEE7704710B54FF4006000F097F84FF4E8
:10025000805000F093F8BDE810404FF4004000F0EB
:100260008DB84FF4807000F089B8704710B590F8E1
:1002700021100024022903D00421816301241AE003
:1002800001680A6822F00E020A6001680A6822F01A
:1002900001020A6090F84010C36B01F01C020121BA
:1002A00001FA02F25A6080F82110002180F8201033
:1002B000416B01B18847204610BD000010B50446CF
:1002C00001F072FD164AB4F5807F11D0B4F5006FCD
:1002D00019D0B4F5805F1CD0B4F5004F1FD19078D1
:1002E000401CC1B291700FA0BDE8104001F050BC9D
:1002F0001078401C10705078401C5070BDE81040C1
:100300000DA001F045BCD078401CC1B2D17011A045
:10031000EAE71079401CC1B2117113A0E4E710BDE7
:1003200071000020736574206B65792077616B65BF
:10033000757025640D0A0000504346383536332069
:10034000696E746572727570742077616B65757013
:100350000D0A2100616464206B65792077616B650B
:1003600075702025640D0A00646563206B65792033
:1003700077616B6575702025640D0A00044910B51E
:100380000A68024202D00860FFF798FF10BD000023
:10039000140401402DE9FC4FDFF894A1002301254E
:1003A0000AF1040B03244FF00F0C0BF1040EB8E01C
:1003B00005FA03F6324071D04F68012F05D0022FA5
:1003C00003D0112F01D0122F17D1D0F808905F0061
:1003D00004FA07F829EA08090097D1F80C8008FA0E
:1003E00007F848EA0908C0F808804768B7430E795B
:1003F000C6F300169E403E434660C6684FEA430877
:1004000004FA08F7BE4301978F6807FA08F73743E5
:10041000C7604E68022E01D0122E13D1DE0800EB09
:1004200086060096366A5F07FF0E0CFA07F926EA81
:100430000906D1F8109009FA07F949EA0609009E61
:10044000C6F820900768019EB7430E7906F00306B0
:1004500006FA08F63E4306604E68F60060D5354E53
:10046000376847F001073760366823F0030706F066
:1004700001060096304E3E44B146B6689F074FEAEB
:1004800017780CFA08F7BE432C4FB84201D1002769
:1004900015E02B4FB84202D1012710E040E0294F70
:1004A000B84201D102270AE0274FB84201D1032701
:1004B00005E0264FB84201D1042700E0052707FADE
:1004C00008F73743C9F80870DAF800705646D1F8D3
:1004D000048097435FEAC83800D517433760DBF8DC
:1004E00000605F46D1F8048096435FEA883800D503
:1004F00016433E60DEF800607746D1F804809643EC
:100500005FEAC82800D516433E60094F0C373E68A5
:10051000D1F8048096435FEA882800D516433E60F0
:100520005B1C0A6832FA03F67FF442AFBDE8FC8F29
:100530000004014020380240000001400000024059
:100540000004024000080240000C0240001002407B
:100550000069084000D0012070470AB181617047EE
:100560000904FBE70148806870470000580000203C
:100570000248816842681144816070475800002039
:1005800010B50024032000F079F8002000F008F8EE
:1005900008B1012401E000F025F8204610BD00005C
:1005A00070B50E4E05460024706898B14FF47A710C
:1005B000B1FBF0F00A490968B1FBF0F000F072FC01
:1005C00040B9102D06D200222946501E00F036F800
:1005D000356000E00124204670BD00005800002076
:1005E000640000200D4808B5016841F00041016039
:1005F000016801F000410091011F0A6842F0010208
:100600000A60096801F001010091016841F0805120
:100610000160006800F08050009008BD243802405E
:10062000002809DB00F01F020121914040098000F1
:1006300000F1E020C0F8001170470000F0B40E4B4C
:100640001B680C46C3F30223C3F10705042D00D930
:100650000425191D072901D2002300E0DB1E012615
:1006600006FA05F1491E214099409E40761E16402B
:100670003143F0BC01F09CBA0CED00E0064900F0FB
:10068000070208684FF6FF03184040EA0220034AB9
:1006900010430860704700000CED00E00000FA0510
:1006A0000120810291FAA1F1024AB1FA81F142F8E6
:1006B0002100704700000E420120410291FAA1F191
:1006C000024AB1FA81F142F82100704700000E425F
:1006D0000B4A136823F003030343136009480268BD
:1006E00042F004020260012907D040BF20BF20BFB2
:1006F000016821F004010160704730BFF8E7000095
:100700000070004010ED00E02DE9F0470E460500B6
:1007100079D0DFF88481D8F8000000F00100B04201
:1007200014D2012E05D1D8F8001041F00401C8F808
:100730000010D8F8001021F001013143C8F8001072
:10074000D8F8000000F00100B0425CD12878534C8A
:10075000800705D52068A96820F0F00008432060D4
:100760002878C0075CD04D496868083902281AD03B
:1007700003281BD0096801281BD08905002966DAE7
:10078000216821F0030101432160FFF7EBFE696856
:10079000074641F28830022914D0032920D00129CC
:1007A00081462AD038E009688903E7E709688901AA
:1007B000E4E78907E2E700BFFFF7D4FEC11B494524
:1007C00001D926E081462068C0F381000228F3D1D8
:1007D00026E000BFFFF7C6FEC11B494501D918E05E
:1007E00081462068C0F381000328F3D118E000BFE0
:1007F000FFF7B8FEC11B49450BD82068C0F3810044
:100800000128F5D10CE022E0FFF7ACFEC11B494501
:1008100002D90320BDE8F087206810F00C0FF3D157
:10082000D8F80010404601F00101B14211D9012E63
:1008300003D1016841F004010160016821F0010168
:1008400031430160006800F00100B04201D0012096
:10085000E0E72878400705D52068E96820F4E060E3
:10086000084320602878000706D52068296920F40D
:10087000605040EAC100206000F038F82168084A62
:10088000C1F30311515CC84006490860064800687E
:10089000BDE8F047FFF784BE003C02400838024044
:1008A0005121000864000020580000200448054938
:1008B00000680968044AC1F30221515CC8407047CE
:1008C00064000020083802406121000804480549FE
:1008D00000680968044AC1F3C221515CC8407047EE
:1008E00064000020083802406121000870B5154DF1
:1008F0002968154801F00C02042A0CD0134C082A70
:100900000AD00C2A0AD0281F0068C0F342314FF4E5
:100910000040491C884070BD204670BD0C4AC1F3A0
:100920008343D35CC1F381522968521CC90302D5A9
:10093000A3FB040101E0A3FB00010023FFF7F6FB8A
:1009400070BD0000083802400024F40000366E013B
:10095000482100082DE9F84F04007DD0FC480168CB
:10096000006801F00C0700F480362078F94DC007CC
:1009700041D0082F12D00C2F02D1B6F5803F0DD0F8
:100980006068012811D008B1052818D0286820F423
:1009900080302860286820F4802009E028688003DF
:1009A00029D560680028D8D025E0286840F4803038
:1009B0002860606890B1FFF7D5FD80460AE028689E
:1009C00040F480202860F0E7FFF7CCFDA0EB0800A2
:1009D00064287BD828688003F6D50CE0FFF7C2FDB9
:1009E000804605E0FFF7BEFDA0EB08006428F0D8C4
:1009F00028688003F6D42078DFF85CB3DFF85C83E6
:100A000080074FF001094FF0000A35D5042F0AD0B6
:100A10000C2F00D13EB1E068F8B1C8F80090FFF7A4
:100A2000A1FD06460BE0286880070BD5E068012889
:100A300012D107E0FFF796FD801B0228C9D828686D
:100A40008007F7D5DBF80010226921F4F85141EA5C
:100A50000221CBF800100FE077E1C8F800A0FFF703
:100A600081FD064605E000BFFFF77CFD801B0228E4
:100A7000AFD828688007F7D42078C00674D53FB176
:100A8000A069E0B3C8F82090FFF76CFD06464AE085
:100A90002868800502D5A069002884D0206ADBF888
:100AA00000105E4601F46041884210D900F05EFEFD
:100AB0000028BDD13068216A20F4604008433060CE
:100AC000217F306861F31F6030600FE096E031688D
:100AD00021F4604101433160217F306861F31F6080
:100AE0003060206A00F042FE0028A1D1216A4FF454
:100AF000004009EB513188409549096800E025E044
:100B0000974AC1F30311515CC84096490860964862
:100B10000068FFF745FD00286FD125E0FFF722FDB3
:100B2000801B02286AD828688005F7D5DBF80010FA
:100B3000226A21F460411143CBF80010227FDBF8D8
:100B4000001062F31F61CBF800100DE0C8F820A080
:100B5000FFF708FD064604E0FFF704FD801B0228AE
:100B60004CD828688005F7D42078804E000722D51D
:100B70007F48616981B1C0F80090FFF7F3FC8346BC
:100B800006E000BFFFF7EEFCA0EB0B00022835D813
:100B900030688007F6D50EE0C0F800A0FFF7E2FC51
:100BA000834605E0FFF7DEFCA0EB0B00022825D80A
:100BB00030688007F6D4207840076DD56B484FF039
:100BC000000B10380068C0000BD46848103801686A
:100BD00041F08051016000684FF0010B00F080503F
:100BE000009064480168C90514D4016841F480711B
:100BF0000160FFF7B7FC009008E08DE079E000BFEE
:100C0000FFF7B0FC0099401A642872D85948006870
:100C1000C005F5D5A06801280AD008B1052811D073
:100C2000306820F480703060306820F4806002E02A
:100C3000306840F480703060A068A8B1FFF792FC83
:100C400000900DE0306840F480603060F0E700BF55
:100C5000FFF788FC0099411A41F2883081425AD846
:100C600030688005F4D50EE0FFF77CFC009007E0CB
:100C7000FFF778FC0099411A41F2883081424AD846
:100C800030688005F4D4BBF1000F05D03748103828
:100C9000016821F080510160606A58B30C2F41D087
:100CA0000228504605D0C8F86000FFF75BFC0446F8
:100CB00034E04746C8F86000FFF754FC064604E0FD
:100CC000FFF750FC801B022825D828688001F7D444
:100CD000D4E90A1001431E48226B036823F47D0304
:100CE0001A4311430160C7F86090FFF73BFC0446CC
:100CF00007E010E040E000BFFFF734FC001B0228D3
:100D000009D828688001F7D536E000BFFFF72AFC34
:100D1000001B022802D90320BDE8F88F2868800153
:100D2000F4D429E00128F7D009480068A26A00F449
:100D30008031914209D1E26A00F47011914204D1EC
:100D4000216B00F44000884216D00120E4E7000047
:100D50000838024000380240043802400000474290
:100D6000512100086400002058000020343802405F
:100D700080064742007000400020CDE770B50400B7
:100D800009D0606A002540B125616561A56294F8CB
:100D9000510040B10CE0012070BD6068B0F5827F69
:100DA000F4D0E561F2E784F85050204600F03AF8BC
:100DB000022084F851002068016821F040010160A0
:100DC000A088218900F4827001F404410843A189BC
:100DD00001F400610843217C01F002010843217DF8
:100DE00001F001010843218B01F400710843217FC8
:100DF00001F03801084394F8201001F08001084305
:100E0000218D01F40051084321680860A069042184
:100E100001EA1040216848606565012084F85100AE
:100E2000002070BD10B586B0044614216846FFF757
:100E3000B5F913492068884220D11248016841F46D
:100E400080510160006800F4805005900D48001F3B
:100E5000016841F0010101600068694600F001008D
:100E60000590E020009002200190002002900320D5
:100E70000390052004900448FFF78CFA06B010BDDB
:100E80000030014020380240000002404FF0E021D5
:100E90000428086903D020F004000861704740F07E
:100EA0000400FAE710B5401EB0F1807F01D30120A5
:100EB00010BD4FF0E02460610F21601700F078FE54
:100EC0000020A06107202061002010BD704710F8AD
:100ED000391F40780843704770B5026804461068AF
:100EE000D168536910F00F0F53D003F0010501F4DE
:100EF00090762E435FD0C20705D0CA0503D5E26BBA
:100F000042F00102E263420705D5DA0703D0E26B43
:100F100042F00202E263820705D5DA0703D0E26BF2
:100F200042F00402E263020707D501F020022A43DF
:100F300003D0E26B42F00802E263E26B002A34D095
:100F4000800604D5880602D5204600F0CBFC206838
:100F50004069E16BC0F3801001F0080101432046B5
:100F600024D000F0B1FC2068416949061AD54169D6
:100F700021F040014161606BA0B11B494163606B8E
:100F8000FFF774F9002810D0606B416BBDE870402A
:100F9000084783060FD58B060DD52046BDE8704067
:100FA00000F0A0BC2046FFF791FF70BDFFF78EFF59
:100FB0000020E06370BD030606D50B0604D520466D
:100FC000BDE8704000F068BD4006F3D54806F1D595
:100FD000D168204621F04001D160202184F83910E9
:100FE00000F02DF970BD0000B918000870B50400BC
:100FF00004D094F83900002510B106E0012070BD3E
:1010000084F83850204600F023F8242084F8390072
:101010002068C16821F40051C160204600F0AEFC98
:101020002068016921F4904101612068416921F043
:101030002A0141612068C16841F40051C160E56343
:10104000202084F8390084F83A00002070BD0000A8
:1010500010B586B0044614216846FFF79FF818497A
:101060002068884229D11748016841F48041016015
:10107000006800F4804005901248001F016841F0AC
:10108000010101600068694600F0010005904FF41D
:10109000C060009002200190002002900320039085
:1010A000072004900848FFF775F900221146252013
:1010B000FFF7C4FA2520FFF7B3FA06B010BD000011
:1010C00000380140203802400000024090F83A30D9
:1010D000202B22D1F9B1F2B190F83830012B1CD07D
:1010E00081628285C2850021C163222280F83A2074
:1010F00080F838100168CA6842F48072CA600168DA
:101100004A6942F001024A610068C16841F0200169
:10111000C160002070470120704702207047000026
:1011200030B514490978002910D000681249884266
:101130000CD1124841680A0408D402464C041278C3
:101140004FF0000306D50A2A01D0436030BD41F4B8
:1011500000410CE00D2A08D0C1F30D04084D491CD4
:10116000C7292A554160F0D830BD41F48041416023
:1011700030BD000073000020003801401000002046
:10118000D40000202DE9F843044690F839001F46AA
:1011900016460D46202850D1B5B1AEB194F83800AE
:1011A00001284AD0012084F838004FF00008C4F824
:1011B0003C80212084F83900FFF7D4F9A6848146C9
:1011C000E68484F8388026E00120BDE8F883E08CCE
:1011D000401EE084A0684B46B0F5805F4FF00002EF
:1011E0004FF080012046009703D000F086FCE8B95C
:1011F0000DE000F082FCC8B928882168C0F308001F
:101200004860206908B16D1C05E0AD1C03E0216851
:1012100015F8010B4860E08C0028D8D14B4600221D
:1012200040212046009700F068FC08B10320CCE77D
:10123000202084F839000020C7E70220C5E7704766
:10124000FEE70000F0B587B014216846FEF7A6FF60
:101250001C48016841F001010160016801F00101D1
:101260000591016841F0020101600068164F00F02D
:1012700002000590002215213846FFF76EF901247F
:101280001520CDE90004002569463846CDE9024520
:10129000FFF780F80826CDE90065694638460295D3
:1012A000FFF778F8CDE90064CDE90245074C6946BF
:1012B0002046FFF76FF8012208212046FFF74DF97D
:1012C00007B0F0BD1C38024000000240000402409C
:1012D000104810B50E4901604FF482714160002141
:1012E00002228160C0E9031201224261520282613E
:1012F0002822C0E90721416281620A21C162FFF709
:101300003DFD002803D0BDE81040FEF7AEBF10BD84
:10131000003001407C0000200E4810B50C490160EF
:101320004FF4E1314160002181600C22C160C0E9CD
:1013300004128161C161FFF759FE08B1FEF795FF04
:10134000BDE81040012204490248FFF7BFBE00007B
:10135000003801409C01002010000020FEE770478B
:10136000124810B5016886B041F0020101600068C2
:101370000F4C00F0020005900098694640F0030011
:101380000090012001900290022003902046FFF778
:1013900001F8012211462046FFF7DFF80122022161
:1013A0002046FFF7DAF806B010BD00001C380240F6
:1013B000000402402DE9F0412D4C0746002520682D
:1013C00020F00C002060206820602E4600220121C1
:1013D0002046FFF7C2F8142000F00AFD0122114652
:1013E0002046FFF7BAF86806050E02212046FFF7EF
:1013F000AFF808B16D1CEDB2142000F0F9FC761CBA
:10140000F6B2082EE2D34FF000024FF00101204661
:101410000FB3FFF7A2F8206820F00C0020602068CE
:1014200040F004002060002202212046FFF795F8DA
:10143000142000F0DDFC012211462046FFF78DF854
:10144000142000F0D5FC002201212046FFF785F88A
:101450002846BDE8F081FFF780F8206820F00C00F6
:101460002060206840F0040020600122DCE70000DA
:101470000004024070B5194E05463046316821F02F
:101480000C013160316841F004013160002201211A
:10149000FFF763F80024280601D5012200E00022AE
:1014A00002213046FFF759F86806050E142000F0B7
:1014B0009FFC012211463046FFF74FF8142000F040
:1014C00097FC002201213046FFF747F8142000F076
:1014D0008FFC641CE4B2082CDDD370BD0004024014
:1014E00010B5124C206820F00C002060206840F0FD
:1014F00004002060012211462046FFF72EF8012249
:1015000002212046FFF729F8142000F071FC002288
:1015100002212046FFF721F8142000F069FC204644
:101520000022BDE810400121FFF717B80004024077
:1015300010B5124C206820F00C002060206840F0AC
:1015400004002060002201212046FFF706F8002257
:1015500002212046FFF701F8142000F049FC012287
:1015600011462046FEF7F9FF012202212046FEF730
:10157000F4FFBDE81040142000F03ABC0004024023
:1015800070B5174C0025206820F00C002060206802
:101590002060012202212046FEF7DFFF142000F028
:1015A00027FC012211462046FEF7D7FF142000F049
:1015B0001FFC07E06D1CEDB2FA2D03D9FFF7B8FF51
:1015C000012070BD02212046FEF7C2FF0028F1D1A4
:1015D000002201212046FEF7C0FF002070BD000060
:1015E0000004024010B50446FFF77AFFA220FFF77F
:1015F00041FFFFF7C5FFE0B2FFF73CFFFFF7C0FF79
:10160000FFF76EFFA320FFF735FFFFF7B9FF0020BC
:10161000FFF7D0FE0446FFF78BFF204610BD000009
:1016200070B505460820FFF7DDFF1C4C60700720F1
:10163000FFF7D8FF00F01F00A0700520FFF7D2FFD2
:1016400000F03F00E0700420FFF7CCFF00F03F0007
:1016500020710320FFF7C6FF00F07F0060710220B9
:10166000FFF7C0FF00F07F00A0710620FFF7BAFF70
:1016700000F00700E0710021625C100902F00F0227
:1016800000EB800002EB40006854491CC9B20729F6
:10169000F2D3E07900F00700E87170BD6900002026
:1016A00010B51121012000F00AF882210E2000F06F
:1016B00006F83C21BDE810400F20AFF3008070B564
:1016C0000D460446FFF70CFFA220FFF7D3FEFFF7FD
:1016D00057FF2046FFF7CEFEFFF752FF2846FFF7E1
:1016E000C9FEFFF74DFFFFF723FF142000F080FB3A
:1016F000002070BD70B500211A4C0A22455CB5FB74
:10170000F2F3B5FBF2F602FB165505EB0313635437
:10171000491CC9B20829F1D320210020FFF7CFFFCF
:1017200061780820FFF7CBFFA1780720FFF7C7FFFC
:10173000E1780520FFF7C3FF21790420FFF7BFFF01
:1017400061790320FFF7BBFFA1790220FFF7B7FF04
:10175000E1790620FFF7B3FFBDE87040002108469D
:10176000FFF7ADBF690000207047000038B51C4985
:10177000002309681B4A11F0F00F23D118491C31CE
:101780000C68E500184C03D5216801F4C0540EE044
:101790000D6845F080550D600D6805F08055009589
:1017A00024680D6804F4C05425F080550D60B4F52C
:1017B000C05F07D1B0F5404F04D11068012340F05D
:1017C00004001060106820F00100184310601068D9
:1017D00000F00100984201D0012038BD002038BD42
:1017E00008380240003C024000700040124810B52A
:1017F000016886B041F00201016000680F4C00F002
:10180000020005900098694640F003000090012016
:1018100001900290022003902046FEF7BBFD0122BA
:1018200011462046FEF799FE012202212046FEF7CE
:1018300094FE06B010BD00001C38024000040240B7
:101840007047FEF795BE000010B592B0342168468F
:10185000FEF7A4FC14210DA8FEF7A0FC11480168B6
:1018600021F4C05141F40061016001210391022083
:101870001021009000240491CDE909044005CDE930
:101880000B406846FFF766F80F200D900320CDE966
:101890000E04109401210DA81194FEF735FF12B02B
:1018A00010BD00000070004002494FF00060086069
:1018B0007047000008ED00E010B5406A0021C185C6
:1018C000C184FFF703FB10BD0168CA6822F490725F
:1018D000CA6001684A6922F001024A61202180F849
:1018E0003A10704710B590F83A10222901D0022022
:1018F00010BD8168B1F5805F11D0016900290168D0
:101900001FD0496801F07F03816A4A1C82620B7014
:10191000C18D491E0904090CC18518D02BE002694C
:10192000816A002A0268526805D0D2B20A80816AB0
:10193000491C8162ECE7C2F308020A80816A891CB3
:10194000F7E74A68816A4B1C83620A70E0E7016826
:10195000CA6822F02002CA600168CA6822F4807254
:10196000CA6001684A6922F001024A61202180F8B8
:101970003A10FFF7D5FB002010BD00002DE9F04123
:10198000044600680169E26821F440511143016195
:101990002169A068E269084361691143226808432C
:1019A000D16849F20C6399430143D16020684169D1
:1019B000A26921F44071114341613649206888428F
:1019C00002D1FEF783FF01E0FEF770FF0246E369F4
:1019D00064203221B3F5004F02EBC20303EB021384
:1019E00062682BD09200B3FBF2F5B5FBF0F5B3FBC8
:1019F000F2F66FF018077D4306EB8505B3FBF2F6B0
:101A000001EB0515B5FBF0F5B6FBF0F605F0F005BA
:101A100005EB0615B3FBF2F6B3FBF2F2B2FBF0F204
:101A20007A4306EB820201EB0211B1FBF0F000F009
:101A30000F00216828448860BDE8F0815200B3FBA4
:101A4000F2F6B6FBF0F6B3FBF2F7B3FBF2F56FF08C
:101A5000180C06FB0CF607EB860601EBC606B5FB79
:101A6000F0F5B6FBF0F62D0106F0F80605EB46059D
:101A7000B3FBF2F6B3FBF2F2B2FBF0F202FB0CF2B4
:101A800006EB820201EBC201B1FBF0F000F00700AF
:101A9000CFE700000038014090F83910212901D02B
:101AA000022070478168B1F5805F016A0BD04A1C43
:101AB0000262026809785160C18C491E0904090C50
:101AC000C1840ED017E009880268C1F30801516093
:101AD00001690029016A02D0491C0162ECE7891CF6
:101AE000FBE70168CA6822F08002CA600068C1682A
:101AF00041F04001C160002070472DE9F041984657
:101B000017460E460446069D1DE0681C1BD02DB1ED
:101B1000FEF728FDA0EB0800A84214D92068C16890
:101B200021F4D071C1602068416921F00101416157
:101B3000202084F8390084F83A00002084F8380026
:101B40000320BDE8F0812068006836EA000004D078
:101B50000020B842D9D00020F3E70120F9E70000C7
:101B600010B50848FFF7B8F90648FFF7B0F9202884
:101B7000FAD1012204490348FFF7A8FA0028F8D156
:101B800010BD00009C01002010000020FEE70000B6
:101B90000FB4054B10B503A9044A029800F028F8C9
:101BA00010BC5DF814FB0000611E000878000020E6
:101BB0000907090E002804DB00F1E02080F800147A
:101BC000704700F00F0000F1E02080F8141D70470E
:101BD00002E008C8121F08C1002AFAD170477047F6
:101BE000002001E001C1121F002AFBD17047000054
:101BF0002DE9FF4F8BB09A460F460546002606E0BA
:101C000025280BD052460D9990476D1C761C2878DC
:101C10000028F5D10FB03046BDE8F08F0024A04673
:101C20000122604900E0044315F8013F203B02FA1D
:101C300003F00842F7D128782E2817D115F8010FA4
:101C400044F004042A280ED06FF02F022878A0F167
:101C5000300109290AD808EB880102EB410100EBA9
:101C600001086D1CF2E757F8048B6D1C2878692871
:101C70003ED006DC0028CDD063280BD0642804D1E8
:101C800036E0732810D075284BD052460D999047F6
:101C9000761C85E017F8040B8DF8000000208DF805
:101CA0000100E946012003E057F8049B4FF0FF30A4
:101CB00061074FF0000401D40AE0641C44450DDACA
:101CC0008442FADB19F804100029F6D106E0641CFE
:101CD0008442FCDB19F804100029F8D1264404E002
:101CE00019F8010B52460D999047641EF8D257E03F
:101CF00001CF4FF00A0B002802DA40422D2102E00A
:101D0000210504D52B218DF82410012103E0E107E2
:101D100005D02021F7E70DF1200908910CE0002102
:101D2000F9E701CF4FF00A0BF9E75946FEF741FA00
:101D300001F1300209F8012D0028F6D1ADEB0900C0
:101D400000F1200B600701D44FF00108D84502DDF7
:101D5000A8EB0B0000E000208046002406E009A864
:101D60005246005D0D999047641C761C0898844289
:101D7000F5DB04E0302052460D999047761CB8F10F
:101D80000001A8F10108F5DC05E019F8010B524645
:101D90000D999047761CBBF10001ABF1010BF4DC0F
:101DA0006D1C34E7092801000B4810B5016841F0AB
:101DB00004010160FFF748FD182000F00FF8FFF75D
:101DC00041FAFFF785FAFFF711FD00F055F8BDE87D
:101DD0001040FFF7A1BA00000070004010B50446A3
:101DE0000420FFF753F80148047010BD680000207C
:101DF00070B54FF0E024002265690949A3690978AC
:101E00004843A1699942FCD002D2A3EB010302E04E
:101E1000A5EB010633441A440B468242F1D370BD50
:101E2000680000200C4808B5016841F0805101604D
:101E3000006800F080500090FEF73EFCFEF730FC9A
:101E40000648016841F0040101600121BDE8084035
:101E50000846FEF73DBC00002438024000700040F8
:101E600013B54FF6FF73012269460248FFF78AF95E
:101E700000981CBD9C01002010B586B01421684656
:101E8000FEF78CF91A48016841F001010160006811
:101E9000184C00F00100059000224FF4006120462C
:101EA000FEF75BFB0098694640F419400090124829
:101EB000019001200290022003902046FEF76AFA6A
:101EC000002211461720FEF7B9FB1720FEF7A8FBEA
:101ED000002211462820FEF7B1FB2820FEF7A0FBC8
:101EE000064900208870C870087106B010BD000057
:101EF0001C38024000000240000021107100002048
:101F00001FB5FEF73DFBFFF79FFC1820FFF766FFAC
:101F1000FFF798F9FFF7DCF9FFF7FEF9FFF766FC2A
:101F2000FFF71EFA3748FFF7E5FBFFF7B9FBFFF7AE
:101F3000A3FF35A0FFF72CFE324DDFF8D8B0DFF855
:101F4000D8A0364E083D4FF000090A245846FFF746
:101F50004FFF9AF800100A2907D38AF800904946E3
:101F600086F800902EA0FFF713FE307828B149467E
:101F700086F8009031A0FFF70BFE00F081F82148B1
:101F80000838FFF74DFBE878B0FBF4F104FB110CC7
:101F9000A978B0FBF4F7B1FBF4F0B1FBF4F304FB68
:101FA000101069788DE88110B1FBF4F204FB121275
:101FB000B1FBF4F128A0FFF7EBFDE879B0FBF4F1F9
:101FC00004FB1108A879B0FBF4F104FB110C69794A
:101FD000B0FBF4F7B1FBF4F0B1FBF4F304FB101029
:101FE0002979CDF80C80B1FBF4F204FB1212B1FB9D
:101FF000F4F18DE881101DA0FFF7CAFDFFF712FF75
:10200000A4E7000008000020496E697446696E73F9
:10201000680D0A0040420F0072000020710000208D
:102020005043463835363320696E74657272757068
:10203000742031306D696E2025642000504346388D
:1020400035363320696E7465727275707420316D27
:10205000696E202564200000256425642D256425F3
:10206000642D256425640D0A0000000025642564A4
:102070003A256425643A256425642C25640D0A00FC
:102080002DE9F047244D002001462A78002A3ED051
:10209000224B1A8814043AD5D4B2214A9946214BCE
:1020A000967B6FF02F07303EF6B201E00E2830D05D
:1020B00012F8008002EB000CA8F130089CF801C077
:1020C00008EB880807EB4808C44403F801C0491C22
:1020D000801CC0B2C9B20F28E8D31248FFF70AFB30
:1020E00011A0FFF755FD4FF47A7322460C491348AF
:1020F000FFF748F8114800680168C9434906FBD456
:102100000FA0FFF745FD0020A9F800002870BDE8EA
:10211000F0875E54DBE7000073000020140000200D
:10212000D40000202C0000200D0AC4FAB5C4CAB1A6
:10213000BCE4B8FCD0C2CEAA3A0D0A009C01002033
:102140000D0A0D0A00000000030406080C101820F8
:102150003000000000000000000102030406070830
:10216000090000000001020304000000D2BB0000CF
:10217000CBC40000C8D50000CEE50000C1F90000C6
:10218000C8FD0000B6FE0000A821000800000020E5
:102190007C000000D01B0008242200087C000020E6
:1021A00064110000E01B00080000000000000000B7
:1021B00014140C0F173B280300000000000000005F
:1021C000000000000000000000000000000000000F
:1021D00000000000000000000000000000000000FF
:1021E00000000000742100086C2100088421000810
:1021F0008021000870210008782100087C21000857
:1022000010000000010000000000000068FF1F0037
:1022100000000000000000000000000000000000BE
:0422200000000000BA
:04000005080000F5FA
:00000001FF
