:020000040800F2
:100000007031002009010008CF2200088F2100086C
:10001000CD22000849070008253C00080000000028
:10002000000000000000000000000000F938000897
:10003000F50700080000000049330008FB380008FD
:100040002301000823010008230100082301000800
:1000500023010008230100082301000823010008F0
:1000600023010008230100082301000823010008E0
:1000700023010008230100082301000823010008D0
:1000800023010008230100082301000823010008C0
:1000900023010008230100082301000823010008B0
:1000A00000000000230100082301000823010008CC
:1000B0002301000823010008230100082301000890
:1000C0002301000823010008230100082301000880
:1000D00023010008193C000823010008230100083F
:1000E0002301000823010008230100082301000860
:1000F00023010008DFF80CD000F014FB0048004793
:10010000F13E00087031002006488047064800474D
:10011000FEE7FEE7FEE7FEE7FEE7FEE7FEE7FEE7B7
:10012000FEE7FEE761390008F50000082DE9F05F01
:100130000546002092469B46884606468146402456
:100140001BE0284641464746224600F034FA534613
:100150005A46C01A914110D311461846224600F063
:100160001BFA2D1A67EB01084F4622460120002199
:1001700000F012FA17EB00094E41201EA4F1010411
:10018000DFDC484631462A464346BDE8F09FD2B2FE
:1001900001E000F8012B491EFBD270470022F6E770
:1001A00010B513460A4604461946FFF7F0FF2046ED
:1001B00010BD2DE9FE4F804681EA0300C00F0C46BA
:1001C000009021F0004123F00045B8EB0200A94166
:1001D00005D24046214690461C460B46024623F077
:1001E0000040104347D0270DC7F30A00C3F30A515C
:1001F0000290401A019040286BDAC3F3130040F4D8
:10020000801B0098924620B10023D2EB030A63EBD7
:100210000B0B01985946C0F14002504600F0BCF962
:1002200006460D4650465946019A00F0D4F910EBA7
:1002300008006141002487EA115284EAE7731A43F7
:1002400040D0009A62B3019A012A4FEA075215DCA6
:10025000001B61EB02014FF0004202EA0752CDE9B8
:100260000042001C41F5801132462B4600F00BFA8B
:1002700003B0BDE8F08F40462146F9E7001B61EB73
:100280000201001C41F5801300185B412018A2F503
:10029000001747EB030140EAD570B6196D4111E034
:1002A0006D084FEA360645EAC0754FEA0752001B53
:1002B00061EB0201001C41F5801149084FEA300052
:1002C0000019514132462B4603B0BDE8F04F00F013
:1002D000CBB90098012240000023D0EB020263EB6F
:1002E000E073009821464FEAE074B8EB000061EB40
:1002F0000401E9E783F000435BE781F0004158E740
:100300002DE9FE4F81EA030404F0004421F000418E
:1003100000944FF0000B23F0004350EA01045ED03C
:1003200052EA03045BD0C3F30A54C1F30A552C44C8
:10033000A4F2F3340194A0FB0254C1F3130141F47D
:100340008011C3F3130343F4801301FB024400FB49
:10035000034E840A970A44EA815447EA8357A4FB70
:10036000076802958D0A05FB07854FEA932C04FB6D
:100370000C542705029D4FEA065847EA1637B5EB9D
:1003800008056EEB070C870E920E47EA811742EACA
:100390008312A7FB0201B6EB0B0164EB00042B0DEB
:1003A00043EA0C335E1844EB1C50DA465146E7FB37
:1003B0000201C5F313044FEA0B3343EA14534FEA27
:1003C0000432019C43EA0603A4F10C040294009C4D
:1003D000CDE900B400F057F903B0BDE8F08F00207C
:1003E0000146F9E72DE9F04D81EA030404F0004BE2
:1003F00021F0004514464FF0000A23F0004150EA76
:10040000050220D054EA01021DD0C5F30A57024666
:10041000C5F31303C1F31300C1F30A5640F480156A
:1004200043F48013A7EB0608101BD64608F2FD38EC
:1004300073EB050002D308F1010801E092185B415B
:10044000B8F1000F03DA00200146BDE8F08D00206E
:100450004FF48011064684460EE0171B73EB050728
:1004600005D3121B63EB050306434CEA010C490854
:100470004FEA300092185B4150EA0107EDD152EA91
:10048000030012D082EA040083EA0501084305D084
:10049000101BAB4106D20122002306E000224FF0E0
:1004A000004302E06FF0010253101AEB06004CEB20
:1004B000085110EB0A0041EB0B01BDE8F04D00F0D4
:1004C000D3B80EB540F2334102910021CDE90011BD
:1004D0000A460B4600F0D7F803B000BDC1F30A523C
:1004E00010B5C1F3130140F2FF3341F480119A4279
:1004F00001DA002010BD40F233439A42A2F23342A7
:1005000003DC524200F057F810BD904010BD00F0DF
:10051000004230F000400AD0C10D01F56071C0F317
:10052000160042EA0151C2084007114370470020FB
:100530000146704701F0004330B421F0004150EA19
:10054000010206D00A0DA2F56072C1F31301002A60
:1005500002DC30BC00207047440F44EAC104C100F3
:10056000E01830BC00EBC25000F047B830B50B4685
:10057000014600202022012409E021FA02F59D42D3
:1005800005D303FA02F5491B04FA02F52844151EA7
:10059000A2F10102F1DC30BD202A04DB203A00FA8E
:1005A00002F1002070479140C2F1200320FA03F3CA
:1005B000194390407047202A04DB203A21FA02F0C8
:1005C0000021704721FA02F3D040C2F1200291408D
:1005D000084319467047202A06DBCB17203A41FA18
:1005E00002F043EAE07306E041FA02F3D040C2F1C0
:1005F000200291400843194670470029A8BF704760
:10060000401C490008BF20F00100704710B4B0FA48
:1006100080FC00FA0CF050EA010404BF10BC7047E3
:1006200049B1CCF1200421FA04F411FA0CF118BFFD
:10063000012121430843A3EB0C01CB1D4FEA0061CC
:100640004FEA102042BF002010BC704700EBC3509F
:1006500010440029A4BF10BC7047401C490008BFCB
:1006600020F0010010BC704710B5141E73F1000497
:1006700008DA401C41F1000192185B411A4301D194
:1006800020F0010010BD2DE9F04D92469B4611B1BE
:10069000B1FA81F202E0B0FA80F220329046FFF720
:1006A0007BFF04460F4640EA0A0041EA0B0153462D
:1006B0005A46084313D0114653EA010019D0C8F135
:1006C00040025046FFF777FF05460E465046594612
:1006D0004246FFF761FF084305D0012004E02046B1
:1006E0003946BDE8F08D0020054346EAE0762C430C
:1006F00037430A986305E40AA0EB08000022FD0ACC
:1007000044EA47540A3002D500200146E9E70105D2
:1007100010196941DDE9084500196941BDE8F04D4E
:10072000A2E70000064C074D06E0E06840F0010338
:1007300094E8070098471034AC42F6D3FFF7DEFC8C
:100740006083000880830008FEE7F0B5FF230024E3
:1007500031260FE0055D6B4008251F0602D586EAAD
:10076000430300E05B006D1EDBB215F0FF05F4D122
:10077000641CE4B28C42EDD3934201D10120F0BD60
:100780000020F0BD10B5094C00220121204600F0E8
:100790006CFE00221021204600F067FE2046002259
:1007A000BDE81040042100F060BE000000000240DF
:1007B00010B5094C00220121204600F056FE00220F
:1007C0001021204600F051FE01220421204600F0B5
:1007D0004CFE002010BD00000000024001B54FF4A7
:1007E0007A7301226946024801F0A4FA08BD0000AC
:1007F000BC00002070472DE9F041FA2700211026A7
:100800003B467A22084600F053F900242146002096
:1008100000F038F9242000F001F90025FF2000F055
:1008200017F96D1CADB2B542F8D3641CA4B2BC423A
:10083000ECD3BDE8F04100F068B900002DE9F047C5
:1008400081464FF0FA080021102743467A220846D5
:1008500000F02EF900242146002000F013F9242096
:1008600000F0DCF8002504FB07F600BF09EB0500EB
:10087000305C00F0EDF86D1CADB2BD42F6D3641CE7
:10088000A4B24445E7D3BDE8F04700F03EB900000C
:1008900070B5384D044601220421284600F0E5FDDC
:1008A000C82000F0EDFC00220421284600F0DDFD08
:1008B000022000F0E5FC01220421284600F0D5FDCD
:1008C000C82000F0DDFC012000F0A8F8F92000F0BD
:1008D000BFF8002000F0BCF8002000F0B9F80C20B0
:1008E00000F09CF8D72000F0B3F8D62000F0B0F864
:1008F0009D2000F0ADF82C2000F090F8A82000F02A
:10090000A7F83A2000F08AF81A2000F0A1F83B205E
:1009100000F084F8082000F09BF83C2000F07EF8FE
:10092000032000F095F8112000F078F8032000F083
:100930008FF8322000F072F834B1012C0ED0BDE8EF
:1009400070400DA003F070B91A4D0024285D00F02E
:100950007FF8641CA4B21E2CF8D370BD154D002482
:100960001E35285D00F074F8641CA4B21E2CF8D368
:1009700070BD00000000024044656275673A206562
:1009800072726F722C20746865204D6F64652069E7
:1009900073204550445F32494E31335F46554C4CCD
:1009A000206F72204550445F32494E31335F5041D1
:1009B00052540000E940000810B509A003F034F9D2
:1009C0000D4C02E0642000F05BFC0821204600F0A2
:1009D00047FD0128F6D0BDE8104008A003F024B977
:1009E00044656275673A20652D50617065722062BA
:1009F0007573790D0A0000000000024044656275BD
:100A0000673A20652D506170657220627573792098
:100A100072656C656173650D0A00000070B50B4C62
:100A2000054600220121204600F01FFD0022102172
:100A3000204600F01AFD2846FFF7D0FE2046BDE80C
:100A400070400122102100F010BD000000000240A3
:100A500070B50B4C054601221146204600F005FDFD
:100A600000221021204600F000FD2846FFF7B6FEC8
:100A70002046BDE870400122102100F0F6BC0000C5
:100A80000000024070B505460C464E20FFF7C6FF39
:100A9000C5F3C700FFF7DCFF4F20FFF7BFFFE0B251
:100AA000FFF7D6FFC4F30720BDE87040FFF7D0BFC3
:100AB0002DE9F04107461C4616460D464420FFF737
:100AC000ADFFC7F3C700FFF7C3FFC6F3C700FFF7CB
:100AD000BFFF4520FFF7A2FFE8B2FFF7B9FFC5F35C
:100AE0000720FFF7B5FFE0B2FFF7B2FFC4F307201E
:100AF000BDE8F041FFF7ACBF10B51020FFF78EFF47
:100B0000BDE810400120FFF7A3BF10B52220FFF77A
:100B100085FFC420FFF79CFF2020FFF77FFFFF2009
:100B2000FFF77CFFBDE81040FFF746BF2DE9F0431B
:100B300085B0A0A003F078F8FFF73AFEA3A003F079
:100B400073F80020FFF7A4FEFFF755FE4FF4FA7983
:100B5000484600F095FB4FF47A6003F07FFA5FEAB5
:100B600000087DD0A0A003F05FF8FF264FF4877344
:100B7000FA227A214046009602F034FB9FA003F04F
:100B800053F8404602F04CFBFF2001F099FDA148CC
:100B900001F0E8FD4046FFF751FE4FF4FA67384692
:100BA00000F06EFB9CA003F03FF8404602F038FBDB
:100BB000FF2001F085FD0124234600220A210520A3
:100BC000009402F05FF8022300221921052000940E
:100BD00002F058F80323002228210520009402F097
:100BE00051F80423002237210520009402F04AF82E
:100BF0000025CDE900543C2346220A211420029509
:100C000001F050FFCDE900543C2314220A21462074
:100C1000029501F047FFCDE900543C2346220A210A
:100C20001420029502F0D0F8CDE900543C2387222D
:100C30000A215520029402F0C7F8CDE900542D2274
:100C400037230F211046029401F02CFFCDE9005408
:100C50002323462219461920029401F023FF00E0C5
:100C600053E00023142223212D20CDE9004501F07B
:100C70000BFE0094FF23142223216E20019401F027
:100C800003FECDE90056674B67A20F218C2002F0CE
:100C9000D5F9CDE90056634B664A28218C2001F036
:100CA00087FFCDE90056644B64A23C218C2002F002
:100CB000FBF8CDE90065634B63A24121052002F0FA
:100CC000F3F84046FFF7BAFD384600F0D9FA61A0C4
:100CD00002F0AAFF0120FFF7DBFD404602F0A0FA78
:100CE0000C208DF8100022208DF8110038205E4F66
:100CF0008DF81200142400BF9DF81200401CC0B2F1
:100D00008DF812003C2808D01DE058A002F08CFF9E
:100D10004FF0FF3005B0BDE8F0839DF81100401C96
:100D2000C0B28DF811008DF812503C280BD19DF8FF
:100D30001000401CC0B28DF810008DF8115018281A
:100D400001D18DF810500096F8885A215A3083B29C
:100D5000B888C0EBC0008C3082B28C2001F0E8FC77
:100D6000CDE90065404B03AA5A218C2002F0A4F97A
:100D7000641E14F0FF0406D04046FFF75FFD4846AE
:100D800000F07EFAB8E743A002F04EFF0020FFF724
:100D90007FFDFFF730FD42A002F046FFFFF7ACFEFB
:100DA000404603F07DF842A002F03EFFFFF7EAFC68
:100DB0000020AFE74550445F32494E31335F7465E0
:100DC00073742044656D6F0D0A000000652D50613D
:100DD00070657220496E697420616E6420436C6591
:100DE00061722E2E2E0D0A005061696E745F4E6581
:100DF00077496D6167650D0A0000000073686F77C1
:100E000020696D61676520666F7220617272617919
:100E10000D0A00003573000844726177696E670D32
:100E20000A000000400000207761766573686172F7
:100E30006500000015CD5B0734000020C4E3BAC391
:100E40006162630050000020CEA2D1A9B5E7D7D3DC
:100E5000000000005061727469616C2072656672F6
:100E60006573680D0A000000480000204661696C47
:100E7000656420746F206170706C7920666F7220D9
:100E8000626C61636B206D656D6F72792E2E2E0D15
:100E90000A000000436C6561722E2E2E0D0A0000C0
:100EA000476F746F20536C6565702E2E2E0D0A00EF
:100EB000636C6F73652035562C204D6F64756C65BF
:100EC00020656E74657273203020706F77657220B4
:100ED000636F6E73756D7074696F6E202E2E2E0D9C
:100EE0000A00000070470000F8B50024009490F854
:100EF00048202546012A12D0012280F848204A685D
:100F00001F23072A0DD20668376C521E02EB82029D
:100F100093409F430B6893401F43376435E00220A2
:100F2000F8BD0D2A0BD20768FE6BD21F02EB8202BE
:100F300093409E430B6893401E43FE6325E0132AB3
:100F40000BD20668B76B0D3A02EB820293409F43C7
:100F50000B6893401F43B76317E00668192A0AD24B
:100F6000776B133A02EB820293409F430B689340E6
:100F70001F43776309E0376B193A02EB8202934013
:100F80009F430B6893401F4337630A6807230A2A6D
:100F90000AD20668776902EB420293409F438B684E
:100FA00093401F4377611CE0142A0BD207683E6907
:100FB0000A3A02EB420293409E438B6893401E43E1
:100FC0003E610EE01A2A0BD80768FE68143A02EB5D
:100FD000420293409E438B6893401E43FE6000E0B4
:100FE00000BF0A68102A01D0112A17D10D4A1368D0
:100FF0001B0213D4136843F400031360096810291B
:101000000CD10949094A0968B1FBF2F101EB8101F0
:10101000490000E0491E00910029FBD180F84850AA
:101020002046F8BD042701401C00002040420F006C
:10103000F8B504004FF0000503D0E06C002610B1B5
:1010400010E00120F8BD26655C4884F8486001681E
:1010500041F001010160006800F0010000902046AD
:1010600000F0B6F8E06CC0067AD4E06C20F488504A
:1010700040F00200E06452480168626821F44031A7
:10108000114301606169E0684FF40073084394F80C
:101090003C2093FAA3F3B3FA83F3216A9A401143F5
:1010A0000843022194F8242091FAA1F1B1FA81F1C8
:1010B00002FA01F10843616B102902D0A36B1943B6
:1010C0000843236819684FF48077C943490629D536
:1010D000A169D4F81CC00843A168D4F810E041EA23
:1010E0000C01BE450CD0BEF1010F09D04FF0000C31
:1010F00041EA0C0194F82CC0BCF1010F02D00AE0C7
:10110000BC46F5E76AB3E26C42F02002E264226D6D
:1011100042F0010222655A68DFF8A8C002EA0C0218
:101120000A435A6021688A68274B1A4002438A6042
:101130002169B94224D0012922D021680A6B22F00A
:10114000F8720A6321688968204A1140814227D1D8
:101150002665E06C20F0020040F00100E0642AE027
:1011600028E0FFE74FF4604C226B9CFAACFCBCFA21
:101170008CFC521E02FA0CF20A4342F40061CAE7E8
:1011800021680A6B4FF0F87722F0F873A26A97FA99
:10119000A7F7B7FA87F7521EBA4013430B63D1E79C
:1011A000E06C20F0020040F01000E064206D40F0A0
:1011B0000100206501252846F8BD000020380240C6
:1011C00004270140FF16FCFC8DF1FFC0FEFF80BF2D
:1011D00010B586B0044614216846FEF7DFFF1149BA
:1011E000206888421CD11048016841F400710160F8
:1011F000006800F4007005900B48001F016841F082
:10120000010101600068694600F0010005900220BC
:1012100000900320019000200290044800F042F862
:1012200006B010BD002401402038024000000240FA
:1012300010B590F821100024022903D00421816305
:1012400001241AE001680A6822F00E020A600168AF
:101250000A6822F001020A6090F84010C36B01F0A6
:101260001C02012101FA02F25A6080F821100021CB
:1012700080F82010416B01B18847204610BD000066
:1012800070B5044600F0F6F80546601C02D004482C
:101290004068044400F0EEF8401BA042FAD370BD51
:1012A000100000202DE9FC4FDFF894A10023012558
:1012B0000AF1040B03244FF00F0C0BF1040EB8E0FD
:1012C00005FA03F6324071D04F68012F05D0022F86
:1012D00003D0112F01D0122F17D1D0F808905F0042
:1012E00004FA07F829EA08090097D1F80C8008FAEF
:1012F00007F848EA0908C0F808804768B7430E793C
:10130000C6F300169E403E434660C6684FEA430857
:1013100004FA08F7BE4301978F6807FA08F73743C6
:10132000C7604E68022E01D0122E13D1DE0800EBEA
:1013300086060096366A5F07FF0E0CFA07F926EA62
:101340000906D1F8109009FA07F949EA0609009E42
:10135000C6F820900768019EB7430E7906F0030691
:1013600006FA08F63E4306604E68F60060D5354E34
:10137000376847F001073760366823F0030706F047
:1013800001060096304E3E44B146B6689F074FEACC
:1013900017780CFA08F7BE432C4FB84201D100274A
:1013A00015E02B4FB84202D1012710E040E0294F51
:1013B000B84201D102270AE0274FB84201D10327E2
:1013C00005E0264FB84201D1042700E0052707FABF
:1013D00008F73743C9F80870DAF800705646D1F8B4
:1013E000048097435FEAC83800D517433760DBF8BD
:1013F00000605F46D1F8048096435FEA883800D5E4
:1014000016433E60DEF800607746D1F804809643CC
:101410005FEAC82800D516433E60094F0C373E6886
:10142000D1F8048096435FEA882800D516433E60D1
:101430005B1C0A6832FA03F67FF442AFBDE8FC8F0A
:10144000000401402038024000000140000002403A
:101450000004024000080240000C0240001002405C
:101460000069084000D0012070470AB181617047CF
:101470000904FBE701488068704700001000002065
:101480000248816842681144816070471000002062
:1014900010B50024032000F079F8002000F008F8CF
:1014A00008B1012401E000F025F8204610BD00003D
:1014B00070B50E4E05460024706898B14FF47A71ED
:1014C000B1FBF0F00A490968B1FBF0F000F0F1FC63
:1014D00040B9102D06D200222946501E00F036F8E1
:1014E000356000E00124204670BD0000100000209F
:1014F0001C0000200D4808B5016841F00041016062
:10150000016801F000410091011F0A6842F00102E8
:101510000A60096801F001010091016841F0805101
:101520000160006800F08050009008BD243802403F
:10153000002809DB00F01F020121914040098000D2
:1015400000F1E020C0F8001170470000F0B40E4B2D
:101550001B680C46C3F30223C3F10705042D00D911
:101560000425191D072901D2002300E0DB1E0126F6
:1015700006FA05F1491E214099409E40761E16400C
:101580003143F0BC02F060BB0CED00E0064900F016
:10159000070208684FF6FF03184040EA0220034A9A
:1015A00010430860704700000CED00E00000FA05F1
:1015B0002DE9F0470E46050079D0DFF88481D8F890
:1015C000000000F00100B04214D2012E05D1D8F87D
:1015D000001041F00401C8F80010D8F8001021F004
:1015E00001013143C8F80010D8F8000000F00100F4
:1015F000B0425CD12878534C800705D52068A96893
:1016000020F0F000084320602878C0075CD04D49E6
:101610006868083902281AD003281BD009680128F5
:101620001BD08905002966DA216821F003010143F6
:101630002160FFF71FFF6968074641F288300229E1
:1016400014D0032920D0012981462AD038E0096826
:101650008903E7E709688901E4E78907E2E700BF52
:10166000FFF708FFC11B494501D926E081462068E4
:10167000C0F381000228F3D126E000BFFFF7FAFE95
:10168000C11B494501D918E081462068C0F381009B
:101690000328F3D118E000BFFFF7ECFEC11B49455A
:1016A0000BD82068C0F381000128F5D10CE022E0BE
:1016B000FFF7E0FEC11B494502D90320BDE8F087D2
:1016C000206810F00C0FF3D1D8F80010404601F05C
:1016D0000101B14211D9012E03D1016841F0040189
:1016E0000160016821F0010131430160006800F0F0
:1016F0000100B04201D00120E0E72878400705D57D
:101700002068E96820F4E06008432060287800073A
:1017100006D52068296920F4605040EAC1002060A5
:1017200000F038F82168084AC1F30311515CC84041
:101730000649086006480068BDE8F047FFF7B8BEF4
:10174000003C024008380240D14000081C00002044
:10175000100000200448054900680968044AC1F3E4
:101760000221515CC84070471C000020083802402C
:10177000E14000080448054900680968044AC1F3CB
:10178000C221515CC84070471C000020083802404C
:10179000E140000870B5154D2968154801F00C02AC
:1017A000042A0CD0134C082A0AD00C2A0AD0281F6D
:1017B0000068C0F342314FF40040491C884070BDBE
:1017C000204670BD0C4AC1F38343D35CC1F3815200
:1017D0002968521CC90302D5A3FB040101E0A3FB45
:1017E00000010023FEF7A2FC70BD00000838024093
:1017F0000024F40000366E01C84000082DE9F84FBF
:1018000004007DD0FC480168006801F00C0700F47A
:1018100080362078F94DC00741D0082F12D00C2F08
:1018200002D1B6F5803F0DD06068012811D008B113
:10183000052818D0286820F480302860286820F413
:10184000802009E02868800329D560680028D8D066
:1018500025E0286840F480302860606890B1FFF788
:1018600009FE80460AE0286840F480202860F0E7FE
:10187000FFF700FEA0EB080064287BD828688003EF
:10188000F6D50CE0FFF7F6FD804605E0FFF7F2FD28
:10189000A0EB08006428F0D828688003F6D42078EC
:1018A000DFF85CB3DFF85C8380074FF001094FF08D
:1018B000000A35D5042F0AD00C2F00D13EB1E068C4
:1018C000F8B1C8F80090FFF7D5FD06460BE0286890
:1018D00080070BD5E068012812D107E0FFF7CAFDA9
:1018E000801B0228C9D828688007F7D5DBF80010CC
:1018F000226921F4F85141EA0221CBF800100FE0EF
:1019000077E1C8F800A0FFF7B5FD064605E000BF87
:10191000FFF7B0FD801B0228AFD828688007F7D4F6
:101920002078C00674D53FB1A069E0B3C8F8209014
:10193000FFF7A0FD06464AE02868800502D5A069A9
:10194000002884D0206ADBF800105E4601F4604174
:10195000884210D901F0FAFC0028BDD13068216A14
:1019600020F4604008433060217F306861F31F60DD
:1019700030600FE096E0316821F46041014331604E
:10198000217F306861F31F603060206A01F0DEFC67
:101990000028A1D1216A4FF4004009EB5131884061
:1019A0009549096800E025E0974AC1F30311515CAD
:1019B000C8409649086096480068FFF779FD0028FE
:1019C0006FD125E0FFF756FD801B02286AD82868F2
:1019D0008005F7D5DBF80010226A21F4604111433D
:1019E000CBF80010227FDBF8001062F31F61CBF808
:1019F00000100DE0C8F820A0FFF73CFD064604E00B
:101A0000FFF738FD801B02284CD828688005F7D4E2
:101A10002078804E000722D57F48616981B1C0F8E7
:101A20000090FFF727FD834606E000BFFFF722FD89
:101A3000A0EB0B00022835D830688007F6D50EE001
:101A4000C0F800A0FFF716FD834605E0FFF712FD82
:101A5000A0EB0B00022825D830688007F6D4207848
:101A600040076DD56B484FF0000B10380068C00080
:101A70000BD468481038016841F08051016000685B
:101A80004FF0010B00F08050009064480168C905D8
:101A900014D4016841F480710160FFF7EBFC009001
:101AA00008E08DE079E000BFFFF7E4FC0099401A00
:101AB000642872D859480068C005F5D5A068012887
:101AC0000AD008B1052811D0306820F48070306049
:101AD000306820F4806002E0306840F4807030604C
:101AE000A068A8B1FFF7C6FC00900DE0306840F494
:101AF00080603060F0E700BFFFF7BCFC0099411A3E
:101B000041F2883081425AD830688005F4D50EE021
:101B1000FFF7B0FC009007E0FFF7ACFC0099411A1A
:101B200041F2883081424AD830688005F4D4BBF154
:101B3000000F05D037481038016821F0805101604E
:101B4000606A58B30C2F41D00228504605D0C8F81F
:101B50006000FFF78FFC044634E04746C8F8600099
:101B6000FFF788FC064604E0FFF784FC801B022890
:101B700025D828688001F7D4D4E90A1001431E480B
:101B8000226B036823F47D031A4311430160C7F8F5
:101B90006090FFF76FFC044607E010E040E000BFF4
:101BA000FFF768FC001B022809D828688001F7D5D8
:101BB00036E000BFFFF75EFC001B022802D90320BD
:101BC000BDE8F88F28688001F4D429E00128F7D017
:101BD00009480068A26A00F48031914209D1E26AA2
:101BE00000F47011914204D1216B00F4400088424E
:101BF00016D00120E4E70000083802400038024017
:101C00000438024000004742D14000081C00002078
:101C10001000002034380240800647420070004027
:101C20000020CDE770B5040009D0606A002540B1FE
:101C300025616561A56294F8510040B10CE0012076
:101C400070BD6068B0F5827FF4D0E561F2E784F89A
:101C50005050204600F03AF8022084F851002068E5
:101C6000016821F040010160A088218900F48270A0
:101C700001F404410843A18901F400610843217C77
:101C800001F002010843217D01F001010843218B8D
:101C900001F400710843217F01F03801084394F8F2
:101CA000201001F080010843218D01F40051084308
:101CB00021680860A069042101EA10402168486099
:101CC0006565012084F85100002070BD10B586B014
:101CD000044614216846FEF761FA134920688842D9
:101CE00020D11248016841F480510160006800F47D
:101CF000805005900D48001F016841F0010101600E
:101D00000068694600F001000590E0200090022084
:101D100001900020029003200390052004900448C5
:101D2000FFF7C0FA06B010BD003001402038024075
:101D3000000002402DE9F84F044690F850000027BB
:101D40001D461646894601280DD04FF0010B84F838
:101D500050B0FFF78FFB804694F85100BA46012837
:101D600004D0022793E00220BDE8F88FB9F1000FFC
:101D700073D0002E71D0032084F85100C4F854A011
:101D8000C4F83090A686E686C4F838A0A4F83CA033
:101D9000A4F83EA0C4F844A0C4F840A0A068B0F5E0
:101DA000004F09D12068016821F0400101602068DE
:101DB000016841F48041016020680168490603D44C
:101DC000016841F040010160E068B0F5006F6068B3
:101DD00003D030B3012E24D041E008B1012E1CD134
:101DE000206B21680088C86006E020688168890748
:101DF00009D5216B0988C160206B801C2063E08EAF
:101E0000401EE08609E0FFF735FBA0EB0800A84282
:101E100002D3681C01D031E07DB3E08E0028E4D10C
:101E200020E0206B21680078087306E02068816854
:101E3000890709D5216B09780173206B401C206349
:101E4000E08E401EE0860AE0FFF714FBA0EB0800DE
:101E5000A84203D3681C02D010E017E06DB1E08EF9
:101E60000028E3D142462946204601F0BDFC08B1D6
:101E700020206065A06818B106E0FFE7032706E0B0
:101E80002068C16880680090606D00B1012784F807
:101E900051B084F850A0384666E74FF0E02104289E
:101EA000086903D020F004000861704740F0040086
:101EB000FAE710B5401EB0F1807F01D3012010BDBC
:101EC0004FF0E02460610F21601701F0BDFE00209B
:101ED000A06107202061002010BD704770B5026826
:101EE00004461068D168536910F00F0F53D003F007
:101EF000010501F490762E435FD0C20705D0CA05D4
:101F000003D5E26B42F00102E263420705D5DA072E
:101F100003D0E26B42F00202E263820705D5DA07E2
:101F200003D0E26B42F00402E263020707D501F03E
:101F300020022A4303D0E26B42F00802E263E26B24
:101F4000002A34D0800604D5880602D5204601F048
:101F500025FD20684069E16BC0F3801001F00801A5
:101F60000143204624D001F00BFD20684169490659
:101F70001AD5416921F040014161606BA0B11B4954
:101F80004163606BFFF754F9002810D0606B416B20
:101F9000BDE87040084783060FD58B060DD5204657
:101FA000BDE8704001F0FABC2046FFF796FF70BD17
:101FB000FFF793FF0020E06370BD030606D50B0614
:101FC00004D52046BDE8704001F0C2BD4006F3D5FF
:101FD0004806F1D5D168204621F04001D16020218A
:101FE00084F8391000F0D2F870BD00007139000893
:101FF00070B5040004D094F83900002510B106E053
:10200000012070BD84F83850204600F023F82420C9
:1020100084F839002068C16821F40051C16020466D
:1020200001F008FD2068016921F4904101612068F8
:10203000416921F02A0141612068C16841F40051E1
:10204000C160E563202084F8390084F83A0000205C
:1020500070BD000010B586B0044614216846FEF736
:102060009DF818492068884229D11748016841F431
:1020700080410160006800F4804005901248001F14
:10208000016841F0010101600068694600F001004B
:1020900005904FF4C0600090022001900020029053
:1020A00003200390072004900848FFF7FBF8002264
:1020B00011462520FFF74AFA2520FFF739FA06B026
:1020C00010BD0000003801402038024000000240EE
:1020D00070472DE9F843044690F839001F4616462C
:1020E0000D46202850D1B5B1AEB194F83800012882
:1020F0004AD0012084F838004FF00008C4F83C8032
:10210000212084F83900FFF7B5F9A6848146E684DA
:1021100084F8388026E00120BDE8F883E08C401E7A
:10212000E084A0684B46B0F5805F4FF000024FF0AE
:1021300080012046009703D001F03BFDE8B90DE097
:1021400001F037FDC8B928882168C0F3080048604D
:10215000206908B16D1C05E0AD1C03E0216815F88D
:10216000010B4860E08C0028D8D14B46002240216A
:102170002046009701F01DFD08B10320CCE7202088
:1021800084F839000020C7E70220C5E77047FEE762
:102190003EB5002415480094019413490294C0E907
:1021A00000148460C460046144618461C461046299
:1021B00080F824400125856280F82C401021C0E978
:1021C0000D1480F83C40FEF733FF08B1FEF78AFE9D
:1021D0000095CDE9015469460448FEF785FE0028C4
:1021E00001D0FEF77FFE3EBD0024014068000020C4
:1021F00030B587B014216846FDF7D0FF114801685B
:1022000041F00101016000680F4D00F001000590F0
:10221000002215212846FFF728F9152000900120FB
:1022200000240190694603942846FFF73BF80820F4
:10223000CDE90004694628460294FFF733F807B059
:1022400030BD00001C38024000000240104810B5AC
:102250000E4901604FF482714160002102228160C9
:10226000C0E9031201224261520282612822C0E9C0
:102270000721416281620A21C162FFF7D3FC002875
:1022800003D0BDE81040FEF72DBE10BD0030014068
:10229000BC0000200C4810B50A4901604FF4E13140
:1022A0004160002181600C22C160C0E9041281619B
:1022B000C161FFF79DFE002803D0BDE81040FEF786
:1022C00011BE10BD0038014014010020FEE7704728
:1022D000124810B5016886B041F002010160006843
:1022E0000F4C00F0020005900098694640F0C000D5
:1022F0000090012001900290022003902046FEF7FA
:10230000D1FF012240212046FFF7AFF801228021B2
:102310002046FFF7AAF806B010BD00001C380240A6
:10232000000402402DE9F0412D4C074600252068AD
:1023300020F440402060206820602E46002240218A
:102340002046FFF792F8142001F084FD012240217D
:102350002046FFF78AF86806050E80212046FFF721
:102360007FF808B16D1CEDB2142001F073FD761CEE
:10237000F6B2082EE2D34FF000024FF040012046A3
:102380000FB3FFF772F8206820F440402060206807
:1023900040F480402060002280212046FFF765F84D
:1023A000142001F057FD012240212046FFF75DF87F
:1023B000142001F04FFD002240212046FFF755F880
:1023C0002846BDE8F081FFF750F8206820F440402F
:1023D0002060206840F4804020600122DCE700009B
:1023E0000004024070B5194E05463046316821F4AC
:1023F00040413160316841F4804131600022402128
:10240000FFF733F80024280601D5012200E000225E
:1024100080213046FFF729F86806050E142001F0E8
:1024200019FD012240213046FFF71FF8142001F06A
:1024300011FD002240213046FFF717F8142001F06B
:1024400009FD641CE4B2082CDDD370BD0004024019
:1024500010B5124C206820F440402060206840F401
:1024600080402060012240212046FEF7FEFF01222D
:1024700080212046FEF7F9FF142001F0EBFC00223A
:1024800080212046FEF7F1FF142001F0E3FC2046F6
:102490000022BDE810404021FEF7E7BF00040240E3
:1024A00010B5124C206820F440402060206840F4B1
:1024B00080402060002240212046FEF7D6FF002207
:1024C00080212046FEF7D1FF142001F0C3FC012239
:1024D00040212046FEF7C9FF012280212046FEF759
:1024E000C4FFBDE81040142001F0B4BC0004024059
:1024F00070B5174C0025206820F44040206020680B
:102500002060012280212046FEF7AFFF142001F059
:10251000A1FC012240212046FEF7A7FF142001F074
:1025200099FC07E06D1CEDB2FA2D03D9FFF7B8FF57
:10253000012070BD80212046FEF792FF0028F1D1D6
:10254000002240212046FEF790FF002070BD0000D1
:102550000004024010B50446FFF77AFFA220FFF7FF
:1025600041FFFFF7C5FFE0B2FFF73CFFFFF7C0FFF9
:10257000FFF76EFFA320FFF735FFFFF7B9FF00203D
:10258000FFF7D0FE0446FFF78BFF204610BD00008A
:1025900070B505460820FFF7DDFF1C4C6070072072
:1025A000FFF7D8FF00F01F00A0700520FFF7D2FF53
:1025B00000F03F00E0700420FFF7CCFF00F03F0088
:1025C00020710320FFF7C6FF00F07F00607102203A
:1025D000FFF7C0FF00F07F00A0710620FFF7BAFFF1
:1025E00000F00700E0710021625C100902F00F02A8
:1025F00000EB800002EB40006854491CC9B2072977
:10260000F2D3E07900F00700E87170BD29000020E6
:1026100070B50D460446FFF71BFFA220FFF7E2FE50
:10262000FFF766FF2046FFF7DDFEFFF761FF284654
:10263000FFF7D8FEFFF75CFFFFF732FF142001F031
:1026400009FC002070BD000070B51C4A00200A2162
:1026500002F10804155CB5FBF1F3B5FBF1F601FBE3
:10266000165505EB03132354401CC0B20828F1D3C0
:1026700020210020FFF7CCFF61780820FFF7C8FF7A
:10268000A1780720FFF7C4FFE1780520FFF7C0FF1E
:1026900021790420FFF7BCFF61790320FFF7B8FF21
:1026A000A1790220FFF7B4FFE1790620FFF7B0FF20
:1026B000BDE8704000210846FFF7AABF21000020B6
:1026C00030B51A49CA8A022A08D0042A06D0072A35
:1026D00018D140EA00100022C3B222E00022C3B2A7
:1026E0000DE0002006E000BF02FB04040D68401C62
:1026F00080B22B554C8A8442F6D8521C92B2888AFA
:102700009042EED830BD002006E000BF02FB04047A
:102710000D68401C80B22B554C8A8442F6D8521C5E
:1027200092B2888A9042EED830BD00005401002059
:102730002DE9F0471F4616460D468046DDF82090ED
:102740000CE0444606E04A462946204600F06EFD6D
:10275000641CA4B2B442F6D36D1CADB2BD42F0D33A
:10276000BDE8F08770B50022094B0DE0002106E0BE
:1027700002FB04141E68055D491C355589B25C8A4C
:102780008C42F5D8521C92B2998A9142EED870BD13
:10279000540100202DE9F05F81462A481E46DDF8ED
:1027A0002CB0838888464B4502D3C188414504D26A
:1027B000BDE8F05F24A001F037BAB088410700D02F
:1027C000012101EBD000203AF188504348433168A1
:1027D0004FF0800A0F1800252FE0002424E000BFEE
:1027E000BBF1FF0F3A7804F007012AFA01F002EA80
:1027F000000201D00AB908E082B108EB050081B2FD
:1028000009EB040080B20A9A06E008EB050081B2E9
:1028100009EB040080B25A4600F008FDE04340078F
:1028200000D17F1C641CA4B2B088A042D8D83079F3
:10283000400700D07F1C6D1CADB2F088A842CCD8F8
:10284000BDE8F09F5401002044656275673A20504E
:1028500061696E745F447261774368617220496E8A
:10286000707574206578636565647320746865208D
:102870006E6F726D616C20646973706C6179207227
:10288000616E67650D0A00002DE9FF4F80468348A1
:1028900085B00F4684881399444502D3C088B84256
:1028A00005D809B07E48BDE8F04F01F0BDB903205E
:1028B0000024A0EB420015B20FFA80FA01297AD069
:1028C000E9E0264661E000BF4FF0010908EB040093
:1028D00007EB060B02901FFA8BF1CDF8009080B247
:1028E0004B46089A00F0CEF9A8EB040004901FFABA
:1028F0008BF1CDF8009080B20123089A00F0C2F964
:102900003819CDE9009081B2A8EB060B1FFA8BF0C5
:102910000123089A00F0B6F9381B039081B2CDF874
:1029200000901FFA8BF00123089A00F0ABF904988D
:10293000A7EB060B1FFA8BF1CDF8009080B20123B4
:10294000089A00F09FF902981FFA8BF1CDF80090D9
:1029500080B20123089A00F095F9039808EB060B62
:1029600081B2CDF800901FFA8BF00123089A00F095
:1029700089F90198CDF8009081B21FFA8BF00123FC
:10298000089A00F07FF9761C36B2AE429CDDBAF1AF
:10299000000F06DA0AEB8400801D0FFA80FA08E0C7
:1029A00009E0611B0AEB81000A306D1E0FFA80FA04
:1029B0002DB2641C24B2AC4283DD09B0BDE8F08FB7
:1029C00008EB0400012607EB050902901FFA89F1C4
:1029D000009680B2129B089A00F054F9A8EB04000C
:1029E00003901FFA89F1009680B2129B089A00F0BA
:1029F00049F93819CDE9006081B2A8EB05091FFA41
:102A000089F0129B089A00F03DF9A7EB040B1FFA1E
:102A10008BF11FFA89F00096129B089A00F032F9A8
:102A20000398A7EB05091FFA89F1009680B2129B63
:102A3000089A00F027F902981FFA89F1009680B2EF
:102A4000129B089A00F01EF908EB05091FFA8BF19A
:102A50001FFA89F00096129B089A00F013F901986A
:102A6000009681B21FFA89F0129B089A00F00AF9C9
:102A7000BAF1000F05DA0AEB8400801D0FFA80FA24
:102A800007E0611B0AEB81000A306D1E0FFA80FA25
:102A90002DB2641C24B2AC4292DD8EE754010020BA
:102AA0001C8300082DE9FE4F1D46304B16469A88C0
:102AB000824206D3DB888B4203D3B24201D3AB42BE
:102AC00004D2BDE8FE4F2AA001F0AEB883468A4684
:102AD000321A00D5821B91466A1A002A00DD4A1B71
:102AE00090464FF0FF32B34501D2012000E010467E
:102AF0000290AA4500D2012209EB080400270192A6
:102B00007F1C0E98FFB2012805D10320B7FBF0F11E
:102B100000FB1170F0B10120DDE90C23009051465B
:102B2000584600F0AFF800BFB8EB440F07DCB345E0
:102B30001AD0029944440BEB01001FFA80FBB9EB59
:102B4000440FDDDBAA450FD001984C4450441FFAD6
:102B500080FAD5E701200090FF22514658460D9B90
:102B600000F090F80027DFE7BDE8FE8F5401002059
:102B700044656275673A205061696E745F447261A2
:102B8000774C696E6520496E707574206578636551
:102B900065647320746865206E6F726D616C20646B
:102BA0006973706C61792072616E67650D0A00004F
:102BB0002DE9FF4FADF5037D8846DDE990AB8146F9
:102BC00000244FF4807715462646394642A8FDF783
:102BD000E5FA394602A8FDF7E1FA194842AA8388C6
:102BE0004B4503D3C38802A8434512D215A001F078
:102BF0001BF80DF5077DBDE8F08F00BF95FBF1F3E5
:102C000001FB135395FBF1F530330355641C24B2DB
:102C100000E00A21002DF1D11146002C08DD031936
:102C200013F8013C8B55761C641E36B224B2F4E7CF
:102C3000CDE900BA41464846869B00F0FFF9D8E747
:102C40005401002044656275673A205061696E74D2
:102C50005F4469734E756D20496E70757420657898
:102C6000636565647320746865206E6F726D616C56
:102C700020646973706C61792072616E67650D0AFA
:102C8000000000002DE9F05F2B4D93468146AA8895
:102C90000A981C4688464A4502D3EA8842450ED225
:102CA00026A000F0C1FFAA88494634A000F0BCFF6E
:102CB000EA884146BDE8F05F39A000F0B5BF0128C1
:102CC00001D0002634E00025681E00EB440718E020
:102CD00009EB05000026A0EB040A0EE0BAF1000F94
:102CE0000DD408EB0600001B09D481B21FFA8AF04C
:102CF0005A4600F09BFA761C36B2B742EEDC6D1CE9
:102D00002DB2AF42E4DCBDE8F09F002509EB0607D9
:102D10007F1E09E008EB0500401E81B2B8B25A469A
:102D200000F084FA6D1C2DB2A542F3DB761C36B29E
:102D3000A642EADBE7E70000540100204465627523
:102D4000673A205061696E745F44726177506F69B1
:102D50006E7420496E707574206578636565647360
:102D600020746865206E6F726D616C206469737089
:102D70006C61792072616E67650D0A0058706F6929
:102D80006E74203D202564202C205061696E742EC5
:102D90005769647468203D20256420200D0A2000B6
:102DA00059706F696E74203D202564202C2050617D
:102DB000696E742E486569676874203D202564201B
:102DC000200D0A20000000002DE9FE4F8246294810
:102DD00091460C46DDE90D5281880C9E1F465145F7
:102DE00006D3C088A04203D3494501D3B84204D2D8
:102DF000BDE8FE4F20A000F017BF4FF0000862B9F9
:102E00000FE0CDE9006523464A4619465046CDF805
:102E10000880FFF747FE641CA4B2BC42F1D3BDE8B2
:102E2000FE8FCDE9006523464A4619465046CDF847
:102E30000880FFF737FECDE9006552463B46214644
:102E40001046CDF80880FFF72DFECDE900654A4613
:102E5000234639461046CDF80880FFF723FECDE91A
:102E600000653B46524619464846CDF80880FFF7B4
:102E700019FED4E75401002044656275673A204981
:102E80006E70757420657863656564732074686519
:102E9000206E6F726D616C20646973706C61792053
:102EA00072616E67650D0A002DE9F05F1D46904660
:102EB00006468A46DDF82CB0B6E07F294FF00000C8
:102EC00054D8AA884CE053232C68434314F8133099
:102ED0008B4244D153214843022101EB400004EBD3
:102EE0000009002737E000242CE000BF4FEAE4701F
:102EF00004EB507020F00700A4EB0002BBF1FF0FC1
:102F000099F800104FF0800020FA02F001EA000169
:102F100001D009B907E071B10AEB070081B230199D
:102F200080B20A9A05E00AEB070081B2301980B23C
:102F30005A4600F07BF940482040072801D109F1AA
:102F40000109641C2889A042D0DC287A400701D0FE
:102F500009F101097F1C6889B842C4DC02E0401C09
:102F60008242B0DC08F10108E8885CE00127AB8808
:102F700054E053222C68424314F812C08C454CD1C3
:102F800007EB4202A45C98F80120944245D15322F9
:102F900050430222296802EB400001EB00090027A0
:102FA00037E000242CE000BF4FEAE47004EB5070DF
:102FB00020F00700A4EB0002BBF1FF0F99F800100E
:102FC0004FF0800020FA02F001EA000101D009B9B7
:102FD00007E071B10AEB070081B2301980B20A9A9A
:102FE00005E00AEB070081B2301980B25A4600F0C2
:102FF0001DF911482040072801D109F10109641C7D
:103000002889A042D0DC287A400701D009F10109C3
:103010007F1C6889B842C4DC02E0401C8342A8DC03
:10302000288908F10208064498F8001000297FF466
:1030300044AFBDE8F09F0000070000802DE9FC5F71
:1030400080461B4889460D4681884446DDF834B0E9
:103050001E461746A14203D3C1888246A94222D206
:10306000BDE8FC5F134800F0DFBDB088BAF804305B
:103070000119994203D9F188444629448DB2F18857
:10308000BAF806002944814201D944464D460C98BD
:103090003346CDE900B029462046FFF77BFBB088D8
:1030A0007F1C204484B23A78002ADED1BDE8FC9F20
:1030B00054010020D88200082DE9FF4F85B046A1B9
:1030C00017468046DDE9126507C902AB4FF00A09D1
:1030D00083E8070039790898B1FBF9F19A468488AA
:1030E0001AF80120CDE900564046089B0699FFF7E3
:1030F00051FB397908EB040BB1FBF9F209FB121112
:103100001FFA8BF01AF80120CDE90056089B0699AA
:10311000FFF740FBCDE900560BEB940000EB5400A9
:1031200080B23A22089B0699FFF734FB797908EBC5
:103130004400B1FBF9F100EB54001AF80120CDE98D
:10314000005680B2089B0699FFF724FB797904EBBF
:10315000440BB1FBF9F209FB12110BEB08001AF852
:103160000120CDE9005600EB540080B2089B06997F
:10317000FFF710FB08EB8400CDE9005600EB54008C
:10318000A0EB940080B23A22089B0699FFF702FB5D
:10319000B979089BB1FBF9F11AF8012004EB84011D
:1031A000CDE9005601EB080080B20699FFF7F2FA6C
:1031B000BA7908EB4B00B2FBF9F109FB112180B29F
:1031C0001AF80120CDE90056089B0699FFF7E2FAAC
:1031D00009B0BDE8F08F0000303132333435363776
:1031E0003839000070B50D4C049E00252060218107
:1031F0006281A6810220E0824E074FEAD10000D012
:10320000401C6082A282E381258223B1B42B02D0CC
:10321000A280E18070BDA180E28070BD54010020D9
:10322000014908607047000054010020F0B43B4C95
:10323000A388834234D3E3888B4231D32346E78982
:103240001E895D89CFB15A2F1AD0B42F1CD0B7F583
:10325000877F40D10B46281A401E80B2218AD9B1FF
:10326000012916D0022904D0032934D1F11A491EAC
:103270008BB2281A401E80B20EE003460846EDE7E6
:10328000711A491E8BB2E9E7301A401E83B2681AE0
:10329000E2E7F11A491E8BB29E4201D3854203D266
:1032A000F0BC1FA000F0C0BC1C49E58A4C8A09682C
:1032B000022D12D0042D21D0072D0CD1444304EB54
:1032C0005304DB075B0FF025DD40085D1201A843C6
:1032D000DA4002430A55F0BC7047444304EBD30480
:1032E0008020002A0D5D03F0070220FA02F002D0D0
:1032F00028430855EFE785430D55ECE7444304EBBD
:10330000930094079B075D0F0A5CC023EB409A4330
:10331000230EEB4013430B54DDE700005401002063
:1033200044656275673A20457863656564696E67D0
:1033300020646973706C617920626F756E6461726C
:103340006965730D0A0000007047000038B51C491C
:10335000002309681B4A11F0F00F23D118491C31D2
:103360000C68E500184C03D5216801F4C0540EE048
:103370000D6845F080550D600D6805F0805500958D
:1033800024680D6804F4C05425F080550D60B4F530
:10339000C05F07D1B0F5404F04D11068012340F061
:1033A00004001060106820F00100184310601068DD
:1033B00000F00100984201D0012038BD002038BD46
:1033C00008380240003C02400070004070B51748C9
:1033D00086B0016841F0010101600068012400F03D
:1033E000010005900098124E40F48050CDE9000491
:1033F000022569463046CDE90245FDF753FF0098A6
:10340000694640F40060CDE900043046CDE902454C
:10341000FDF748FF0122D1023046FEF726F80122CF
:1034200011033046FEF721F806B070BD1C3802408B
:10343000000002402DE9F0472F4C8046002520680F
:1034400020F040702060206820602E46E7144FF482
:103450008059002239462046FEF707F8142000F074
:10346000F9FC012239462046FDF7FFFF6806050EEC
:1034700049462046FDF7F4FF08B16D1CEDB214205B
:1034800000F0E8FC761CF6B2082EE2D3B8F1000F8B
:103490004FF000023946204621D0FDF7E6FF2068B4
:1034A00020F040702060206840F080702060002292
:1034B00049462046FDF7D9FF142000F0CBFC01223D
:1034C00039462046FDF7D1FF142000F0C3FC00224E
:1034D00039462046FDF7C9FF2846BDE8F087FDF7CD
:1034E000C4FF206820F040702060206840F08070A9
:1034F00020600122DCE70000000002402DE9F041DD
:103500001B4C06462046216821F04071216021684D
:1035100041F080712160E71400223946FDF7A5FFD4
:1035200000254FF48058300601D5012200E000222A
:1035300041462046FDF799FF7006060E142000F064
:1035400089FC012239462046FDF78FFF142000F048
:1035500081FC002239462046FDF787FF142000F049
:1035600079FC6D1CEDB2082DDDD3BDE8F0810000C3
:103570000000024070B5134C206820F040702060BD
:10358000206840F0807020600122D5022946204644
:10359000FDF76BFF0122160331462046FDF765FF5C
:1035A000142000F057FC002231462046FDF75DFF55
:1035B000142000F04FFC29462046BDE87040002250
:1035C000FDF753BF0000024070B5134C206820F097
:1035D00040702060206840F080702060E514002278
:1035E00029462046FDF741FFA61400223146204619
:1035F000FDF73BFF142000F02DFC01222946204658
:10360000FDF733FF012231462046FDF72EFFBDE8CE
:103610007040142000F01EBC000002402DE9F04173
:10362000184C0025206820F0407020602068206041
:103630000122160331462046FDF717FF142000F043
:1036400009FC0122D70239462046FDF70EFF14205F
:1036500000F000FC08E06D1CEDB2FA2D04D9FFF774
:10366000B3FF0120BDE8F08131462046FDF7F8FEAA
:103670000028F0D1002239462046FDF7F6FE002052
:10368000F0E70000000002402DE9FC4105466846D5
:1036900000F071F8BDF800009DF8022047BABDF8AF
:1036A0000300022146BA6846FDF74FF804469DF82C
:1036B000052002210DF10300FDF747F8002C2FD063
:1036C00000282DD03846FCF7FCFE0022154BFCF7F5
:1036D00017FE154F00223B46FCF784FE0022134BD9
:1036E000FCF708FEFCF726FF04463046FCF7E9FE2F
:1036F00000220F4BFCF704FE00223B46FCF772FE53
:10370000FCF718FF0B498C420AD80B498C4207DCA6
:1037100010F1FF4F04D20949884201DCC5E900409D
:10372000BDE8FC8100E06540E0FFEF4000804640DE
:10373000000059400000A0C10000FA420000C84249
:1037400070B50D460446FFF715FF8820FFF7D6FE3B
:10375000FFF764FF200AFFF7D1FEFFF75FFFE0B23B
:10376000FFF7CCFEFFF75AFF002D03D0BDE87040F5
:10377000FFF72ABF70BD70B504466425012142F6EB
:103780000640FFF7DDFF1420FDF77AFDFFF7F2FE9C
:103790008920FFF7B3FE06E06D1EEDB2322000F087
:1037A00059FB002D1FD0FFF739FF0028F4D101206D
:1037B000FFF740FE20700120FFF73CFE6070012003
:1037C000FFF738FEA0700120FFF734FEE070012003
:1037D000FFF730FE20710120FFF72CFE6071BDE87D
:1037E0007040FFF7F1BE70BD38B504461248134B68
:1037F0000068B0FBF3F04FF47A73584300906068B0
:10380000B0F5827F0DD10B46009200228021204628
:1038100000F016F870B1606D40F020006065032084
:1038200038BD009830B1401E009020688068C043C9
:103830000006F6D5002038BD1C00002000366E01C1
:103840002DE9F8431E46914688460446089DFDF73B
:1038500011FE401B351AFDF70DFE0746254800688E
:10386000C0F3CB30684338E0701C37D0FDF702FE60
:10387000C01BA84203D215B1009860B32CE02068A9
:10388000416821F0E00141606068B0F5827F0BD1B2
:10389000A068B0F5004F02D0B0F5806F04D1206869
:1038A000016821F040010160A06AB0F5005F09D114
:1038B0002068016821F4005101602068016841F42A
:1038C00000510160012084F85100002084F850006C
:1038D0000320BDE8F8830025401E00902068816821
:1038E00038EA010004D000214945BDD10020F0E7AD
:1038F0000121F9E71C0000207047FDF7C1BD000061
:1039000010B592B034216846FCF748FC14210DA88C
:10391000FCF744FC1148016821F4C05141F40061F6
:1039200001600121039102201021009000240491E4
:10393000CDE909044005CDE90B406846FDF75EFF7F
:103940000F200D900320CDE90E04109401210DA845
:103950001194FDF72DFE12B010BD00000070004064
:1039600002494FF0006008607047000008ED00E079
:1039700010B5406A0021C185C184FEF7AEFA10BDC2
:103980000168CA6822F49072CA6001684A6922F02C
:1039900001024A61202180F83A10704710B590F872
:1039A0003A10222901D0022010BD8168B1F5805F54
:1039B00011D00169002901681FD0496801F07F0317
:1039C000816A4A1C82620B70C18D491E0904090C70
:1039D000C18518D02BE00269816A002A026852680A
:1039E00005D0D2B20A80816A491C8162ECE7C2F339
:1039F00008020A80816A891CF7E74A68816A4B1CC1
:103A000083620A70E0E70168CA6822F02002CA6097
:103A10000168CA6822F48072CA6001684A6922F0AB
:103A200001024A61202180F83A10FEF751FB002084
:103A300010BD00002DE9F041044600680169E2680C
:103A400021F44051114301612169A068E2690843F2
:103A50006169114322680843D16849F20C639943B4
:103A60000143D16020684169A26921F4407111438A
:103A7000416136492068884202D1FDF77BFE01E0B2
:103A8000FDF768FE0246E36964203221B3F5004F7A
:103A900002EBC20303EB021362682BD09200B3FB6C
:103AA000F2F5B5FBF0F5B3FBF2F66FF018077D43C6
:103AB00006EB8505B3FBF2F601EB0515B5FBF0F55A
:103AC000B6FBF0F605F0F00505EB0615B3FBF2F6D4
:103AD000B3FBF2F2B2FBF0F27A4306EB820201EBA7
:103AE0000211B1FBF0F000F00F002168284488605B
:103AF000BDE8F0815200B3FBF2F6B6FBF0F6B3FB83
:103B0000F2F7B3FBF2F56FF0180C06FB0CF607EBBF
:103B1000860601EBC606B5FBF0F5B6FBF0F62D0107
:103B200006F0F80605EB4605B3FBF2F6B3FBF2F23E
:103B3000B2FBF0F202FB0CF206EB820201EBC201D7
:103B4000B1FBF0F000F00700CFE7000000380140C3
:103B500090F83910212901D0022070478168B1F511
:103B6000805F016A0BD04A1C0262026809785160CA
:103B7000C18C491E0904090CC1840ED017E00988C4
:103B80000268C1F30801516001690029016A02D08D
:103B9000491C0162ECE7891CFBE70168CA6822F056
:103BA0008002CA600068C16841F04001C160002025
:103BB00070472DE9F041984617460E460446069D8B
:103BC0001DE0681C1BD02DB1FDF754FCA0EB0800D4
:103BD000A84214D92068C16821F4D071C16020685E
:103BE000416921F001014161202084F8390084F805
:103BF0003A00002084F838000320BDE8F0812068F6
:103C0000006836EA000004D00020B842D9D0002075
:103C1000F3E70120F9E700000148FEF75FB9000073
:103C200014010020FEE700000FB4054B10B503A9F6
:103C3000044A029800F028F810BC5DF814FB00005C
:103C4000893E00085C0000200907090E002804DBFB
:103C500000F1E02080F80014704700F00F0000F140
:103C6000E02080F8141D704702E008C8121F08C148
:103C7000002AFAD170477047002001E001C1121FED
:103C8000002AFBD1704700002DE9FF4F8BB09A4608
:103C90000F460546002606E025280BD052460D9912
:103CA00090476D1C761C28780028F5D10FB030465F
:103CB000BDE8F08F0024A0460122604900E00443E3
:103CC00015F8013F203B02FA03F00842F7D12878AB
:103CD0002E2817D115F8010F44F004042A280ED01D
:103CE0006FF02F022878A0F1300109290AD808EBDB
:103CF000880102EB410100EB01086D1CF2E757F867
:103D0000048B6D1C287869283ED006DC0028CDD0B5
:103D100063280BD0642804D136E0732810D07528AE
:103D20004BD052460D999047761C85E017F8040B4E
:103D30008DF8000000208DF80100E946012003E025
:103D400057F8049B4FF0FF3061074FF0000401D497
:103D50000AE0641C44450DDA8442FADB19F80410C9
:103D60000029F6D106E0641C8442FCDB19F804103B
:103D70000029F8D1264404E019F8010B52460D99A8
:103D80009047641EF8D257E001CF4FF00A0B00288D
:103D900002DA40422D2102E0210504D52B218DF8C5
:103DA0002410012103E0E10705D02021F7E70DF100
:103DB000200908910CE00021F9E701CF4FF00A0B30
:103DC000F9E75946FCF7D2FB01F1300209F8012D61
:103DD0000028F6D1ADEB090000F1200B600701D4FB
:103DE0004FF00108D84502DDA8EB0B0000E00020F1
:103DF0008046002406E009A85246005D0D999047D0
:103E0000641C761C08988442F5DB04E0302052469E
:103E10000D999047761CB8F10001A8F10108F5DC76
:103E200005E019F8010B52460D999047761CBBF13D
:103E30000001ABF1010BF4DC6D1C34E70928010033
:103E400010B504460420FEF728F80148047010BDA0
:103E50002000002070B54FF0E02400226569094978
:103E6000A36909784843A1699942FCD002D2A3EB27
:103E7000010302E0A5EB010633441A440B468242DB
:103E8000F1D370BD2000002013B54FF6FF7301225F
:103E900069460248FEF71DF900981CBD1401002078
:103EA00010B5002821D0114B0022001F196803E033
:103EB000814203D80A4649680029F9D152B11368F2
:103EC000841A9C4204D1006818441060104602E035
:103ED000506000E0186039B102680B1A934203D1B8
:103EE0000B681A4402604968416010BD6000002000
:103EF0008AB0FDF7CDFAFFF703FD1820FFF7A0FF0A
:103F0000FEF776F9FEF744F9FEF7A0F9FEF7C2F9DD
:103F1000FFF75CFAFEF7DCF9FEF796FB36A0FFF739
:103F200083FEFCF703FE3748FFF794FF3648FFF7A0
:103F3000ABFB354C6068FCF7EAFA344E002233469E
:103F4000FCF7DEF9FCF7CAFA05462068FCF7DFFA51
:103F500000223346FCF7D4F9FCF7C0FA01462A46A2
:103F60002BA0FFF761FEA4F10800FEF711FBA4F1FE
:103F700008010A20CA79B2FBF0F300FB132C8A79FE
:103F8000B2FBF0F3B2FBF0F600FB13274A79B2FB69
:103F9000F0F3B2FBF0FE00FB1329CDF800900A7994
:103FA000DDF80090B2FBF0F3B2FBF0FA00FB132B4C
:103FB000CA78B2FBF0F3B2FBF0F500FB13288A7865
:103FC0004978B2FBF0F300FB1324B2FBF0F3B1FB32
:103FD000F0F2CDE9087C00FB12120796B1FBF0F17C
:103FE000CDE905E90DF1080CCDE900458CE8000D9F
:103FF0000FA0FFF719FE96E7496E697446696E7364
:10400000680D0A0040420F00080000200000244014
:1040100074656D70657261747572653D25642C6898
:10402000756D69646974793D2564210D0A0000008D
:104030003230256425642D256425642D256425648E
:104040002020256425643A256425643A2564256486
:1040500020207765656B2025640D0A00F0B50B30D4
:10406000154D20F007010024144A0FE003688B422D
:104070000BD38B4205D95E1A43184768C3E9006722
:1040800000E04368136002C004E0021D10680028CD
:10409000ECD12046002802D1286808B10020F0BDEC
:1040A000064A07481060074A121A22F00702C0E9C0
:1040B000002401202860D7E7640000206000002071
:1040C0007401002070210020030406080C10182041
:1040D0003000000000000000000102030406070891
:1040E0000900000000010203042255AA55AA55AA9E
:1040F0001100000000000000001E1E1E1E1E1E1EDD
:104100001E01000000000018000000000000000078
:10411000000000000000000F01000000000000008F
:104120000000000000C4E300000000000000001DCB
:10413000C01D803BFF3B073F777E76F870FBFEFBA0
:10414000FE3F773F773E73387038703BE0000000E9
:10415000000000000000000000000000000000005F
:10416000000000000000000000000000000000004F
:10417000000000000000000000000000000000003F
:10418000000000000000000000000000000000002F
:10419000000000000000000000000000000000001F
:1041A000000000000000000000000000000000000F
:1041B00000000000000000000000000000000000FF
:1041C0000000000000000000000000BAC300000072
:1041D0000000000000300073FF700FFE1E7E3C6E7A
:1041E00038EE30EFFFFC307C3038303E307E30E04F
:1041F00030C1F000000000000000000000000000DE
:1042000000000000000000000000000000000000AE
:10421000000000000000000000000000000000009E
:10422000000000000000000000000000000000008E
:10423000000000000000000000000000000000007E
:10424000000000000000000000000000000000006E
:10425000000000000000000000000000000000005E
:10426000000000000000000000000000000000004E
:1042700000CAF70000000000000000300E300E3FC2
:10428000EE30EEFCFF76CE77FE7BFEFFFEF3DEF334
:10429000CE37EE3E6E3C0E303E00000000000000C7
:1042A000000000000000000000000000000000000E
:1042B00000000000000000000000000000000000FE
:1042C00000000000000000000000000000000000EE
:1042D00000000000000000000000000000000000DE
:1042E00000000000000000000000000000000000CE
:1042F00000000000000000000000000000000000BE
:1043000000000000000000000000000000000000AD
:1043100000000000000000DDAE0000000000000012
:10432000000670FFFF3E7038007FFFE000FFFC3B9F
:104330008C39CCFFFF739C71DC7FFF001C01F800FF
:10434000000000000000000000000000000000006D
:10435000000000000000000000000000000000005D
:10436000000000000000000000000000000000004D
:10437000000000000000000000000000000000003D
:10438000000000000000000000000000000000002D
:10439000000000000000000000000000000000001D
:1043A000000000000000000000000000000000000D
:1043B00000000000000000000000000000C5C9006F
:1043C00000000000000000E01FFFF03E000E1FCFC5
:1043D000FBFFF83FFF0FFF7FD87FDC6FCEEDFFFDC7
:1043E000F7F9C0000000000000000000000000001D
:1043F00000000000000000000000000000000000BD
:1044000000000000000000000000000000000000AC
:10441000000000000000000000000000000000009C
:10442000000000000000000000000000000000008C
:10443000000000000000000000000000000000007C
:10444000000000000000000000000000000000006C
:10445000000000000000000000000000000000005C
:1044600000000061000000000000000000000000EB
:1044700000000000003E00670007800F807F80E39F
:1044800080E780E7807F80000000000000000000DF
:10449000000000000000000000000000000000001C
:1044A000000000000000000000000000000000000C
:1044B00000000000000000000000000000000000FC
:1044C00000000000000000000000000000000000EC
:1044D00000000000000000000000000000000000DC
:1044E00000000000000000000000000000000000CC
:1044F00000000000000000000000000000000000BC
:104500000000000000000000006200000000000049
:1045100000000070007000700070007F007B8071F0
:10452000C071C071C071C071C07B807F000000008D
:10453000000000000000000000000000000000007B
:10454000000000000000000000000000000000006B
:10455000000000000000000000000000000000005B
:10456000000000000000000000000000000000004B
:10457000000000000000000000000000000000003B
:10458000000000000000000000000000000000002B
:10459000000000000000000000000000000000001B
:1045A00000000000000000000000000000000063A8
:1045B00000000000000000000000000000000000FB
:1045C000003F007300F000E000E000E000F0007346
:1045D000003F00000000000000000000000000009C
:1045E00000000000000000000000000000000000CB
:1045F00000000000000000000000000000000000BB
:1046000000000000000000000000000000000000AA
:10461000000000000000000000000000000000009A
:10462000000000000000000000000000000000008A
:10463000000000000000000000000000000000007A
:10464000000000000000000000000000000000006A
:104650000000000000410000000000000000000019
:10466000000E001F001F001F003B803B8071807FF9
:10467000C071C0E0E0E0E0E0E00000000000000009
:10468000000000000000000000000000000000002A
:10469000000000000000000000000000000000001A
:1046A000000000000000000000000000000000000A
:1046B00000000000000000000000000000000000FA
:1046C00000000000000000000000000000000000EA
:1046D00000000000000000000000000000000000DA
:1046E00000000000000000000000000000000000CA
:1046F00000000000000000000000000000000000BA
:1047000000000000000000000000000000000000A9
:10471000000000000000000000000000000C000C81
:10472000000C000C000C000C000C000C0000000C35
:104730000000000000000000000000000000001D5C
:10474000C01DC00880088008800000000000000034
:10475000000000000000000000000000000D800DBF
:10476000800D800D803FC01B003FC01B001B001B45
:10477000001B00000000000000000004001F80314A
:1047800080318038001E000F000380318031803F6F
:1047900000040004000000000000000000180024D5
:1047A00000240018C007801E003180024002400132
:1047B0008000000000000000000000000000000F6A
:1047C000001800180018000C001D80370033001D71
:1047D0008000000000000000000000000000000752
:1047E00000070002000200020000000000000000BC
:1047F00000000000000000000000000000030003B3
:104800000006000E000C000C000C000C000E000650
:104810000003000300000000000000000018001862
:10482000000C000600060006000600060006000C4C
:10483000001C001800000000000000000006000638
:10484000003FC03FC00F001F801980000000000023
:104850000000000000000000000000000000000058
:10486000000400040004003F800400040004000071
:104870000000000000000000000000000000000038
:10488000000000000000000000000000000600041E
:10489000000C0008000800000000000000000000FC
:1048A000000000000000003F800000000000000049
:1048B00000000000000000000000000000000000F8
:1048C000000000000000000000000000000C000CD0
:1048D000000000000000000000000000C000C00157
:1048E0008001800300030006000C000C0018001873
:1048F000003000300000000000000000000E001B2F
:10490000003180318031803180318031801B000E58
:104910000000000000000000000000000006003E53
:104920000006000600060006000600060006003F1E
:10493000C00000000000000000000000000F00198F
:104940008031803180030006000C00180030003FE9
:10495000800000000000000000000000003F006137
:1049600080018003001F0003800180018061803F7F
:104970000000000000000000000000000007000729
:10498000000F000B001B00130033003F8003000FDB
:10499000800000000000000000000000001F8018E0
:1049A00000180018001F0011800180018021801F65
:1049B0000000000000000000000000000007801C54
:1049C0000018003000370039803180318019800FA5
:1049D000000000000000000000000000007F004315
:1049E00000030006000600060006000C000C000C88
:1049F000000000000000000000000000001F003167
:104A000080318031801F0031803180318031801FC2
:104A1000000000000000000000000000001E003345
:104A2000003180318033801D800180030007003C0D
:104A30000000000000000000000000000000000076
:104A40000000000C000C000000000000000C000C36
:104A50000000000000000000000000000000000056
:104A60000000000300030000000000000006000436
:104A70000008000800000000000000000000000026
:104A8000C0030004001800600018000400030000C8
:104A9000C000000000000000000000000000000056
:104AA00000000000007FC000007FC0000000000088
:104AB0000000000000000000000000000000006096
:104AC0000018000400030000C00300040018006088
:104AD0000000000000000000000000000000001FB7
:104AE0000031803180018007000C000C0000000CB8
:104AF000000000000000000000000000000E001197
:104B00000021002100270029002900270020001192
:104B1000000E000000000000000000000000003F48
:104B2000000F000900198019801F8030C030C07943
:104B3000E000000000000000000000000000007F16
:104B4000003180318031803F003180318031807F81
:104B50000000000000000000000000000000001F36
:104B60004030C06040600060006000604030801FE6
:104B70000000000000000000000000000000007FB6
:104B800000318030C030C030C030C030C031807F94
:104B90000000000000000000000000000000007F96
:104BA000803080308032003E003200308030807FA4
:104BB0008000000000000000000000000000007FF6
:104BC000C03040304032003E003200300030007CC7
:104BD0000000000000000000000000000000001EB7
:104BE00080318060806000600067C0618031801F1C
:104BF0000000000000000000000000000000007B3A
:104C0000C03180318031803F803180318031807B84
:104C1000C000000000000000000000000000003F95
:104C2000C006000600060006000600060006003F5B
:104C3000C000000000000000000000000000001F95
:104C4000C003000300030003006300630063003E31
:104C50000000000000000000000000000000007BD9
:104C6000C03180330036003C003E00330031807993
:104C7000C000000000000000000000000000007EF6
:104C80000018001800180018001840184018407F3D
:104C9000C00000000000000000000000000000E074
:104CA000E060C071C07BC06AC06EC064C060C0FB01
:104CB000E0000000000000000000000000000073A1
:104CC000C0318039803D80358037803380318079B4
:104CD0008000000000000000000000000000001F35
:104CE00000318060C060C060C060C060C031801FA3
:104CF0000000000000000000000000000000007F35
:104D00000031803180318031803F00300030007EC2
:104D10000000000000000000000000000000001F74
:104D200000318060C060C060C060C060C031801F62
:104D3000000CC01F80000000000000000000007F89
:104D4000003180318031803E003300318031807C01
:104D5000E000000000000000000000000000001F54
:104D6000803180318038001F000380318031803FE6
:104D70000000000000000000000000000000007FB4
:104D8000804C804C804C800C000C000C000C003FD0
:104D90000000000000000000000000000000007B98
:104DA000C031803180318031803180318031801F4D
:104DB0000000000000000000000000000000007B78
:104DC000C0318031801B001B001B000A000E000E4A
:104DD000000000000000000000000000000000FBD8
:104DE000E060C064C06EC06EC02A803B803B8031F2
:104DF0008000000000000000000000000000007BB8
:104E0000C031801B000E000E000E001B0031807BA5
:104E1000C000000000000000000000000000007959
:104E2000E030C019800F0006000600060006001FD3
:104E30008000000000000000000000000000003FB3
:104E40008021802300060004000C00188030803F81
:104E50008000000000000000000000000007800645
:104E60000006000600060006000600060006000612
:104E7000000600078000000000000030003000182D
:104E80000018000C000C0006000300030001800164
:104E90008000C000C000000000000000001E0006EE
:104EA00000060006000600060006000600060006D2
:104EB0000006001E0000000000000004000A000AB6
:104EC0000011002080208000000000000000000091
:104ED00000000000000000000000000000000000D2
:104EE00000000000000000000000000000000000C2
:104EF000000000000000000000FFE00800040002C5
:104F000000000000000000000000000000000000A1
:104F10000000000000000000000000000000000091
:104F20000000001F00018001801F80318033801D40
:104F3000C000000000000000000000000070003011
:104F40000030003700398030C030C030C039807741
:104F50000000000000000000000000000000000051
:104F60000000001E80318060806000608031801F02
:104F700000000000000000000000000000038001AD
:104F80008001801D80338061806180618033801D5D
:104F9000C000000000000000000000000000000051
:104FA0000000001F00318060C07FC0600030C01F63
:104FB0008000000000000000000000000007E00C7E
:104FC000000C003F800C000C000C000C000C003F9B
:104FD0008000000000000000000000000000000051
:104FE0000000001DC0338061806180618033801DBE
:104FF00080018001801F0000000000000070003070
:105000000030003700398031803180318031807B41
:10501000C0000000000000000000000000060006C4
:105020000000001E00060006000600060006003F05
:10503000C0000000000000000000000000060006A4
:105040000000003F0003000300030003000300030F
:1050500000030003003E000000000000007000306C
:10506000003000378036003C003C003600330077CB
:10507000C00000000000000000000000001E00064C
:105080000006000600060006000600060006003FB7
:10509000C000000000000000000000000000000050
:1050A0000000007F8036C036C036C036C036C076BD
:1050B000E000000000000000000000000000000010
:1050C0000000007700398031803180318031807B71
:1050D000C000000000000000000000000000000010
:1050E0000000001F00318060C060C060C031801FC0
:1050F00000000000000000000000000000000000B0
:105100000000007700398030C030C030C0398037AF
:1051100000300030007C00000000000000000000B3
:105120000000001DC0338061806180618033801D7C
:10513000800180018007C000000000000000000026
:105140000000007B801CC018001800180018007FA9
:10515000000000000000000000000000000000004F
:105160000000001F8031803C001F00038031803F21
:1051700000000000000000000000000000180018FF
:105180000018007F00180018001800180018800F81
:10519000000000000000000000000000000000000F
:1051A0000000007380318031803180318033801D78
:1051B000C00000000000000000000000000000002F
:1051C0000000007BC0318031801B001B000E000EF0
:1051D00000000000000000000000000000000000CF
:1051E000000000F1E060C064C06EC03B803B8031D5
:1051F000800000000000000000000000000000002F
:105200000000007BC01B000E000E000E001B007B88
:10521000C0000000000000000000000000000000CE
:1052200000000079E030C0198019800B000F0006E3
:105230000006000C003E000000000000000000001E
:105240000000003F80218003000E00180030803FE6
:105250008000000000000000000000000006000CBC
:10526000000C000C000C000C0018000C000C000CD2
:10527000000C000600000000000000000006000610
:1052800000060006000600060006000600060006EE
:10529000000600060000000000000000000C0006F0
:1052A00000060006000600060003000600060006D1
:1052B0000006000C000000000000000000000000DC
:1052C000000000000018002480030000000000001F
:1052D00000000000000000000000000000000000CE
:1052E00000000000000000000000000000000000BE
:1052F00000000000000000000000000000000000AE
:105300000000000000070007000700070007000773
:105310000007000200020000000000070007000074
:105320000000000000000000000000000000001C61
:10533000E01CE01CE00840084008400000000000BD
:10534000000000000000000000000000000000005D
:105350000000000CC00CC00CC00CC00CC03FF03FE3
:10536000F00CC00CC03FF03FF00CC00CC00CC00CE7
:10537000C00CC00000000000000000030003000794
:10538000E00FE0186018001F000FC000E018601860
:10539000601FC01F80030003000300000000000026
:1053A00000000000001C002200220022001C6001FE
:1053B000E00F803C0031C002200220022001C0002A
:1053C00000000000000000000000000000000000DD
:1053D0000003E00FE00C000C0006000F301FF01976
:1053E000E018C01FF007B00000000000000000003F
:1053F0000000000000000003800380038001000122
:10540000000100000000000000000000000000009B
:105410000000000000000000000000000000C000CC
:10542000C00180018001800300030003000300032A
:1054300000030001800180018000C000C000000066
:1054400000000000000C000C00060006000600032F
:10545000000300030003000300030006000600062B
:10546000000C000C0000000000000000000300031E
:105470000003001B601FE0078007800FC00CC00006
:10548000000000000000000000000000000000001C
:105490000000000000000000000300030003000300
:1054A000003FF03FF0030003000300030000000092
:1054B00000000000000000000000000000000000EC
:1054C00000000000000000000000000000000000DC
:1054D0000003800300030006000600040000000033
:1054E00000000000000000000000000000000000BC
:1054F000003FE03FE000000000000000000000006E
:10550000000000000000000000000000000000009B
:10551000000000000000000000000000000000008B
:1055200000038003800380000000000000000000F2
:105530000000000060006000C000C000C0018001E9
:105540008003000300060006000C000C000C00188D
:10555000001800000000000000000000000F801F85
:10556000C018C03060306030603060306030603013
:105570006018C01FC00F8000000000000000000085
:10558000000000000003001F001F000300030003D1
:1055900000030003000300030003001FE01FE000FE
:1055A000000000000000000000000000000F801F4D
:1055B000C038E03060006000C00180030006000CCD
:1055C0000018003FE03FE000000000000000000085
:1055D00000000000000F803FC030E0006000E007E6
:1055E000C007C000E00060006060E07FC03F800056
:1055F0000000000000000000000000000001C003E7
:10560000C003C006C00CC00CC018C030C03FE03F93
:10561000E000C003E003E000000000000000000024
:1056200000000000001FC01FC0180018001F801FCE
:10563000C018E000600060006030E03FC01F8000E4
:105640000000000000000000000000000003E00F68
:10565000E01E001800380037803FC038E03060306E
:105660006018E01FC007800000000000000000007C
:1056700000000000003FE03FE03060006000C0003C
:10568000C000C0018001800180030003000300000E
:10569000000000000000000000000000000F801F5C
:1056A000C038E0306038E01FC01FC038E0306030E4
:1056B0006038E01FC00F8000000000000000000004
:1056C00000000000000F001FC038C030603060389C
:1056D000E01FE00F6000E000C003C03F803E00001C
:1056E00000000000000000000000000000000000BA
:1056F0000000000000038003800380000000000021
:105700000003800380038000000000000000000010
:105710000000000000000000000000000001C001C7
:10572000C001C00000000000000380030006000666
:105730000004000000000000000000000000000065
:1057400000003000F003C007001C0078001C0007B8
:105750000003C000F0003000000000000000000066
:10576000000000000000000000000000007FF07F4B
:10577000F0000000007FF07FF0000000000000005B
:105780000000000000000000000000000000000019
:105790000030003C000F00038000E0007800E003D0
:1057A000800F003C003000000000000000000000FE
:1057B000000000000000000F801FC018601860008B
:1057C0006001C00380030000000000070007000024
:1057D0000000000000000000000000000003800C3A
:1057E0008008401040104011C01240124012401179
:1057F000C010000800084007800000000000000002
:10580000000000000000001F801F80038006C0060B
:10581000C00CC00C601FE01FE03030787878780052
:105820000000000000000000000000000000003F39
:10583000803FC01860186018E01FC01FE018701883
:105840003018303FF03FE000000000000000000092
:105850000000000000000007B00FF01C703830306E
:105860000030003000300038301C700FE007C000FE
:105870000000000000000000000000000000007FA9
:10588000807FC030E03070303030303030303030F9
:105890007030E07FC07F800000000000000000004A
:1058A000000000000000003FF03FF01830183019F1
:1058B000801F801F801980183018303FF03FF000A3
:1058C0000000000000000000000000000000003F99
:1058D000F03FF01830183019801F801F8019801891
:1058E0000018003F003F0000000000000000000022
:1058F0000000000000000007B01FF01870303030CA
:1059000000300031F831F8303018301FF007C00097
:105910000000000000000000000000000000003C4B
:10592000F03CF01860186018601FE01FE018601865
:105930006018603CF03CF000000000000000000037
:10594000000000000000001FE01FE0030003000350
:1059500000030003000300030003001FE01FE0003A
:105960000000000000000000000000000000000334
:10597000F803F80060006000600060306030603064
:105980006030E03FC00F8000000000000000000019
:10599000000000000000003EF83EF818E019801BEF
:1059A000001F001D8018C018C018603E783E3800E7
:1059B0000000000000000000000000000000003FA8
:1059C000003F000C000C000C000C000C000C300C14
:1059D000300C303FF03FF0000000000000000000FD
:1059E000000000000000007878787838703CF034CF
:1059F000B037B037B03330333030307CF87CF8001B
:105A0000000000000000000000000000000000395D
:105A1000F03DF01C601E601E601B601B6019E019E9
:105A2000E018E03EE03E60000000000000000000E2
:105A30000000000000000007800FC01CE03870303C
:105A40003030303030303038701CE00FC00780000C
:105A50000000000000000000000000000000003F07
:105A6000C03FE018701830183018701FE01FC018C1
:105A70000018003F003F0000000000000000000090
:105A80000000000000000007800FC01CE0387030EC
:105A90003030303030303038701CE00FC0078007B5
:105AA000B00FF00CE0000000000000000000003F1C
:105AB000C03FE01870183018701FE01FC018E018C1
:105AC0006018703E383E1800000000000000000022
:105AD000000000000000000FB01FF03870303038B8
